:02000002B0004C
:1040000000400B0058530B00000006000C00050296
:084010000401A60F00000000EE
:044018004C500B00FD
:10401C0009480A49884208B505D0094A824202D0AB
:10402C00121A00F05BFF0748074A0021121A00F031
:10403C0063FF014808BD00BF1CE60320B8520B000B
:10404C0094E6032094E60320EDE7032070B5074EB9
:10405C00074C00F08BFBA41BA4080025AC4200D13C
:10406C0070BD56F8043B98470135F7E768520B00D2
:10407C008C520B0000F014B808B500F02DF8BDE818
:10408C00084000F02BBB00F01FBA00F025BA0078F6
:10409C00B0FA80F0400970470123037070470000AC
:1040AC0010B50A4C0121208800F054FE084B002169
:1040BC00188800F04FFE074B0021188800F04AFECC
:1040CC0020880021BDE8104000F055BE20E60320FA
:1040DC0024E603201CE6032010B5224B224C188842
:1040EC0000F062FE214B2060188800F05DFE204B32
:1040FC00246818601F4B012C1A681DD102B91C6072
:10410C0001281ED11C4A1368012C03F10103136012
:10411C000CD11A4A136801331360194B21461888C5
:10412C0000F029FE174B1A6802B91C60BDE810405C
:10413C004FF4FA7000F0A6BA012A04BF00221A60EC
:10414C00DEE70F4B0021188800F015FE4FF4FA70D3
:10415C0000F098FA0B4B1A68012A04BF00221A606F
:10416C0010BD00BF24E60320B0E603201CE60320AC
:10417C00A4E60320ACE60320A0E60320A8E6032077
:10418C0020E60320B4E60320044B0022C3E90022FE
:10419C00A2F580329A60022000F00AB994E603205E
:1041AC0008B5024B1B689B68019308BD68020300AD
:1041BC0008B5024B1B68DB68019308BD680203005D
:1041CC0008B5024B1B689B68019308BD2C020300C9
:1041DC0008B5024B1B68DB68019308BD2C02030079
:1041EC0008B5024B1B681B69019308BD2C02030028
:1041FC0008B5024B1B685B69019308BD2C020300D8
:10420C0008B5024B1B685B68019308BD18020300DC
:10421C0008B5024B1B685B69019308BD18020300CB
:10422C0008B5024B1B685B6C019308BD4802030088
:10423C0008B5024B1B685B69019308BD640203005F
:10424C0008B5024B1B68DB68019308BD3C020300F8
:10425C0008B5024B1B681B69019308BD3C020300A7
:10426C0008B5024B1B685B69019308BD3C02030057
:10427C0008B5024B1B689B69019308BD3C02030007
:10428C0008B5024B1B68DB69019308BD3C020300B7
:10429C0008B5024B1B681B6A019308BD3C02030066
:1042AC0008B5024B1B689B6A019308BD3C020300D6
:1042BC0008B5024B1B681B6C019308BD3C02030044
:1042CC0008B5024B1B681B6A019308BD280203004A
:1042DC0008B5024B1B685B6A019308BD28020300FA
:1042EC0008B5024B1B689B6A019308BD28020300AA
:1042FC0008B5024B1B68DB6A019308BD280203005A
:10430C0008B5024B1B681B6B019308BD2802030008
:10431C0008B5024B1B685B6B019308BD28020300B8
:10432C0008B5024B1B681B6C019308BD28020300E7
:10433C0008B5024B1B68DB69019308BD3002030012
:10434C0008B5024B1B681B6A019308BD30020300C1
:10435C0008B5024B1B681B68019308BD4C02030097
:10436C0008B5024B1B681B69019308BD4C02030086
:10437C0008B5024B1B685B69019308BD4C02030036
:10438C0008B5024B1B689B69019308BD4C020300E6
:10439C0008B5024B1B68DB69019308BD4C02030096
:1043AC0008B5024B1B681B6A019308BD4C02030045
:1043BC0008B5024B1B685B68019308BD2002030023
:1043CC0008B5024B1B685B69019308BD2002030012
:1043DC0008B5034B1B68D3F88830019308BD000067
:1043EC002002030008B5034B1B68D3F894300193EB
:1043FC0008BD00002002030008B5024B1B685B6877
:10440C00019308BD4002030008B5024B1B689B6872
:10441C00019308BD4002030008B5024B1B68DB6822
:10442C00019308BD4002030008B5024B1B681B69D1
:10443C00019308BD4002030008B5024B1B685B6981
:10444C00019308BD4002030008B5024B1B689B6931
:10445C00019308BD4002030008B5024B1B68DB69E1
:10446C00019308BD4002030008B5024B1B681B6A90
:10447C00019308BD4002030008B5024B1B681B6B7F
:10448C00019308BD4002030008B5024B1B685B6B2F
:10449C00019308BD4002030008B5024B1B681B6C5E
:1044AC00019308BD4002030008B5024B1B685B6C0E
:1044BC00019308BD4002030008B5024B1B68DB6B7F
:1044CC00019308BD4402030008B5024B1B681B682E
:1044DC00019308BD1C02030008B5024B1B685B6806
:1044EC00019308BD1C02030008B5024B1B681B6C32
:1044FC00019308BD1C02030008B5024B1B685B6CE2
:10450C00019308BD1C020300002240681146FFF70E
:10451C00ABBF002240681146FFF7B6BF40680022CF
:10452C00FFF7AABF4068002281F00101FFF794BF9A
:10453C00002340681A461946FFF786BF00234068DF
:10454C001A461946FFF778BF002240681146FFF75C
:10455C006BBF002240681146FFF756BF406800222F
:10456C000221FFF759BF002340681A46FFF744BFEA
:10457C00024B03225A60024A1A607047B8E60320C5
:10458C0068500B0010B5044608462170FFF7D0FEAA
:10459C0000236360204610BD054B02221A60054BB8
:1045AC00054A9A600020C3E90000FFF701BF00BF75
:1045BC00CCE60320C0E603200000FFFF02480023E6
:1045CC000360FFF72DBE00BFD0E60320F8B506460A
:1045DC000D468F180024BD420CD0336815F8011B12
:1045EC009B6830469847031E01DB1C44F3E7002C04
:1045FC0008BF1C462046F8BD13B50446084659B101
:10460C00019100F0AFFC23680199DB68024620465B
:10461C0002B0BDE81040184702B010BD03689B689B
:10462C00184730B58BB00023012A8DF8243098BF81
:10463C000A2209AC0D46B1FBF2F101FB125303F057
:10464C00FF03092B94BF30333733DBB2AA4204F893
:10465C00013DEFD92146FFF7CFFF0BB030BD000075
:10466C00014B024A1A607047D4E603209C500B00A1
:10467C00024B1A68024B1A60704700BF28E60320F1
:10468C00D8E603200021FFF79BBE0000014B00225F
:10469C009A607047DCE60320014B1860704700BF3E
:1046AC002CE6032008B50B4B43B100F063F903680B
:1046BC001B699847002801DDAFF30080064B43B11E
:1046CC0000F0A0FB03681B699847002801DDAFF3DD
:1046DC00008008BD000000000000000008B5FFF7D6
:1046EC00E1FFFFF795FD014B186008BD40E7032083
:1046FC000548064A064908B5121A00F0EFFB054BAF
:10470C00054A1A6008BD00BF00F4032004F403201E
:10471C00B4520B0000F403201E1C279A07B500238B
:10472C0000931A466FF07701FFF75CFE03B05DF85B
:10473C0004FB000007B543880A2B08D0502B0BD183
:10474C00094B1B684BB103B05DF804EB1847FFF73E
:10475C00E5FF03B05DF804FB002300931A466FF0ED
:10476C007701FFF73FFEF4E7F0E6032010B512489F
:10477C000021FFF7C1FE114B1A68114B9A42114BE5
:10478C000CBF012200221A7001D0FFF7B1FFFFF716
:10479C0037FD044600F0B8FB0B4B13B12046AFF3CA
:1047AC00008000210848FFF787FEBDE8104007484D
:1047BC000021FFF70DBE00BFA5460B0000F403203F
:1047CC001E1C279AECE603200000000041470B005A
:1047DC00704710B518210446FFF757FC204610BD52
:1047EC00F0B5037D062B8DB00E4600F104074FF09B
:1047FC00000412D000F1080515F8011D0A223046FC
:10480C00FFF70FFFAF42044419D0002CF4D02E2137
:10481C003046FFF703FF0444EEE72F236A46394680
:10482C000A208DF80040FFF703FD684600F09AFB64
:10483C0033680246DB686946304698470446204692
:10484C000DB0F0BD10B5054B0446112240F8043BE9
:10485C00002100F051FB204610BD00BFC4500B00DE
:10486C000346074A10B543F8042B01F1100251F826
:10487C00044B43F8044B9142F9D10A781A7010BDDD
:10488C00C4500B0010B59DF8084044EA032343EADA
:10489C00024242EA016104234160037510BD00002D
:1048AC0007B5064B0360CB7800938B784A78097870
:1048BC00FFF7E8FF03B05DF804FB00BFC4500B002A
:1048CC00417470477047704708B50021007CFFF7B2
:1048DC0057FD40EAE07008BD08B50121007CFFF7E8
:1048EC004FFD40EAE07008BD08B5007CFFF740FDC5
:1048FC0020EAE07008BD08B5007CFFF731FD20EA26
:10490C00E07008BD13B50446007C0191FFF730FD43
:10491C000028019901DC607C20B1207CFFF738FD78
:10492C0020EAE07002B010BD007CFFF739BD10B575
:10493C0014210446FFF7A9FB204610BD10B54FF417
:10494C007A73044608460021C4E90113044B236022
:10495C000123207463741146FFF7FAFC204610BD46
:10496C00D8500B0010B514220446002100F0C4FAF4
:10497C00204610BD10B50F4C88B003A8FFF7F2FF0E
:10498C002178BFF35B8F11F001010FD1204601910B
:10499C00FFF77DFB019948B103AA0748FFF7CEFF4B
:1049AC002046FFF779FB054800F092FA024808B060
:1049BC0010BD00BFF4E60320F8E60320D1480B003D
:1049CC0070474174704708B5007CFFF769FC20EA1A
:1049DC00E07008BD08B5007CFFF73AFC20EAE070F7
:1049EC0008BD08B5007CFFF743FC40EAE07008BD49
:1049FC0008B5007CFFF734FC40EAE07008BD007C91
:104A0C00FFF73EBC37B5457C04462DB1207C03B086
:104A1C00BDE83040FFF714BC007C0191FFF740FC6F
:104A2C0000280199F2DC284603B030BD10B51421E2
:104A3C000446FFF72AFB204610BD000010B54FF4CA
:104A4C007A730446084611460022C4E90123044B3C
:104A5C002360012320746374FFF72AFC204610BDE9
:104A6C0008510B007047F8B5064615460C468F18D2
:104A7C00BC4206D0336814F8011B9B68304698473B
:104A8C00F6E72846F8BD007C0022FFF719BC007C35
:104A9C000021FFF71DBC007C0021FFF721BC007C2E
:104AAC000021FFF725BC007C0021FFF729BC10B5C5
:104ABC0014210446FFF7E9FA204610BD38B5044628
:104ACC0015464FF47A730022C4E90123094B217473
:104ADC00084623602946FFF723FCBF3008D16B69D9
:104AEC00DB0705D56868FFF7F7FCE868FFF7F4FC0F
:104AFC00204638BD38510B00002240681146FFF7A4
:104B0C0093BC002240681146FFF7AEBC00224068FF
:104B1C001146FFF7B9BC40680022FFF7ADBC4068F6
:104B2C00002281F00101FFF797BC002340681A4670
:104B3C001946FFF789BC002340681A461946FFF74F
:104B4C007BBC002240681146FFF75EBC4068002227
:104B5C000221FFF761BC002340681A46FFF74CBCEA
:104B6C00024B04225A60024A1A6070470CE7032079
:104B7C0060510B00002340681A46FFF73DBC4068AB
:104B8C0000220221FFF748BC002240681146FFF7C3
:104B9C003BBC002240681146FFF746BC002340682E
:104BAC001A461946FFF748BC002340681A461946B6
:104BBC00FFF74ABC40680021FFF76EBC406800213B
:104BCC00FFF772BC4068002281F00101FFF744BC82
:104BDC0040680022FFF750BC002240681146FFF7E6
:104BEC0053BC002240681146FFF73EBC2DE9F04350
:104BFC0095B014460D460746FFF724FE00211C22F3
:104C0C000DA8009100F078F940230C9320466B46D8
:104C1C000CAA0021FFF7CCFA044600284BD102461F
:104C2C0001216868FFF700FC022180462246686873
:104C3C00FFF7FAFB009E81462146002E3BD000294F
:104C4C0039D17368022B03D00A2B11D0F669F4E723
:104C5C00B8F1000FFAD0716906A8043107ADFFF75F
:104C6C001FFE0FCD3C1D0FC42B6823704146EDE792
:104C7C00B9F1000FEAD07469102201A800F03CF9D8
:104C8C0006238DF8143001AD04F1080318341868AC
:104C9C0059682A4603C20833A3421546F7D101A925
:104CAC0006A807ADFFF7DCFD0FCD3C1D0FC42B682C
:104CBC0023704946CAE70098FFF772FA384615B0D8
:104CCC00BDE8F083024B034A1A6000225A60704719
:104CDC0014E703209C510B00232813B502D90020A4
:104CEC0002B010BDA0F10B03022B1AD8174C21787F
:104CFC00BFF35B8F11F001010BD120460191FFF73F
:104D0C00C6F9019928B11248FFF73CFC2046FFF781
:104D1C00C3F90F4B1878FFF713FB0028DFD10120E4
:104D2C00DEE7012809D800F0ADF80021007CFFF780
:104D3C00EFFA80F00100C0B2D2E709380128EED8B2
:104D4C0000F060F8007CFFF7A3FAF2E71CE7032001
:104D5C0020E70320232838B504460D460AD8FF293E
:104D6C0008D0FFF7B9FF28B129462046BDE83840E6
:104D7C00FFF726BA38BD38B504460D46FFF728FABA
:104D8C00FF2810D0062804D84D2323FA00F0C307BF
:104D9C0009D42046FFF7A0FF28B129462046BDE8DC
:104DAC003840FFF71DBA38BD10B50446FFF710FAAE
:104DBC00031FDBB2012B08D92046FFF78DFF20B172
:104DCC002046BDE81040FFF713BA002010BD704715
:104DDC0038B5044614252A46002100F08DF82580AC
:104DEC004025074925812846258200F06FF80449A3
:104DFC006060284600F06AF8E060204638BD00BFCD
:104E0C00D0510B0030B50E4D2978BFF35B8F11F0EC
:104E1C00010487B011D12846FFF739F968B101A810
:104E2C00FFF7D6FF01AA21460648FFF707FE2846E2
:104E3C00FFF732F9044800F04BF8024807B030BDD8
:104E4C0028E703202CE70320DB4D0B007047000004
:104E5C0038B50A4B036001230446436108492020FE
:104E6C0000F034F8202560600549A560284600F064
:104E7C002DF8C4E90305204638BD00BF1800010019
:104E8C00D0510B0030B50E4D2978BFF35B8F11F06C
:104E9C00010487B011D12846FFF7F9F868B16846CC
:104EAC00FFF7D6FF6A4621460648FFF707FE28465D
:104EBC00FFF7F2F8044800F00BF8024807B030BDD9
:104ECC0044E7032048E70320594E0B00FFF7DBB8FB
:104EDC00002301461A46184600F04CB80A44914289
:104EEC0000F1FF3300D1704710B511F8014B03F8F6
:104EFC00014F9142F9D110BD02440346934200D1B7
:104F0C00704703F8011BF9E738B5104B1D68AB6B04
:104F1C000446B3B91820FFF7D7FA0246A86320B9A4
:104F2C000B4B0C484221FFF7DFFA0B490B4BC0E946
:104F3C0000130B4B83600B23838100210120C2E9FA
:104F4C000401AB6B00221C615A6138BD2CE60320B6
:104F5C00D1510B00E8510B000E33CDAB34126DE682
:104F6C00ECDE0500034613F8012B002AFBD1181ABE
:104F7C00013870472DE9F843DFF8B8800646D8F8B9
:104F8C0000001F460D46914600F056F8254B1C6854
:104F9C0034B9254C1C60254B13B11B68C4F8883000
:104FAC0063681F2B07DDD8F8000000F047F84FF0BE
:104FBC00FF30BDE8F8834EB3D4F8880088B91C4B99
:104FCC0023B9D8F8000000F038F8F0E74FF48470FB
:104FDC00FFF77AFA0028F4D00023C0E94033C4F874
:104FEC008800636840F8239001229A4000EB83010B
:104FFC00D0F800311343C0F80031022EC1F8807094
:10500C0002BFD0F804311343C0F804316368D8F8F8
:10501C0000005A1C0233626044F8235000F00EF872
:10502C000020C6E7E8E703205CE70320000000004F
:10503C00D5440B0090E60320704770477047000082
:10504C001D400B0059400B0081400B0085400B00AC
:10505C0000000000000000000000000073450B0081
:10506C0069450B005F450B0055450B0049450B008E
:10507C003D450B00C14B0B00C94B0B0031450B00E0
:10508C0029450B001F450B0015450B00F94B0B0078
:10509C006170700025592D256D2D25645425483AD5
:1050AC00254D3A2553257A0061736374696D65004B
:1050BC000000000000000000ED470B00DD470B0076
:1050CC00DF470B000000000000000000D3480B007D
:1050DC003B490B0011490B00D9450B0003490B0050
:1050EC00D5480B00E5480B0035490B00F5480B0083
:1050FC00CD480B000000000000000000CD490B0063
:10510C00394A0B00114A0B00D9450B00E1490B0041
:10511C00FD490B00EF490B000B4A0B00CF490B006C
:10512C00D3490B000000000000000000714A0B0086
:10513C00BB4A0B00934A0B00734A0B009B4A0B00B3
:10514C00A34A0B00AB4A0B00B34A0B000000000053
:10515C0000000000634B0B00594B0B004F4B0B0036
:10516C00054B0B00434B0B00374B0B00C14B0B009B
:10517C00C94B0B002B4B0B00234B0B00194B0B009B
:10518C000F4B0B00F94B0B0000000000000000005F
:10519C00814B0B008B4B0B00954B0B009F4B0B006B
:1051AC00A94B0B00B54B0B00C14B0B00C94B0B00B3
:1051BC00D14B0B00DD4B0B00E54B0B00EF4B0B0009
:1051CC00F94B0B00005245454E54206D616C6C6FD1
:1051DC006320737563636565646564002F6D6E741D
:1051EC002F776F726B73706163652F776F726B7350
:1051FC00706163652F4743432D31302D70697065A5
:10520C006C696E652F6A656E6B696E732D474343CF
:10521C002D31302D706970656C696E652D34385F79
:10522C0032303230313132345F3136303631383021
:10523C003634312F7372632F6E65776C69622F6E03
:10524C0065776C69622F6C6962632F7374646C6927
:10525C00622F72616E642E630000000095410B009A
:10526C007D450B00A5450B00C9450B006D460B0099
:10527C007D460B0099460B006D4B0B00D14C0B007F
:04528C00000000001E
:10529000040000001400000003000000474E550009
:1052A0009FC0D611675A4598A672133464C531461B
:0452B000DBBE349F8E
:0452B40000000000F6
:1052B800020000000400000003000000B4500B00CE
:1052C80030E603200000000000000000000000009D
:1052D80000000000000000000000000000000000C6
:1052E80000000000000000000000000000000000B6
:1052F80000000000000000000000000000000000A6
:105308000000000000000000000000000000000095
:105318000000000000000000000000000000000085
:0853280000000000ECE7032087
:10533000FFFFFFFF00000102030405060708090A3A
:105340000B0C0D0E0F101112131415161718191A35
:085350001B1C1D1E1F2028007C
:04535800785634123D
:04000003B000401CED
:00000001FF
