:02000002B0004C
:1040000000400B00B85E0B00000006000C0005022B
:084010000401A60F00000000EE
:04401800345B0B000A
:10401C0009480A49884208B505D0094A824202D0AB
:10402C00121A01F0A8FC0748074A0021121A01F0E5
:10403C00B0FC014808BD00BFDCE50320185E0B0096
:10404C0054E6032058E60320F1E7032070B5074E31
:10405C00074C00F029FEA41BA4080025AC4200D19B
:10406C0070BD56F8043B98470135F7E7C45D0B006B
:10407C00E85D0B0000F016B808B500F045F8BDE897
:10408C00084000F0C9BD00F0FDBA00F0FBBA00F02A
:10409C0001BB0078B0FA80F040097047012303702F
:1040AC007047000010B50A4C0121208801F09CFBE0
:1040BC00084B0021188801F097FB074B002118884A
:1040CC0001F092FB20880021BDE8104001F09DBB5F
:1040DC00E0E50320E4E50320DCE5032038B50468C3
:1040EC0005467CB16368013B63605BB9236820467D
:1040FC009B689847A368013BA3601BB923682046C3
:10410C00DB689847284638BDF0B54E4B4E4D1888A5
:10411C004E4E4F4C91B001F091FB4E4B28601888DD
:10412C0001F08CFB2F6823683060012F68D16BB9CC
:10413C00494B4A4A1B784A498DF800300CA83C235D
:10414C0000F010FF0DA8FFF7C9FF27603368012BA3
:10415C0068D1444A2C681368012C03F101031360E5
:10416C000CD1414A136801331360404B2146188827
:10417C0001F04BFB3E4B1A6802B91C604FF4FA700D
:10418C0000F01EFD00F006FD002837D1394908A8C3
:10419C0000F0A9FB344B0A22196804A800F0C9FBF3
:1041AC0004A908A800F0EFFB334900F0F8FB3349F1
:1041BC0000F0F5FB2B4B0A22196804460CA800F002
:1041CC00B8FB0CA9204600F0DEFB2D4900F0E7FB04
:1041DC002C4B02681B782C498DF8003002A83C232C
:1041EC0000F0C0FE03A8FFF779FF0CA800F030FB2D
:1041FC0004A800F02DFB08A800F02AFB11B0F0BDBC
:10420C00012BA3D1144B214A1B7815498DF8003092
:10421C000CA83C2300F0A6FE0DA8FFF75FFF0023BF
:10422C00236093E7114B0021188801F0EEFA4FF44C
:10423C00FA7000F0C5FC0E4B1A68012A04BF00226C
:10424C001A609FE7E4E5032078E603206CE6032080
:10425C0074E60320DCE5032064E60320485B0B00D6
:10426C004D5B0B0068E6032070E60320E0E50320BD
:10427C007CE60320655B0B007B5B0B007E5B0B001D
:10428C00925B0B0065E60320955B0B00615B0B00FA
:10429C00074B00221A70074B01211970064BC3E91A
:1042AC000022A2F580329A60022000F027B900BFEC
:1042BC0064E6032065E6032058E6032008B5024BAC
:1042CC001B689B68019308BD6802030008B5024B8C
:1042DC001B68DB68019308BD6802030008B5024B3C
:1042EC001B689B68019308BD2C02030008B5024BA8
:1042FC001B68DB68019308BD2C02030008B5024B58
:10430C001B681B69019308BD2C02030008B5024B06
:10431C001B685B69019308BD2C02030008B5024BB6
:10432C001B685B68019308BD1802030008B5024BBB
:10433C001B685B69019308BD1802030008B5024BAA
:10434C001B689B6D019308BD1802030008B5024B56
:10435C001B685B6E019308BD1802030008B5024B85
:10436C001B685B6C019308BD4802030008B5024B47
:10437C001B685B69019308BD6402030008B5024B1E
:10438C001B68DB68019308BD3C02030008B5024BB7
:10439C001B681B69019308BD3C02030008B5024B66
:1043AC001B685B69019308BD3C02030008B5024B16
:1043BC001B689B69019308BD3C02030008B5024BC6
:1043CC001B68DB69019308BD3C02030008B5024B76
:1043DC001B681B6A019308BD3C02030008B5024B25
:1043EC001B689B6A019308BD3C02030008B5024B95
:1043FC001B681B6C019308BD3C02030008B5024B03
:10440C001B681B6A019308BD2802030008B5024B08
:10441C001B685B6A019308BD2802030008B5024BB8
:10442C001B689B6A019308BD2802030008B5024B68
:10443C001B68DB6A019308BD2802030008B5024B18
:10444C001B681B6B019308BD2802030008B5024BC7
:10445C001B685B6B019308BD2802030008B5024B77
:10446C001B681B6C019308BD2802030008B5024BA6
:10447C001B68DB69019308BD3002030008B5024BD1
:10448C001B681B6A019308BD3002030008B5024B80
:10449C001B681B68019308BD4C02030008B5024B56
:1044AC001B681B69019308BD4C02030008B5024B45
:1044BC001B685B69019308BD4C02030008B5024BF5
:1044CC001B689B69019308BD4C02030008B5024BA5
:1044DC001B68DB69019308BD4C02030008B5024B55
:1044EC001B681B6A019308BD4C02030008B5024B04
:1044FC001B681B68019308BD2002030008B5024B22
:10450C001B685B68019308BD2002030008B5024BD1
:10451C001B685B69019308BD2002030008B5024BC0
:10452C001B68DB6C019308BD2002030008B5024B2D
:10453C001B685B6D019308BD2002030008B5024B9C
:10454C001B689B6D019308BD2002030008B5034B4B
:10455C001B68D3F88830019308BD000020020300CB
:10456C0008B5034B1B68D3F89430019308BD0000C9
:10457C002002030008B5024B1B685B68019308BD61
:10458C004002030008B5024B1B689B68019308BDF1
:10459C004002030008B5024B1B68DB68019308BDA1
:1045AC004002030008B5024B1B681B69019308BD50
:1045BC004002030008B5024B1B685B69019308BD00
:1045CC004002030008B5024B1B689B69019308BDB0
:1045DC004002030008B5024B1B68DB69019308BD60
:1045EC004002030008B5024B1B681B6A019308BD0F
:1045FC004002030008B5024B1B681B6B019308BDFE
:10460C004002030008B5024B1B685B6B019308BDAD
:10461C004002030008B5024B1B681B6C019308BDDC
:10462C004002030008B5024B1B685B6C019308BD8C
:10463C004002030008B5024B1B689B68019308BD40
:10464C004402030008B5024B1B685B69019308BD6B
:10465C004402030008B5024B1B681B6A019308BD9A
:10466C004402030008B5024B1B681B6B019308BD89
:10467C004402030008B5024B1B68DB6B019308BDB9
:10468C004402030008B5024B1B681B68019308BD6C
:10469C001C02030008B5024B1B685B68019308BD44
:1046AC001C02030008B5024B1B689B68019308BDF4
:1046BC001C02030008B5024B1B68DB6A019308BDA2
:1046CC001C02030008B5024B1B681B6B019308BD51
:1046DC001C02030008B5024B1B681B6C019308BD40
:1046EC001C02030008B5024B1B685B6C019308BDF0
:1046FC001C02030008B5024B1B68DB6C019308BD60
:10470C001C020300002240681146FFF76BBF002219
:10471C0040681146FFF776BF40680022FFF76ABF7A
:10472C004068002281F00101FFF754BF002340686C
:10473C001A461946FFF746BF002340681A46194629
:10474C00FFF738BF002240681146FFF72BBF00224D
:10475C0040681146FFF716BF406800220221FFF7A0
:10476C0019BF002340681A46FFF704BF024B03220F
:10477C005A60024A1A60704780E60320A85B0B005F
:10478C0010B5044608462170FFF770FE00236360E5
:10479C00204610BD054B02221A60054B054A9A6053
:1047AC000020C3E90000FFF7A9BE00BF94E6032078
:1047BC0088E603200000FFFF10B5044601F045F920
:1047CC00013823182046834206D90278197800F85C
:1047DC00011B03F80129F6E710BD70B50C46911EBC
:1047EC0022291DD8254630B9234430229D4210D2AF
:1047FC0005F8012BFAE7B0FBF2F602FB1600C1B28A
:10480C00092894BF30315731C9B205F8011B304625
:10481C00E9E7002320462B70FFF7CEFF204670BD42
:10482C000020FCE738B5031E0C4615460EDAB3F132
:10483C00004F4FF02D0214BF5842184601230A7046
:10484C002A461944FFF7C9FF204638BD0123F9E772
:10485C0010B504460068FFF71DFF204610BD10B5CB
:10486C000446006808B1FFF715FF0023C4E90133C3
:10487C00236010BD38B504460D4600680131FFF7C2
:10488C0011FF10B1C4E90005012038BD10B5036853
:10489C00044623B143688B4201D3012010BD20464E
:1048AC00FFF7E8FF0028F9D0A368002BF5D12268A8
:1048BC001370F2E737B50D46114601920446FFF727
:1048CC00E5FF019A28B92046FFF7C9FF204603B03F
:1048DC0030BDA2602946206801F04DF82268A3681B
:1048EC000021D154F2E7002313B5C0E9003304468C
:1048FC008360037341B10846019101F0A6F8019958
:10490C0002462046FFF7D6FF204602B010BD13B575
:10491C00044659B10846019101F097F801990246F5
:10492C002046FFF7C7FF204602B010BDFFF797FFE8
:10493C00F9E710B504468AB00023C4E90033A3603C
:10494C002373084601A9FFF76DFF01A92046FFF765
:10495C00DEFF20460AB010BD70B505460E4609B9FB
:10496C00002070BD6AB1846814442146FFF78EFFA5
:10497C000028F5D02868AB683146184401F040F89F
:10498C00AC600120EDE710B58A6809680446FFF7B2
:10499C00E3FF10B92046FFF762FF204610BD13B5A8
:1049AC00044629B92046FFF75AFF204602B010BD35
:1049BC000846019101F049F8019902462046FFF79B
:1049CC00CBFF0028EED0F0E710B58368044613B196
:1049DC00032201469847204610BD13B50B460246EC
:1049EC00D0E900016C4684E8030093E8030082E8F8
:1049FC00030094E8030083E8030002B010BD00003C
:104A0C00024800230360FFF7A9BC00BF98E603200F
:104A1C00F8B506460D468F180024BD420CD03368FD
:104A2C0015F8011B9B6830469847031E01DB1C449C
:104A3C00F3E7002C08BF1C462046F8BD13B504460E
:104A4C00084659B1019101F000F823680199DB681F
:104A5C000246204602B0BDE81040184702B010BD17
:104A6C0003689B68184730B58BB00023012A8DF87A
:104A7C00243098BF0A2209AC0D46B1FBF2F101FBC0
:104A8C00125303F0FF03092B94BF30333733DBB2DF
:104A9C00AA4204F8013DEFD92146FFF7CFFF0BB036
:104AAC0030BD0000014B024A1A6070479CE603209F
:104ABC00DC5B0B002DE9F041154ADFF86080D2E990
:104ACC000063801943EB0101124BD3E90067D8E96D
:104ADC000023861941EB0707BB4208BFB2428CB0DA
:104AEC0013D003A96846CDE90067FFF703FE089BC6
:104AFC00094D03F26C7303AC08930FCC0FC50FCCAC
:104B0C000FC5C8E9006723682B600CB0BDE8F081C5
:104B1C00D0E60320C8E60320A4E60320D8E6032051
:104B2C0008B50020FFF79EFD28B1FFF78BFD80F044
:104B3C000100C0B208BD0120FCE710B50020FFF752
:104B4C00FDFB0446A0B9FFF7D1FC012810D120468B
:104B5C00FFF7F4FC60B9FFF7E3FF10B9FFF76AFD4C
:104B6C00F9E7FFF7DDFFBDE810400020FFF7E6BBDB
:104B7C00204610BD1FB5FFF7E0FF1022002168464C
:104B8C0000F007FF00216846FFF7E0FB009805B036
:104B9C005DF804FB08B5FFF7EDFFC117FFF78AFFBF
:104BAC00014B186808BD00BFA4E60320024B1A682D
:104BBC00024B1A60704700BFE8E50320A0E6032013
:104BCC000021FFF7A3BC0000014B00229A60704744
:104BDC00E0E60320014B1860704700BFECE50320B2
:104BEC0008B50B4B43B100F0FBFB03681B699847FE
:104BFC00002801DDAFF30080064B43B100F04CFE02
:104C0C0003681B699847002801DDAFF3008008BDDD
:104C1C00000000000000000008B5FFF7E1FFFFF7FF
:104C2C0085FB014B186008BD44E703200548064A84
:104C3C00064908B5121A00F09EFE054B054A1A608B
:104C4C0008BD00BF00F4032004F40320145E0B0025
:104C5C0000F403201E1C279A07B5002300931A4664
:104C6C006FF07701FFF77CFC03B05DF804FB0000EC
:104C7C0007B543880A2B08D0502B0BD1094B1B6866
:104C8C004BB103B05DF804EB1847FFF7E5FF03B039
:104C9C005DF804FB002300931A466FF07701FFF7D1
:104CAC005FFCF4E7F4E6032010B512480021FFF78F
:104CBC0019FD114B1A68114B9A42114B0CBF012272
:104CCC0000221A7001D0FFF7B1FFFFF727FB044653
:104CDC0000F068FE0B4B13B12046AFF300800021AF
:104CEC000848FFF7C7FCBDE8104007480021FFF754
:104CFC002DBC00BFE14B0B0000F403201E1C279AB7
:104D0C00F0E60320000000007D4C0B0070470020F3
:104D1C00704710B510210446FFF7B9F9204610BDB5
:104D2C0008B5FFF7F6FF08BD30B500224FF69C74AE
:104D3C00026084808D888C800C68858004600A6099
:104D4C0030BD10B504460068FFF7A4FC204610BD2A
:104D5C0038B5C468F4B12378022B03D104F10C00EC
:104D6C00FFF7EFFF656835B12846FFF72DFE1021E0
:104D7C002846FFF78CF9A56835B12846FFF724FEC5
:104D8C0010212846FFF783F920461421BDE838404E
:104D9C00FFF77DB938BD0B6803604B68436013B1F6
:104DAC005A6801325A60704737B5044668460D465A
:104DBC00FFF7F1FF009B019A23606260002301A8BA
:104DCC0001930093FFF78AF935B1281DFFF786F997
:104DDC0008212846FFF75BF9204603B030BD8268F6
:104DEC0010B50AB900F0BEFDBDE81040C368184705
:104DFC0008B5006800F11001FFF7F1FF08BD8268EB
:104E0C0010B50AB900F0AEFDBDE81040C3681847F4
:104E1C0008B5006800F11001FFF7F1FF08BD0000B4
:104E2C0038B500230446036010200D46FFF72BF91C
:104E3C0028B10123C0E90133024B0360C560206037
:104E4C00204638BD045C0B0038B5002383608B68AA
:104E5C0004460D462BB102229847EB68E360AB6821
:104E6C00A360204638BD0000F0B589B004686846E0
:104E7C00FFF75AFF4FF00203D4E84F2F002A03D15B
:104E8C00C4E8413F0029F7D125D104F10C0569464E
:104E9C002846FFF749FFBFF35B8F012363700020A7
:104EAC0004F10803BFF35B8F53E8006F43E8000283
:104EBC00002AF9D1BFF35B8F6EB1FFF72FFB78B1EE
:104ECC0029463046FFF78BFF3046FFF77DFD10215A
:104EDC003046FFF7DCF86846FFF733FF09B0F0BD4A
:104EEC00314602A8FFF7B0FFE068B4F9105008B1E2
:104EFC0000F08EFD06901020ADF81C50FFF7C3F8A3
:104F0C000546E8B1002787601820FFF7BCF8044677
:104F1C0088B10146876002A8FFF75FFD049BA26879
:104F2C00A360059B049206A9E268E36004F11000FB
:104F3C000592FFF7F9FE084BEB60084B2C60AB6059
:104F4C0006A8FFF7FEFE02A8FFF73EFD0022294649
:104F5C000348FFF7EBFAB7E7FD4D0B0081500B0050
:104F6C00DD540B002DE9F04F8BB005469DF850A099
:104F7C000F4690469946FFF765FB07AE834638BB54
:104F8C004FF62E73059005A93046ADF81830FFF793
:104F9C00CBFE1420FFF777F8044648B102230370C8
:104FAC000123C0E901BB437031460C30FFF7BCFE56
:104FBC002846214640F8044BFFF732FF3046FFF7F6
:104FCC00C0FE05A8FFF7BDFE28460BB0BDE8F08F6C
:104FDC000C2300241420CDE908440793FFF753F861
:104FEC00014618B1C0E901440470447004A803914F
:104FFC00FFF716FF1E4B08930820FFF744F80446F2
:10500C0010B103A9FFF7C7FE00965FFA8AF34A4670
:10501C00414638460994FFF71DFBB8B9039B5B78F2
:10502C0003F0FF0293B94FF69C7305A903A80592F0
:10503C00ADF81830FFF718FF05A8FFF782FE05A89A
:10504C000999FFF7B1FE06A8FFF748F803A905A8D0
:10505C00FFF7A1FE059B069A2B606A60002306A849
:10506C0006930593FFF73AF804A8FFF737F8ABE778
:10507C00FD500B00012AF8B5054603D10B680360FF
:10508C000020F8BD022A10D0032AF9D10468002CA4
:10509C00F6D004F11000FFF754FE2046FFF794FC05
:1050AC0018212046FEF7F3FFEAE718200E68FEF7FA
:1050BC00EAFF044650B13146FFF7C6FE3069B6F937
:1050CC00147008B100F0A4FC2061A7822C60D7E713
:1050DC0038B5002383608B6804460D462BB1022241
:1050EC009847EB68E360AB68A360204638BD0000CE
:1050FC00F0B589B004460D4601A81146FFF754FEE1
:10510C00A4B124B21DB1284600F082FC054601A8CA
:10511C0003A90395ADF81040FFF7A6FE03A8FFF70F
:10512C0010FE02A8FEF7DAFF09B0F0BD019D0123C5
:10513C00D5E84F2F002A03D1C5E8413F0029F7D10C
:10514C00EFD12B73BFF35B8F6B702B1DBFF35B8F9A
:10515C0053E8006F43E80042002AF9D1BFF35B8F9C
:10516C00002EDED02046FFF7D9F9074660B105F1D5
:10517C000C013046FFF743FE3046FFF725FC1021AB
:10518C003046FEF784FFCCE7314603A8FFF7A0FFBB
:10519C002B7B8DF81C301020FEF775FF0546D0B127
:1051AC0087601420FEF76FFF044678B187600146D4
:1051BC0003A8FFF712FC059BA268A360069B05924F
:1051CC00E268E3609DF81C3006922374064BEB609A
:1051DC00064B2C60AB6003A8FFF7F6FB00222946B8
:1051EC000348FFF7A3F9C7E71D4E0B0001520B0054
:1051FC00DD540B00012A70B5044603D10B68036023
:10520C00002070BD022A0CD0032AF9D10468002CAE
:10521C00F6D02046FFF7D8FB14212046FEF737FFC7
:10522C00EEE714200E68FEF72EFF054620B131463E
:10523C00FFF74EFF337C2B742560E1E7704710B508
:10524C0018210446FEF723FF204610BDF0B5037D60
:10525C00062B8DB00E4600F104074FF0000412D05F
:10526C0000F1080515F8011D0A223046FFF7FBFB7B
:10527C00AF42044419D0002CF4D02E213046FFF755
:10528C00EFFB0444EEE72F236A4639460A208DF8DB
:10529C000040FFF76BF8684600F0D7FB3368024616
:1052AC00DB68694630469847044620460DB0F0BD91
:1052BC0010B5054B0446112240F8043B002100F0C8
:1052CC0068FB204610BD00BF205C0B000346074A5C
:1052DC0010B543F8042B01F1100251F8044B43F8BC
:1052EC00044B9142F9D10A781A7010BD205C0B0066
:1052FC0010B59DF8084044EA032343EA024242EA0F
:10530C00016104234160037510BD000007B5064B15
:10531C000360CB7800938B784A780978FFF7E8FF25
:10532C0003B05DF804FB00BF205C0B0041747047B8
:10533C007047704708B50021007CFFF7BFF840EAC2
:10534C00E07008BD08B50121007CFFF7B7F840EA12
:10535C00E07008BD08B5007CFFF7A8F820EAE07003
:10536C0008BD08B5007CFFF799F820EAE07008BD8D
:10537C0013B50446007C0191FFF798F800280199B9
:10538C0001DC607C20B1207CFFF7A0F820EAE07003
:10539C0002B010BD007CFFF7A1B810B51421044673
:1053AC00FEF775FE204610BD10B54FF47A73044617
:1053BC0008460021C4E90113044B23600123207427
:1053CC0063741146FFF762F8204610BD345C0B0085
:1053DC0010B514220446002100F0DBFA204610BD63
:1053EC0010B50F4C88B003A8FFF7F2FF2178BFF37C
:1053FC005B8F11F001010FD120460191FEF749FEA0
:10540C00019948B103AA0748FFF7CEFF2046FEF7E3
:10541C0045FE054800F0A9FA024808B010BD00BFCF
:10542C00F8E60320FCE603203D530B007047417463
:10543C00704708B5007CFEF7D1FF20EAE07008BD8C
:10544C0008B5007CFEF7A2FF20EAE07008BD08B5A5
:10545C00007CFEF7ABFF40EAE07008BD08B5007CAD
:10546C00FEF79CFF40EAE07008BD007CFEF7A6BF8B
:10547C0037B5457C04462DB1207C03B0BDE83040E7
:10548C00FEF77CBF007C0191FEF7A8FF0028019974
:10549C00F2DC284603B030BD10B514210446FEF7EB
:1054AC00F6FD204610BD000010B54FF47A7304468B
:1054BC00084611460022C4E90123044B2360012352
:1054CC0020746374FEF792FF204610BD645C0B00E1
:1054DC0010B5836804460BB900F044FAC3689847CA
:1054EC00A3681BB103222146204698472046102171
:1054FC00BDE81040FEF7CBBD7047F8B50646154623
:10550C000C468F18BC4206D0336814F8011B9B68FC
:10551C0030469847F6E72846F8BD007C0022FEF797
:10552C006DBF007C0021FEF771BF007C0021FEF7EF
:10553C0075BF007C0021FEF779BF007C0021FEF7CF
:10554C007DBF10B514210446FEF7A1FD204610BD09
:10555C0038B5044615464FF47A730022C4E901238A
:10556C00094B2174084623602946FEF777FFBF30AC
:10557C0008D16B69DB0705D56868FFF78BF8E8681D
:10558C00FFF788F8204638BD945C0B000022406879
:10559C001146FFF707B8002240681146FFF722B802
:1055AC00002240681146FFF72DB840680022FFF733
:1055BC0021B84068002281F00101FFF70BB80023ED
:1055CC0040681A461946FEF7FDBF002340681A468C
:1055DC001946FEF7EFBF002240681146FEF7D2BF16
:1055EC00406800220221FEF7D5BF002340681A460E
:1055FC00FEF7C0BF024B04225A60024A1A60704781
:10560C0010E70320BC5C0B00002340681A46FEF731
:10561C00B1BF406800220221FEF7BCBF00224068E7
:10562C001146FEF7AFBF002240681146FEF7BABF25
:10563C00002340681A461946FEF7BCBF0023406899
:10564C001A461946FEF7BEBF40680021FEF7E2BFBE
:10565C0040680021FEF7E6BF4068002281F001019E
:10566C00FEF7B8BF40680022FEF7C4BF00224068B6
:10567C001146FEF7C7BF002240681146FEF7B2BFC5
:10568C002DE9F04395B014460D460746FFF710FE82
:10569C0000211C220DA8009100F07BF940230C93F3
:1056AC0020466B460CAA0021FEF710FE044600288B
:1056BC004BD1024601216868FEF774FF0221804637
:1056CC0022466868FEF76EFF009E81462146002E3A
:1056DC003BD0002939D17368022B03D00A2B11D08F
:1056EC00F669F4E7B8F1000FFAD0716906A8043135
:1056FC0007ADFFF70BFE0FCD3C1D0FC42B682370BD
:10570C004146EDE7B9F1000FEAD07469102201A807
:10571C0000F03FF906238DF8143001AD04F10803B5
:10572C001834186859682A4603C20833A342154630
:10573C00F7D101A906A807ADFFF7C8FD0FCD3C1D99
:10574C000FC42B6823704946CAE70098FEF7B6FDD4
:10575C00384615B0BDE8F083024B034A1A600022AC
:10576C005A60704718E70320F85C0B00232813B528
:10577C0002D9002002B010BDA0F10B03022B1AD8E5
:10578C00174C2178BFF35B8F11F001010BD1204630
:10579C000191FEF77EFC019928B11248FEF7F0FF4B
:1057AC002046FEF77BFC0F4B1878FEF767FE0028AF
:1057BC00DFD10120DEE7012809D800F0ADF8002187
:1057CC00007CFEF743FE80F00100C0B2D2E709383E
:1057DC000128EED800F060F8007CFEF7F7FDF2E748
:1057EC0020E7032024E70320232838B504460D4680
:1057FC000AD8FF2908D0FFF7B9FF28B1294620465F
:10580C00BDE83840FEF76ABD38BD38B504460D46D4
:10581C00FEF76CFDFF2810D0062804D84D2323FA80
:10582C0000F0C30709D42046FFF7A0FF28B1294692
:10583C002046BDE83840FEF761BD38BD10B50446C2
:10584C00FEF754FD031FDBB2012B08D92046FFF7EE
:10585C008DFF20B12046BDE81040FEF757BD00205B
:10586C0010BD704738B5044614252A46002100F0B7
:10587C0090F825804025074925812846258200F08F
:10588C006FF804496060284600F06AF8E060204632
:10589C0038BD00BF2C5D0B0030B50E4D2978BFF321
:1058AC005B8F11F0010487B011D12846FEF7F1FB94
:1058BC0068B101A8FFF7D6FF01AA21460648FFF7F9
:1058CC00F3FD2846FEF7EAFB044800F04EF80248C8
:1058DC0007B030BD2CE7032030E703206F580B00D6
:1058EC007047000038B50A4B03600123044643613E
:1058FC000849202000F034F8202560600549A56097
:10590C00284600F02DF8C4E90305204638BD00BF39
:10591C00180001002C5D0B0030B50E4D2978BFF33B
:10592C005B8F11F0010487B011D12846FEF7B1FB53
:10593C0068B16846FFF7D6FF6A4621460648FFF76E
:10594C0007FE2846FEF7AAFB044800F00EF80248B2
:10595C0007B030BD48E703204CE70320ED580B009F
:10596C00FEF793BB08B5FEF7A5FE002301461A46C9
:10597C00184600F073B80A44914200F1FF3300D18D
:10598C00704710B511F8014B03F8014F9142F9D152
:10599C0010BD02440346934200D1704703F8011B2B
:1059AC00F9E7000038B5104B1D68AB6B0446B3B972
:1059BC001820FEF767FE0246A86320B90B4B0C4873
:1059CC004221FEF787FE0B490B4BC0E900130B4B32
:1059DC0083600B23838100210120C2E90401AB6B9E
:1059EC0000221C615A6138BDECE503202D5D0B00D3
:1059FC00445D0B000E33CDAB34126DE6ECDE0500CE
:105A0C00034611F8012B03F8012B002AF9D170473A
:105A1C00024B0146186800F003B800BFECE5032008
:105A2C0037B5044608460D4600F00FF8421C1146E7
:105A3C0020460192FEF746FE044618B1019A29460B
:105A4C00FFF799FF204603B030BD034613F8012B36
:105A5C00002AFBD1181A0138704700002DE9F843D1
:105A6C00DFF8B8800646D8F800001F460D46914670
:105A7C0000F056F8254B1C6834B9254C1C60254B9E
:105A8C0013B11B68C4F8883063681F2B07DDD8F886
:105A9C00000000F047F84FF0FF30BDE8F8834EB33C
:105AAC00D4F8880088B91C4B23B9D8F8000000F052
:105ABC0038F8F0E74FF48470FEF7E4FD0028F4D0DA
:105ACC000023C0E94033C4F88800636840F8239091
:105ADC0001229A4000EB8301D0F800311343C0F847
:105AEC000031022EC1F8807002BFD0F8043113438C
:105AFC00C0F804316368D8F800005A1C02336260A5
:105B0C0044F8235000F00EF80020C6E7ECE7032021
:105B1C0060E703200000000091460B0050E60320D4
:105B2C0070477047704700001D400B0059400B0038
:105B3C0081400B0085400B0000000000484947489D
:105B4C00004D6F74696F6E2053656E736F722056C3
:105B5C00616C7565004C4F57007B202250656F704F
:105B6C006C6520436F756E746564223A20220022A6
:105B7C002C0022427574746F6E20507265737365BD
:105B8C0073223A202200227D00436F756E74657279
:105B9C000000000000000000000000006F470B0038
:105BAC0065470B005B470B0051470B0045470B004B
:105BBC0039470B0055560B005D560B002D470B005B
:105BCC0025470B001B470B0011470B008D560B0094
:105BDC006170700025592D256D2D25645425483A8A
:105BEC00254D3A2553257A0061736374696D650000
:105BFC000000000000000000194D0B001F4D0B00B1
:105C0C005D4D0B002D4D0B001B4D0B0000000000DB
:105C1C000000000059520B0049520B004B520B0074
:105C2C0000000000000000003F530B00A7530B00C6
:105C3C007D530B001D4A0B006F530B0041530B009F
:105C4C0051530B00A1530B0061530B0039530B0044
:105C5C00000000000000000039540B00A5540B009C
:105C6C007D540B001D4A0B004D540B0069540B0066
:105C7C005B540B0077540B003B540B003F540B0050
:105C8C00000000000000000005550B004F550B00F4
:105C9C0027550B0007550B002F550B0037550B00E4
:105CAC003F550B0047550B000000000000000000A2
:105CBC00F7550B00ED550B00E3550B0099550B00F8
:105CCC00D7550B00CB550B0055560B005D560B00F2
:105CDC00BF550B00B7550B00AD550B00A3550B0072
:105CEC008D560B00000000000000000015560B0044
:105CFC001F560B0029560B0033560B003D560B005C
:105D0C0049560B0055560B005D560B0065560B00A3
:105D1C0071560B0079560B0083560B008D560B00F9
:105D2C00005245454E54206D616C6C6F6320737549
:105D3C0063636565646564002F6D6E742F776F7295
:105D4C006B73706163652F776F726B7370616365D2
:105D5C002F4743432D31302D706970656C696E652A
:105D6C002F6A656E6B696E732D4743432D31302D51
:105D7C00706970656C696E652D34385F3230323005
:105D8C00313132345F313630363138303634312FB0
:105D9C007372632F6E65776C69622F6E65776C69B1
:105DAC00622F6C6962632F7374646C69622F726109
:105DBC006E642E63000000009D420B0079470B00BF
:105DCC00A1470B000D4A0B00B14A0B00B94B0B005D
:105DDC00D54B0B0001560B0065570B000000000063
:045DEC0000000000B3
:105DF000040000001400000003000000474E55009E
:105E000096B3FE8DAD598DF5A0F4D75AC7B2794837
:045E1000BF2440ED7E
:045E1400000000008A
:105E1800020000000400000003000000F45B0B0017
:105E2800F0E5032000000000000000000000000072
:105E3800000000000000000000000000000000005A
:105E4800000000000000000000000000000000004A
:105E5800000000000000000000000000000000003A
:105E6800000000000000000000000000000000002A
:105E7800000000000000000000000000000000001A
:085E880000000000F0E7032018
:105E9000FFFFFFFF00000102030405060708090ACF
:105EA0000B0C0D0E0F101112131415161718191ACA
:085EB0001B1C1D1E1F20280011
:045EB80078563412D2
:04000003B000401CED
:00000001FF
