:02000002B0004C
:1040000000400B0060760B00000006000C0005026B
:084010000401A60F00000000EE
:04401800606E0B00CB
:10401C0009480A49884208B505D0094A824202D0AB
:10402C00121A02F025FE0748074A0021121A02F064
:10403C0047FE014808BD00BFECE40320C8750B0027
:10404C005CE503205CE50320EDE7032070B5074E2B
:10405C00074C01F0EBF9A41BA4080025AC4200D1DD
:10406C0070BD56F8043B98470135F7E77C750B009B
:10407C00A0750B0000F030B808B500F029F9BDE8C8
:10408C00084001F08BB900F0B7BF00F0B5BF00F0ED
:10409C00BBBF000008B5034A03490C2000F008FF21
:1040AC00FEE700BF4D4C0B00746E0B000078B0FAAD
:1040BC0080F0400970470123037070470EB403B5BC
:1040CC0003AB002153F8042B019301F0E2F802B08A
:1040DC005DF804EB03B0704770B53F4D3F4E686818
:1040EC0000231A46194600F037FF002368681A4669
:1040FC00194600F011FF00226868114600F014FF09
:10410C00044628B101F0B4FA3146FFF7D7FFF2E7C5
:10411C0001F0AEFA3249FFF7D1FF324B2146188835
:10412C0001F062FF01210B2001F05EFF01F0A0FA0B
:10413C004FF4165101F08CFA204600F091FD42F23A
:10414C0010750446002000F08BFD001B61F100018E
:10415C00A84271F1000307D201F08AFA01F07CFA4F
:10416C0010B900F039FFEDE701F082FA01F074FAB2
:10417C0001210B2001F049FF41F2707001F0CCF8E5
:10418C0000210B2001F041FF41F2707001F0C4F8E6
:10419C0001210B2001F039FF41F2707001F0BCF8E5
:1041AC0000210B2001F031FF0F49104800F07AFA82
:1041BC00B7EE000A0E4800F0F0FC41F2883001F036
:1041CC00ABF80B481D2100F0E2FCBDE870409FED00
:1041DC00090A074800F0E1BC0CE7032032710B0020
:1041EC00896E0B00ECE403207CE603208CE50320B5
:1041FC0060E603200000BE422DE9F041184800F0B3
:10420C00EFF858BB01F034FA1649154EDFF8608010
:10421C00154F01F003F8124800F08FFB0446C0B1B3
:10422C0001F026FA21460546304600F019FA4146BF
:10423C0002462846FFF742FF01F01AFA3946FFF70B
:10424C003DFF304600F01AFA41F2883001F064F874
:10425C00E1E701F00DFA0549FFF730FFBDE8F08109
:10426C008CE503208C6E0B00B26E0B00DC6E0B0029
:10427C00A36E0B0038B5114D00F0EAFC2B68C01A88
:10428C000F4B98424FF0000415D901F0F1F90D498C
:10429C00FFF714FF0C48012100F01FFA044638B94F
:1042AC0001F0E6F90949FFF709FF074800F0E6F9C4
:1042BC0000F0CEFC2860204638BD00BF84E503200A
:1042CC00C0D40100ED6E0B008CE50320FC6E0B00DE
:1042DC0038B5174C174D208801F0C3FE2060FFF74E
:1042EC008BFFFFF7C7FF0A21134800F03CFC134B70
:1042FC0041F2883083ED000A01F00EF800F0A8FCC2
:10430C002B68C01A41F27073984210D90C4800F017
:10431C00EDF818B121680B4800F06BFB01F0A8F91F
:10432C0022680949FFF7CAFE00F092FC286038BDEC
:10433C00ECE4032088E5032060E60320B4E60320C8
:10434C008CE5032070E603200C6F0B0037B5184D7D
:10435C001848194C802311220E2100F0D7FB284657
:10436C0001F000FD154B00931549164B40F25B72A2
:10437C00204600F0F1F8144B23602146134A1448F0
:10438C00C4F8D050002300F043FB124A124800231B
:10439C00214600F029FB114B0022C3E90022022028
:1043AC00A2F580329A6003B0BDE8304000F090BDB9
:1043BC0068E5032060E603208CE503203D6F0B00CD
:1043CC002D6F0B00256F0B00A06F0B005E6F0B00A9
:1043DC007CE603207C6F0B0070E603205CE5032079
:1043EC0008B5D0F8D00003681B6B9847003818BF8D
:1043FC00012008BDF8B506460F461446C4B1D6F8E0
:10440C00D00003681B6B984708B90020F8BDD6F89C
:10441C00D000FA2C03682546A8BFFA25DB682A468B
:10442C003946984783B2E41A9D42A4B2E6D0ECE731
:10443C000120EBE770472DE9F84306468846914684
:10444C001F461D460024D6F8D00003681B6B984706
:10445C00D0B1002D18DBD6F8D00003681B69984743
:10446C0060B1D6F8D00003685B69984708F804007F
:10447C000134A4B24C4507D03D46ECE70A3D0A2076
:10448C002DB200F049FFDEE72046BDE8F88370B599
:10449C00044600F1220596220021284602F010FC69
:1044AC006168284602F04CFCD4F8D00022890368DD
:1044BC0029465E6A0023B047003818BF012070BD42
:1044CC0010B5D4210446FFF7E2FD204610BD10B50F
:1044DC000446D0F8D00003681B6B984720B1D4F881
:1044EC00D0000368DB6A9847012010BD70B50368E3
:1044FC009B6804469847C8B9204600F01EFA04256C
:10450C0070B1013D15F0FF050AD0204600F0B6F859
:10451C0041F2883000F000FF204600F00EFAEFE781
:10452C00236820469B68BDE87040184770BD13B5E2
:10453C0004460846019102F00BFCC0F307232370DC
:10454C006070A31C84B201992246184602F008FC44
:10455C00204402B010BD000030B502810A4A0B4D58
:10456C00C0E90323039B43610023C0E90051C0E968
:10457C002F33C0E93133C0E90633C0F8CC300384A3
:10458C00A0F8B83030BD00BF8B6E0B00A4710B00CF
:10459C002DE9F74F164602681BB297690193012269
:1045AC0005460C46B847C7B2012F019B03D000202B
:1045BC0003B0BDE8F08F04F1010804F1050A4FF0D7
:1045CC0000092A680193D2F818B041460122284606
:1045DC00D847C0B20128EAD118F8012B02F07F01AC
:1045EC00C24501FB07994FEAC717E0D012F0800FC4
:1045FC00019BE6D1A8EB0404A7B2341B2A68013C4A
:10460C004C45D2F818A03DBF06F1FF32D21B92B236
:10461C001FFA89F241462846D047C0B2384480B2CE
:10462C00C6E700002DE9F041DFF8308005460C4666
:10463C0016461F463B46962221462846FFF7A8FF02
:10464C0048B12378B6EB131F05D001F011F84146A1
:10465C0000F0F7FDEEE7BDE8F08100BFBC6F0B008A
:10466C000231C9B209299ABF024B53F82100024802
:10467C00704700BFC0710B00CD6F0B0010B5E0236D
:10468C0080F822300146002380F8233051F8223B79
:10469C0004465B6902229847236820461B69BDE8E3
:1046AC001040184700F1BC0230B5134600F1D0049D
:1046BC0053F8045B8D4209D0A342F9D1002352F880
:1046CC00044B2CB900EB8300C0F8BC10012003E0B4
:1046DC000133052BF3D1002030BD2DE9F8430446FE
:1046EC000D464FF0000800F122074FF0C009E5B16C
:1046FC00236884F8229084F823805B69022239466F
:10470C0020469847064668B14FF4FA730D22394695
:10471C002046FFF787FF94F82230D02B02D1304689
:10472C00BDE8F883013DEDB2E1E72E46F7E7000066
:10473C0038B505460846102300F8023B0C462949BB
:10474C00FFF7F5FE0423037002234370AB698BB1B2
:10475C001B787BB10623437095F82030012B39D19F
:10476C000E23437095F82130012B02BF437843F0A0
:10477C00200343702B691B781BB1437863F07F03D4
:10478C0043706B691B781BB1437843F04003437053
:10479C00012383702C23C370E9680B78F3B10430C8
:1047AC00FFF7C5FEA96931B10B7823B1FFF7BFFE46
:1047BC00E969FFF7BCFE29690B780BB1FFF7B7FE6F
:1047CC0069690B780BB1FFF7B2FE001BC0B2831EF8
:1047DC00637038BD022BC5D11E23C2E70371437130
:1047EC000630DFE7DB6F0B002DE9F743054610467B
:1047FC000E469846019202F0ABFA9DF82C90BDF84B
:10480C002870019984B2B9F1000F35D102344FEA06
:10481C0049033046A4B243F030033C4400F8013B5A
:10482C00A4B2224604F07F037F2A88BF43F08003A2
:10483C007F2A00F8013B4FEAD414F2D8FFF777FE39
:10484C000346B9F1000F0CD0B5F8B820120A02706B
:10485C00B5F8B8204270B5F8B82001320233A5F88B
:10486C00B8203A464146184602F010FA3844801BEC
:10487C0080B203B0BDE8F0830434C8E773B59DF88B
:10488C00186000F122050446CDE9003613460A46AD
:10489C002946FFF7A9FF236802465B692946204693
:1048AC00984710B9002002B070BD002EFBD04FF419
:1048BC00FA73962229462046FFF76AFE0428F1D1A6
:1048CC0094F822301B09042BECD1A38CB4F8B8005B
:1048DC005BBA01339BB2C31A58425841E3E730B577
:1048EC0085B0044610461D460391029202F030FA40
:1048FC00DDE9022183B200952046FFF7BFFF05B02A
:10490C0030BD38B51D4682230B70B0F8B8301B0A89
:10491C008B70B0F8B830CB70B0F8B8300C460133AF
:10492C00A0F8B8301146201DFFF701FE00F8015B1E
:10493C00001BC0B2831E637038BD2DE9F0410368C3
:10494C00DB680446984700284BD004F12205294621
:10495C002046FFF7EDFE236882B25B6929462046AC
:10496C00984700283DD041F2707396222946204684
:10497C00FFF70EFEC0B2042833D1638CB3F5087F69
:10498C002FD194F8250010B140B2BDE8F08104F1AC
:10499C00BC0704F1D00857F8043BF3B1032657F8D1
:1049AC00042C2946137912682046FFF7AAFF2368C6
:1049BC0082B25B6929462046984790B14FF4FA734E
:1049CC00092229462046FFF72DFE30B9013E16F08C
:1049DC00FF06E4D16FF00100D7E7B845DBD100202A
:1049EC00D3E74FF0FF30D0E710B5C0E900120372E7
:1049FC0010BD1FB504460A22084601A900F086FB2B
:104A0C00D4E90001237A01AAFFF769FF04B010BDB5
:104A1C0010B503710023C0E90833C0E90A334163C0
:104A2C0002604383C361036310BD704710B510214E
:104A3C000446FFF72CFB204610BD08B5407901F069
:104A4C00FDFAB0FA80F0400908BD2DE9F0410446AA
:104A5C002046FFF7F2FF10B900F00AF9F8E72179C8
:104A6C006079012201F014FB21790122064660795C
:104A7C0001F00EFB217905460122607901F008FB5B
:104A8C004FF000080746A37943450AD92079012144
:104A9C0001F0BBFA2079002101F0B7FA08F1010806
:104AAC00F1E72B0243EA06433B4346F3C01043EACB
:104ABC000060BDE8F081402910B5044610D0802973
:104ACC0003D0202903D1022300E00123A371207914
:104ADC00002101F09AFA2046BDE81040FFF7B5BF5F
:104AEC000323F3E738B504461046227161710121A6
:104AFC001D4601F079FA6079002101F075FA29461A
:104B0C002046BDE83840FFF7D6BF000038B5064D4B
:104B1C000560002585604FF07E550446C560FFF7A3
:104B2C00E1FF204638BD00BFF0710B00F8B5002442
:104B3C0006460F462546BC4207D03046FFF785FF98
:104B4C000134054400F094F8F5E795FBF4F0F8BD5A
:104B5C0010B50446FFF7EAFFA368C01A01F0A2FDE6
:104B6C0041EC100B10BD70B50646FFF7F1FFF06875
:104B7C0055EC104B01F0A8FD02460B462046294689
:104B8C0001F024FF02F00AF800EE100A70BD10B517
:104B9C000446FFF7CBFFA06010BD80ED030A704701
:104BAC0008B5024B1B689B68019308BD68020300A3
:104BBC0008B5024B1B68DB68019308BD6802030053
:104BCC0008B5024B1B685B68019308BD2C020300FF
:104BDC0008B5024B1B689B68019308BD2C020300AF
:104BEC0008B5024B1B68DB68019308BD2C0203005F
:104BFC0008B5024B1B681B69019308BD2C0203000E
:104C0C0008B5024B1B685B69019308BD2C020300BD
:104C1C0008B5024B1B681B6B019308BD2C020300EB
:104C2C0008B5024B1B685B69019308BD6C0203005D
:104C3C0008B5024B1B685B68019308BD18020300A2
:104C4C0008B5024B1B68DB68019308BD1802030012
:104C5C0008B5024B1B685B69019308BD1802030081
:104C6C0008B5024B1B68DB6D019308BD18020300ED
:104C7C0008B5024B1B68DB68019308BD48020300B2
:104C8C0008B5024B1B685B6C019308BD480203001E
:104C9C0008B5024B1B685B69019308BD64020300F5
:104CAC0008B5024B1B681B6A019308BD6402030024
:104CBC0008B5024B1B689B6A019308BD6402030094
:104CCC0008B5024B1B68DB68019308BD3C0203006E
:104CDC0008B5024B1B681B69019308BD3C0203001D
:104CEC0008B5024B1B685B69019308BD3C020300CD
:104CFC0008B5024B1B689B69019308BD3C0203007D
:104D0C0008B5024B1B68DB69019308BD3C0203002C
:104D1C0008B5024B1B681B6A019308BD3C020300DB
:104D2C0008B5024B1B689B6A019308BD3C0203004B
:104D3C0008B5024B1B681B6C019308BD3C020300B9
:104D4C0008B5024B1B681B6A019308BD28020300BF
:104D5C0008B5024B1B685B6A019308BD280203006F
:104D6C0008B5024B1B689B6A019308BD280203001F
:104D7C0008B5024B1B68DB6A019308BD28020300CF
:104D8C0008B5024B1B681B6B019308BD280203007E
:104D9C0008B5024B1B685B6B019308BD280203002E
:104DAC0008B5024B1B681B6C019308BD280203005D
:104DBC0008B5024B1B689B69019308BD38020300C0
:104DCC0008B5024B1B68DB69019308BD3802030070
:104DDC0008B5024B1B681B6A019308BD380203001F
:104DEC0008B5024B1B689B6A019308BD380203008F
:104DFC0008B5024B1B681B6B019308BD38020300FE
:104E0C0008B5024B1B689B6B019308BD380203006D
:104E1C0008B5024B1B68DB69019308BD3002030027
:104E2C0008B5024B1B681B6A019308BD30020300D6
:104E3C0008B5024B1B681B68019308BD4C020300AC
:104E4C0008B5024B1B685B68019308BD4C0203005C
:104E5C0008B5024B1B681B69019308BD4C0203008B
:104E6C0008B5024B1B685B69019308BD4C0203003B
:104E7C0008B5024B1B689B69019308BD4C020300EB
:104E8C0008B5024B1B68DB69019308BD4C0203009B
:104E9C0008B5024B1B681B6A019308BD4C0203004A
:104EAC0008B5024B1B689B6A019308BD4C020300BA
:104EBC0008B5024B1B685B6B019308BD60020300D5
:104ECC0008B5024B1B681B6D019308BD6002030003
:104EDC0008B5024B1B685B68019308BD20020300F8
:104EEC0008B5024B1B685B69019308BD20020300E7
:104EFC0008B5034B1B68D3F88830019308BD00003C
:104F0C002002030008B5034B1B68D3F894300193BF
:104F1C0008BD00002002030008B5024B1B685B684B
:104F2C00019308BD4002030008B5024B1B689B6847
:104F3C00019308BD4002030008B5024B1B68DB68F7
:104F4C00019308BD4002030008B5024B1B681B69A6
:104F5C00019308BD4002030008B5024B1B685B6956
:104F6C00019308BD4002030008B5024B1B689B6906
:104F7C00019308BD4002030008B5024B1B68DB69B6
:104F8C00019308BD4002030008B5024B1B681B6A65
:104F9C00019308BD4002030008B5024B1B681B6B54
:104FAC00019308BD4002030008B5024B1B685B6B04
:104FBC00019308BD4002030008B5024B1B681B6C33
:104FCC00019308BD4002030008B5024B1B685B6CE3
:104FDC00019308BD4002030008B5024B1B689B6897
:104FEC00019308BD4402030008B5024B1B68DB6B40
:104FFC00019308BD4402030008B5024B1B681B68F3
:10500C00019308BD1C02030008B5024B1B685B68CA
:10501C00019308BD1C02030008B5024B1B685B6AB8
:10502C00019308BD1C02030008B5024B1B68DB6B27
:10503C00019308BD1C02030008B5024B1B681B6CD6
:10504C00019308BD1C02030008B5024B1B685B6C86
:10505C00019308BD1C020300002240681146FFF7B3
:10506C0093BF002240681146FFF79EBF40680022A4
:10507C00FFF792BF4068002281F00101FFF77CBF6F
:10508C00002340681A461946FFF76EBF002340689C
:10509C001A461946FFF760BF002240681146FFF719
:1050AC0053BF002240681146FFF73EBF4068002204
:1050BC000221FFF741BF002340681A46FFF72CBFBF
:1050CC00024B03225A60024A1A607047B8E603206A
:1050DC0000720B0010B5044608462170FFF798FECD
:1050EC0000236360204610BD054B02221A60054B5D
:1050FC00054A9A600020C3E90000FFF7E9BE00BF33
:10510C00CCE60320C0E603200000FFFF2DE9F041B0
:10511C00931E8CB0222B4FF000030D4614468DF8D5
:10512C002C3027D900282ADA2E462D2306F8013BED
:10513C0040420A240DF12B074FF00108224601468C
:10514C0001A801F081FD029B0198092BCCBF3722ED
:10515C00302252FA83F307F8013908F101080028CC
:10516C00ECD14246791C304601F082FD28460CB049
:10517C00BDE8F0810A2AD5D018B12E46DAE70A2408
:10518C00FAE730238DF82B302E460DF12A074FF01D
:10519C000208E6E710B54368013B0446436063B977
:1051AC0003689B689847A368013BA3602BB92368ED
:1051BC002046DB68BDE81040184710BD02480023AC
:1051CC000360FFF75DBD00BFD0E60320F8B50646CF
:1051DC000D468F180024BD420CD0336815F8011B06
:1051EC009B6830469847031E01DB1C44F3E7002CF8
:1051FC0008BF1C462046F8BD13B50446084659B1F5
:10520C00019101F0A5FD23680199DB680246204657
:10521C0002B0BDE81040184702B010BD08B5FFF74A
:10522C00EBFF08BD03689B68184738B50D21054690
:10523C00FFF7F8FF0A2104462846FFF7F3FF204446
:10524C0038BD38B50546FFF7D7FF04462846FFF7AB
:10525C00ECFF204438BD30B58BB00023012A8DF80B
:10526C00243098BF0A2209AC0D46B1FBF2F101FBC8
:10527C00125303F0FF03092B94BF30333733DBB2E7
:10528C00AA4204F8013DEFD92146FFF7B5FF0BB058
:10529C0030BD2DE9F04186B000AF05460E46381DF5
:1052AC00142114463B60FFF7B7FE13280ED8391DA6
:1052BC002846FFF7A1FF04461EB12846FFF7B5FFAD
:1052CC00044420461837BD46BDE8F08100F10803C0
:1052DC0023F00703E846ADEB030D2246411C3B6867
:1052EC006846FFF799FE69462846FFF785FF044696
:1052FC00C546E1E7014B024A1A607047D4E6032029
:10530C003C720B00024B1A68024B1A60704700BFCC
:10531C00F0E40320D8E603200021FFF7E1BD0000F4
:10532C0010B5044B03600446806908B1FFF732FFE7
:10533C00204610BD34730B0010B50446FFF7F0FF88
:10534C0020461C21FEF7A3FE204610BD014B002277
:10535C009A607047DCE60320014B1860704700BF71
:10536C00F4E4032008B50B4B43B100F081F903685A
:10537C001B699847002801DDAFF30080064B43B151
:10538C0000F0C6FE03681B699847002801DDAFF3E7
:10539C00008008BD000000000000000008B5FFF709
:1053AC00E1FFFFF755FC014B186008BD40E70320F7
:1053BC000548064A064908B5121A01F059FC054B76
:1053CC00054A1A6008BD00BF00F4032004F4032052
:1053DC00C4750B0000F403201E1C279A07B500238C
:1053EC0000931A466FF07701FFF78CFD03B05DF860
:1053FC0004FB000007B543880A2B08D0502B0BD1B7
:10540C00094B1B684BB103B05DF804EB1847FFF771
:10541C00E5FF03B05DF804FB002300931A466FF020
:10542C007701FFF76FFDF4E7F0E6032010B51248A3
:10543C000021FFF709FE114B1A68114B9A42114BD0
:10544C000CBF012200221A7001D0FFF7B1FFFFF749
:10545C00EFFB044601F03CFC0B4B13B12046AFF3C1
:10546C00008000210848FFF7BFFDBDE81040074849
:10547C000021FFF73DBD00BF65530B0000F4032076
:10548C001E1C279AECE603200000000001540B00C0
:10549C00704710B518210446FEF7F9FD204610BDE3
:1054AC00F0B5037D062B8DB00E4600F104074FF0CE
:1054BC00000412D000F1080515F8011D0A2230462F
:1054CC00FFF7C9FEAF42044419D0002CF4D02E21B2
:1054DC003046FFF7A7FE0444EEE72F236A46394611
:1054EC000A208DF80040FFF7D3FB684601F030FC32
:1054FC0033680246DB6869463046984704462046C6
:10550C000DB0F0BD10B5054B0446112240F8043B1C
:10551C00002101F0D5FB204610BD00BF64720B00CA
:10552C000346074A10B543F8042B01F1100251F859
:10553C00044B43F8044B9142F9D10A781A7010BD10
:10554C0064720B00037D042B04D14068003818BF33
:10555C0001207047062B07D143683BB983682BB9F0
:10556C00C3681BB90069F1E7002070470120704740
:10557C0010B59DF8084044EA032343EA024242EA8C
:10558C00016104234160037510BD000007B5064B93
:10559C000360CB7800938B784A780978FFF7E8FFA3
:1055AC0003B05DF804FB00BF64720B0041747047DC
:1055BC007047704708B50021007CFFF759FC40EAA2
:1055CC00E07008BD08B50121007CFFF751FC40EAF2
:1055DC00E07008BD08B5007CFFF742FC20EAE070E3
:1055EC0008BD08B5007CFFF733FC20EAE07008BD6D
:1055FC0013B50446007C0191FFF732FC0028019999
:10560C0001DC607C20B1207CFFF73AFC20EAE070E2
:10561C0002B010BD007CFFF73BBC10B51421044652
:10562C00FEF735FD204610BD10B54FF47A730446D5
:10563C0008460021C4E90113044B236001232074A4
:10564C0063741146FFF7F4FB204610BD78720B0013
:10565C00007C0022FFF7F4BB007CFFF721BC10B5E7
:10566C0014220446002101F02BFB204610BD000043
:10567C0010B50F4C88B003A8FFF7F1FF2178BFF3EA
:10568C005B8F11F001010FD120460191FEF70EFD49
:10569C00019948B103AA0748FFF7C6FF2046FEF759
:1056AC000AFD054801F0CAFA024808B010BD00BF57
:1056BC00F4E60320F8E60320BD550B007047417457
:1056CC00704708B5007CFFF72BFB20EAE07008BDA3
:1056DC0008B5007CFFF7FCFA20EAE07008BD08B5BD
:1056EC00007CFFF705FB40EAE07008BD08B5007CC4
:1056FC00FFF7F6FA40EAE07008BD007CFFF700BB4C
:10570C0037B5457C04462DB1207C03B0BDE8304054
:10571C00FFF7D6BA007C0191FFF702FB0028019934
:10572C00F2DC284603B030BD10B514210446FEF758
:10573C00AEFC204610BD000010B54FF47A73044641
:10574C00084611460022C4E90123044B23600123BF
:10575C0020746374FFF7ECFA204610BDA8720B009E
:10576C007047F8B5064615460C468F18BC4206D055
:10577C00336814F8011B9B6830469847F6E72846B7
:10578C00F8BD007C0022FFF7DBBA007C0021FFF79C
:10579C00DFBA007C0021FFF7E3BA007C0021FFF7A1
:1057AC00E7BA007C0021FFF7EBBA10B514210446D0
:1057BC00FEF76DFC204610BD38B5044615464FF477
:1057CC007A730022C4E90123094B21740846236033
:1057DC002946FFF7E5FABF3008D16B69DB0705D521
:1057EC006868FFF711FCE868FFF70EFC204638BD2F
:1057FC00D8720B0013B503688DF80710DC6B01220F
:10580C004FF0FF330DF10701A04702B010BD10B4EB
:10581C000368DC6B4FF0FF33A4465DF8044B604724
:10582C0013B5134602688DF80710D46B0DF1070100
:10583C000122A04702B010BD10B54369B3F8862011
:10584C00B3F884309A42044608D06369B3F88420D4
:10585C00511CA3F884101344187910BD03681B69FC
:10586C0098470028F1D14FF0FF30F6E770474369B5
:10587C001868C043C00F704770470000064B994230
:10588C0010B500F10C0405D0084600F0A7FC002868
:10589C0008BF0024204610BD34720B0010B5AC219B
:1058AC000446FEF7F4FB204610BDAC21FEF7EFBB1F
:1058BC002DE9F0414FF0000886B01C46C0F804807A
:1058CC0005460E4617464146102202A801F0F8F98B
:1058DC00631C09D04FF47A73B4FBF3F203FB12444C
:1058EC00CDE902285C430494686910230093006896
:1058FC0002AB41F2050240F6FF71FFF759FA00289E
:10590C0007DAFFF791FB03686B60002006B0BDE877
:10591C00F0816869002300683A463146FFF768FA5F
:10592C00031EEEDB1846F1E730B587B0044601AD37
:10593C006846FFF72BFE0FCD04340FC42B68237081
:10594C0007B030BD70B54D69054B04468C3544F835
:10595C00043B06460FCD0FC42B682370304670BD38
:10596C0064720B002DE9F0439846036893B00D4622
:10597C000024DB6A06461746984728466B462246A3
:10598C0021460094FFF714F90546002863D1009BCB
:10599C00002B4BD05B69002B48D006A8FFF7B2FD5B
:1059AC00009B5C696378022B04D1211D06A8FFF7CC
:1059BC00BBFF26E00A2B24D11122294601A801F0B5
:1059CC007FF9A368002B38D004F108030DF1040C07
:1059DC00183418685968624603C20833A3429446C7
:1059EC00F7D1062301A90CA88DF81430FFF798FD08
:1059FC000DF1340CBCE80F0007AC0FC4DCF8003020
:105A0C00237006A8FFF79EFD80B1336807ADD3F86D
:105A1C002090124B0C930FCD0DAC0FC42B68237040
:105A2C003A4643460CA93046C84705460098FFF74E
:105A3C00B7F8284613B0BDE8F083E368002BC3D158
:105A4C004FF6FF70D4F81090FFF72AF98145BBD1BF
:105A5C0004F11401AAE72546E8E700BF64720B00C5
:105A6C0038B543691A68002A054610DAB3F886205F
:105A7C00B3F884309A420AD103681B6998470446EC
:105A8C0028B92B682846DB6A9847204638BD012088
:105A9C00FCE710B54369B3F88620B3F884309A421A
:105AAC00044605D06369B3F884201344187910BDFB
:105ABC0003681B6998470028F4D14FF0FF30F6E7D4
:105ACC00F8B543691746B3F88620B3F884309A4288
:105ADC0005460E4616D06969B1F88430B1F8864097
:105AEC00E41ABC4228BF3C460433224619443046D3
:105AFC0001F0BEF86A69B2F884302344A2F884300D
:105B0C002046F8BD03681B6998470028E3D14FF085
:105B1C00FF34F5E742690023A2F884304269A2F809
:105B2C00863070472DE9F0411F4603680C46DB6A4E
:105B3C008AB0054616469847237DD5F81480042B69
:105B4C000CBF02200A2006220121FFF759F9C8F8E0
:105B5C0000006B691B68002B08DA2B682846DB6A8F
:105B6C000024984720460AB0BDE8F0812846FFF78C
:105B7C00D1FFB7B1002303A9F8B20393ADF81030ED
:105B8C00FFF74EF80028E8D16869062300930068F7
:105B9C0003AB41F20B0240F6FF71FFF709F9002845
:105BAC00DBD11C22002103A801F08AF8237D042BF1
:105BBC001DD14FF407733046ADF80C30FFF778F871
:105BCC00ADF80E006068FFF76BF804906B691C224F
:105BDC00186803A9FFF7FCF80028BED104340FCCD9
:105BEC006D698C350FC523682B700124BAE740F61C
:105BFC001C233046ADF80C30FFF75AF805AEADF863
:105C0C000E00231D04F1140718685968324603C2AC
:105C1C000833BB421646F7D1D8E7000030B54269CD
:105C2C00B2F886308BB004462BB1B2F884209A427D
:105C3C0001D1FFF76FFF61690868002818DBB1F824
:105C4C0086507F2D14D804310823C5F180022944D5
:105C5C00FFF7C6F8002813DD6369B3F886200AB98C
:105C6C00A3F884206369B3F886201044A3F8860057
:105C7C006369B3F88600B3F88430C01A0BB030BD3A
:105C8C00FFF7D2F903680B2BF2D0FFF7CDF90368BD
:105C9C000B2BEDD020230025CDE90235FFF7C4F9FD
:105CAC0003680193084B0949009302AA2B46322042
:105CBC00FFF706F963691868FFF782F863694FF01C
:105CCC00FF321A60D4E700BFFF720B00F8720B00B2
:105CDC0010B5436904461868002801DBFFF770F81B
:105CEC0063694FF0FF321A606069112200218C3019
:105CFC0000F0E6FF2046BDE81040FFF70BBF10B5E3
:105D0C00002304460160C0F884308830FFF7FAFBAA
:105D1C00204610BD73B500234FF47A72C0E90132EE
:105D2C000E4A0361026043610446AC200191FEF708
:105D3C00AAF9051E05F10C0608D00123C5E90133AB
:105D4C00074B01992B603046FFF7D9FF2046C4E979
:105D5C000565FFF7DFFE02B070BD00BF34730B00AA
:105D6C0018730B0010B54FF0FF310446FFF7D2FF4C
:105D7C00204610BD10B504460068002801DBFFF773
:105D8C001FF8204610BD0C30FFF7F4BF002240680E
:105D9C001146FFF7D9B8002240681146FFF7F4B856
:105DAC00002240681146FFF7FFB840680022FFF759
:105DBC00F3B84068002281F00101FFF7DDB8002341
:105DCC0040681A461946FFF7CFB8002340681A46B8
:105DDC001946FFF7C1B8002240681146FFF7A4B876
:105DEC00406800220221FFF7A7B8002340681A463A
:105DFC00FFF792B8024B04225A60024A1A607047AD
:105E0C000CE7032080730B00002340681A46FFF751
:105E1C0083B8406800220221FFF78EB80022406848
:105E2C001146FFF781B8002240681146FFF78CB885
:105E3C00002340681A461946FFF78EB800234068C5
:105E4C001A461946FFF790B840680021FFF7B4B81E
:105E5C0040680021FFF7B8B84068002281F00101CA
:105E6C00FFF78AB840680022FFF796B80022406816
:105E7C001146FFF799B8002240681146FFF784B825
:105E8C002DE9F04395B014460D460746FFF73AFB53
:105E9C0000211C220DA8009100F012FF40230C934E
:105EAC0020466B460CAA0021FEF782FE0446002811
:105EBC004BD1024601216868FFF746F80221804663
:105ECC0022466868FFF740F8009E81462146002E66
:105EDC003BD0002939D17368022B03D00A2B11D087
:105EEC00F669F4E7B8F1000FFAD0716906A804312D
:105EFC0007ADFFF74BFB0FCD3C1D0FC42B68237078
:105F0C004146EDE7B9F1000FEAD07469102201A8FF
:105F1C0000F0D6FE06238DF8143001AD04F1080311
:105F2C001834186859682A4603C20833A342154628
:105F3C00F7D101A906A807ADFFF7F2FA0FCD3C1D6A
:105F4C000FC42B6823704946CAE70098FEF728FE59
:105F5C00384615B0BDE8F083024B034A1A600022A4
:105F6C005A60704714E70320BC730B00232813B549
:105F7C0002D9002002B010BDA0F10B03022B1AD8DD
:105F8C00174C2178BFF35B8F11F001010BD1204628
:105F9C000191FEF78BF8019928B11248FFF79AF896
:105FAC002046FEF788F80F4B1878FEF739FF0028CB
:105FBC00DFD10120DEE7012809D800F0E9F8002143
:105FCC00007CFEF7E5FE80F00100C0B2D2E7093894
:105FDC000128EED800F09CF8007CFEF799FEF2E761
:105FEC001CE7032020E70320232838B504460D4680
:105FFC000AD8FF2908D0FFF7B9FF28B12946204657
:10600C00BDE83840FEF7E4BD38BD38B504460D4652
:10601C00FEF7E6FDFF2810D0062804D84D2323FAFE
:10602C0000F0C30709D42046FFF7A0FF28B129468A
:10603C002046BDE83840FEF7DBBD38BD10B5044640
:10604C00FEF7CEFD031FDBB2012B08D92046FFF76C
:10605C008DFF20B12046BDE81040FEF7D1BD0020D9
:10606C0010BD0D2810B504469CBF0E34A4B22046BA
:10607C00FFF77CFF50B103212046FEF7A1FD03285A
:10608C0004D12046BDE81040FEF7C2BD002010BD73
:10609C002DE9F8439046072500240E460746304666
:1060AC000121FFF7B2FFC5F1070964B23846B8F118
:1060BC00000F0ED1FFF7C2FF00FA09F004430021D4
:1060CC003046FFF7A2FF013DE4B2E8D22046BDE81E
:1060DC00F883FFF7B3FFA840F0E7704738B50446E4
:1060EC0014252A46002100F0EBFD258040250749A8
:1060FC0025812846258200F06FF804496060284607
:10610C0000F06AF8E060204638BD00BFF0730B0069
:10611C0030B50E4D2978BFF35B8F11F0010487B0B9
:10612C0011D12846FDF7C2FF68B101A8FFF7D6FFD1
:10613C0001AA21460648FFF7FFFA2846FDF7BBFFE8
:10614C00044800F07BFD024807B030BD28E703206F
:10615C002CE70320E7600B007047000038B50A4BB2
:10616C0003600123044643610849202000F034F801
:10617C00202560600549A560284600F02DF8C4E98B
:10618C000305204638BD00BF18000100F0730B005A
:10619C0030B50E4D2978BFF35B8F11F0010487B039
:1061AC0011D12846FDF782FF68B16846FFF7D6FF8C
:1061BC006A4621460648FFF7FFFA2846FDF77BFFA3
:1061CC00044800F03BFD024807B030BD44E7032013
:1061DC0048E7032065610B00FDF757BF014900F04C
:1061EC00F9B800BF0C740B007FB500241023CDE967
:1061FC000234036815469E6912686B46CDE900446B
:10620C00B0479DF8043003F00603062B03BF009B38
:10621C002B600120204604B070BD0098904214BF42
:10622C00012006207047000010B5034B03600446A4
:10623C0000F0CDF8204610BD4C740B0010B5044690
:10624C00FFF7F2FF20460821FDF721FF204610BD85
:10625C002DE9F0411F46DDE90834DDF8188098453A
:10626C000646154607D1079900F0B4F818B16571C8
:10627C000020BDE8F0813946304600F0ABF800282C
:10628C00F6D00123C4F800802571A371F0E738B56E
:10629C0015461C4600F09EF820B10823E360062347
:1062AC002560237138BD73B505460C4601921E4618
:1062BC0000F090F850B9032E08D82368019A5B6956
:1062CC002946204602B0BDE87040184702B070BDA8
:1062DC0010B5034B03600446FFF7A6FF204610BD24
:1062EC00AC740B0010B50446FFF7F2FF20460C21EE
:1062FC00FDF7CDFE204610BDF7B5089F9742054629
:10630C000E4614460AD0A86802680897156A3146EA
:10631C002246AC4603B0BDE8F040604719460193F5
:10632C0000F058F8019B0028EDD0062003B0F0BD1A
:10633C002DE9F14F0D461946DDE90A4BDDE90CA6B6
:10634C0081461746984600F045F890B1002D346010
:10635C00377109DB61198A450CBF06210121B17126
:10636C00002001B0BDE8F08F0235F9D10123B371E3
:10637C00F6E7544506D15946484600F02BF808B1CB
:10638C007771EDE7D9F808000368CDE90CA6CDE9E3
:10639C000A4BDC693A4643462946A44601B0BDE89F
:1063AC00F04F60472DE9F04107460C4615461E4656
:1063BC00FFF76DFF48B9B86803689F692A463346F2
:1063CC002146BC46BDE8F0416047BDE8F08170470E
:1063DC0000207047814208B50ED0406803782A2B04
:1063EC000CD049680B782A2B08BF013100F09EFCB9
:1063FC00B0FA80F0400908BD0120FCE70020FAE764
:10640C0081F0004102E000BF83F0004330B54FEA59
:10641C0041044FEA430594EA050F08BF90EA020FC6
:10642C001FBF54EA000C55EA020C7FEA645C7FEA59
:10643C00655C00F0E2804FEA5454D4EB5555B8BF7C
:10644C006D420CDD2C4480EA020281EA030382EAED
:10645C00000083EA010180EA020281EA0303362D7F
:10646C0088BF30BD11F0004F4FEA01314FF4801C52
:10647C004CEA113102D0404261EB410113F0004F64
:10648C004FEA03334CEA133302D0524263EB43031B
:10649C0094EA050F00F0A780A4F10104D5F1200EB9
:1064AC000DDB02FA0EFC22FA05F2801841F1000114
:1064BC0003FA0EF2801843FA05F359410EE0A5F1E8
:1064CC0020050EF1200E012A03FA0EFC28BF4CF019
:1064DC00020C43FA05F3C01851EBE37101F00045CF
:1064EC0007D54FF0000EDCF1000C7EEB00006EEBDC
:1064FC000101B1F5801F1BD3B1F5001F0CD3490866
:10650C005FEA30004FEA3C0C04F101044FEA4452BC
:10651C0012F5800F80F09A80BCF1004F08BF5FEA43
:10652C00500C50F1000041EB045141EA050130BD23
:10653C005FEA4C0C404141EB0101013C28BFB1F535
:10654C00801FE9D291F0000F04BF01460020B1FA80
:10655C0081F308BF2033A3F10B03B3F120020CDA53
:10656C000C3208DD02F1140CC2F10C0201FA0CF031
:10657C0021FA02F10CE002F11402D8BFC2F1200C96
:10658C0001FA02F120FA0CFCDCBF41EA0C0190404C
:10659C00E41AA2BF01EB0451294330BD6FEA040495
:1065AC001F3C1CDA0C340EDC04F11404C4F1200280
:1065BC0020FA04F001FA02F340EA030021FA04F392
:1065CC0045EA030130BDC4F10C04C4F1200220FAE9
:1065DC0002F001FA04F340EA0300294630BD21FA27
:1065EC0004F0294630BD94F0000F83F4801306BFED
:1065FC0081F480110134013D4EE77FEA645C18BFE1
:10660C007FEA655C29D094EA050F08BF90EA020F77
:10661C0005D054EA000C04BF1946104630BD91EA6F
:10662C00030F1EBF0021002030BD5FEA545C05D172
:10663C004000494128BF41F0004130BD14F58004B1
:10664C003CBF01F5801130BD01F0004545F0FE4125
:10665C0041F470014FF0000030BD7FEA645C1ABF5A
:10666C00194610467FEA655C1CBF0B46024650EA91
:10667C00013406BF52EA033591EA030F41F40021BD
:10668C0030BD00BF90F0000F04BF0021704730B543
:10669C004FF4806404F132044FF000054FF0000118
:1066AC0050E700BF90F0000F04BF0021704730B5D9
:1066BC004FF4806404F1320410F0004548BF4042AE
:1066CC004FF000013EE700BF42004FEAE2014FEA03
:1066DC0031014FEA02701FBF12F07F4393F07F4FDE
:1066EC0081F06051704732F07F4208BF704793F0E1
:1066FC007F4F04BF41F40021704730B54FF46074F4
:10670C0001F0004521F000411CE700BF50EA0102F6
:10671C0008BF704730B54FF000050AE050EA01029F
:10672C0008BF704730B511F0004502D5404261EB0F
:10673C0041014FF4806404F132045FEA915C3FF450
:10674C00D8AE4FF003025FEADC0C18BF03325FEAED
:10675C00DC0C18BF033202EBDC02C2F1200300FA9E
:10676C0003FC20FA02F001FA03FE40EA0E0021FAC3
:10677C0002F11444BDE600BF70B54FF0FF0C4CF4B1
:10678C00E06C1CEA11541DBF1CEA135594EA0C0F63
:10679C0095EA0C0F00F0DEF82C4481EA030621EA9E
:1067AC004C5123EA4C5350EA013518BF52EA0335D9
:1067BC0041F4801143F4801338D0A0FB02CE4FF08B
:1067CC000005E1FB02E506F00042E0FB03E54FF0BB
:1067DC000006E1FB03569CF0000F18BF4EF0010EB3
:1067EC00A4F1FF04B6F5007F64F5407404D25FEAAF
:1067FC004E0E6D4146EB060642EAC62141EA555162
:10680C004FEAC52040EA5E504FEACE2EB4F1FD0CA3
:10681C0088BFBCF5E06F1ED8BEF1004F08BF5FEA21
:10682C00500E50F1000041EB045170BD06F00046D3
:10683C0046EA010140EA020081EA0301B4EB5C0480
:10684C00C2BFD4EB0C0541EA045170BD41F4801178
:10685C004FF0000E013C00F3AB8014F1360FDEBF9D
:10686C00002001F0004170BDC4F10004203C35DA79
:10687C000C341BDC04F11404C4F1200500FA05F3FC
:10688C0020FA04F001FA05F240EA020001F000429D
:10689C0021F0004110EBD37021FA04F642EB060113
:1068AC005EEA430E08BF20EAD37070BDC4F10C043D
:1068BC00C4F1200500FA04F320FA05F001FA04F201
:1068CC0040EA020001F0004110EBD37041F10001ED
:1068DC005EEA430E08BF20EAD37070BDC4F12005F8
:1068EC0000FA05F24EEA020E20FA04F301FA05F260
:1068FC0043EA020321FA04F001F0004121FA04F208
:10690C0020EA020000EBD3705EEA430E08BF20EAD7
:10691C00D37070BD94F0000F0FD101F00046400011
:10692C0041EB010111F4801F08BF013CF7D041EA93
:10693C00060195F0000F18BF704703F00046520097
:10694C0043EB030313F4801F08BF013DF7D043EA68
:10695C000603704794EA0C0F0CEA135518BF95EA1E
:10696C000C0F0CD050EA410618BF52EA4306D1D1A5
:10697C0081EA030101F000414FF0000070BD50EAC4
:10698C00410606BF1046194652EA430619D094EA4E
:10699C000C0F02D150EA013613D195EA0C0F05D138
:1069AC0052EA03361CBF104619460AD181EA03018C
:1069BC0001F0004141F0FE4141F470014FF0000044
:1069CC0070BD41F0FE4141F4780170BD70B54FF0DF
:1069DC00FF0C4CF4E06C1CEA11541DBF1CEA13555F
:1069EC0094EA0C0F95EA0C0F00F0A7F8A4EB050441
:1069FC0081EA030E52EA03354FEA013100F0888038
:106A0C004FEA03334FF0805545EA131343EA126300
:106A1C004FEA022245EA111545EA10654FEA0026B5
:106A2C000EF000419D4208BF964244F1FD0404F56E
:106A3C00407402D25B084FEA3202B61A65EB0305CA
:106A4C005B084FEA32024FF480104FF4002CB6EB87
:106A5C00020E75EB030E22BFB61A754640EA0C0007
:106A6C005B084FEA3202B6EB020E75EB030E22BF47
:106A7C00B61A754640EA5C005B084FEA3202B6EB88
:106A8C00020E75EB030E22BFB61A754640EA9C0047
:106A9C005B084FEA3202B6EB020E75EB030E22BF17
:106AAC00B61A754640EADC0055EA060E18D04FEAD5
:106ABC00051545EA16754FEA06164FEAC30343EA75
:106ACC0052734FEAC2025FEA1C1CC0D111F4801F42
:106ADC000BD141EA00014FF000004FF0004CB6E73B
:106AEC0011F4801F04BF01430020B4F1FD0C88BFDA
:106AFC00BCF5E06F3FF6AFAEB5EB030C04BFB6EBE5
:106B0C00020C5FEA500C50F1000041EB045170BDD7
:106B1C000EF0004E4EEA113114EB5C04C2BFD4EB04
:106B2C000C0541EA045170BD41F480114FF0000E88
:106B3C00013C90E645EA060E8DE60CEA135594EA04
:106B4C000C0F08BF95EA0C0F3FF43BAF94EA0C0F07
:106B5C000AD150EA01347FF434AF95EA0C0F7FF47C
:106B6C0025AF104619462CE795EA0C0F06D152EAD0
:106B7C0003353FF4FDAE1046194622E750EA4106B4
:106B8C0018BF52EA43067FF4C5AE50EA41047FF4C5
:106B9C000DAF52EA43057FF4EBAE12E74FEA410228
:106BAC00B2F1E04324BFB3F5001CDCF1FE5C0DD95F
:106BBC0001F0004C4FEAC0024CEA5070B2F1004FA9
:106BCC0040EB830008BF20F00100704711F0804FAC
:106BDC0021D113F13872BCBF01F00040704741F471
:106BEC0080114FEA5252C2F11802C2F1200C10FA75
:106BFC000CF320FA02F018BF40F001004FEAC12359
:106C0C004FEAD32303FA0CFC40EA0C0023FA02F3FC
:106C1C004FEA4303CCE77FEA625307D150EA0133D2
:106C2C001EBF4FF0FE4040F44000704701F00040A2
:106C3C0040F0FE4040F40000704700BF00230146C6
:106C4C001A46184600F0A0B8002910B591FBF2F4D2
:106C5C0002FB141306DB002B01DA01349B1AC0E98A
:106C6C00004310BD002BC4BF04F1FF349B18F6E7A2
:106C7C000A44914200F1FF3300D1704710B511F86E
:106C8C00014B03F8014F9142F9D110BD884210B568
:106C9C0001EB020402D98442234607D8431EA142C9
:106CAC0008D011F8012B03F8012FF8E70244014634
:106CBC008A4200D110BD13F8014D02F8014DF7E7DF
:106CCC0002440346934200D1704703F8011BF9E7D5
:106CDC0038B5104B1D68AB6B0446B3B91820FEF7E2
:106CEC008BF90246A86320B90B4B0C484221FEF7E6
:106CFC00A3F90B490B4BC0E900130B4B83600B231F
:106D0C00838100210120C2E90401AB6B00221C61CC
:106D1C005A6138BDF4E40320E5740B00FC740B00DD
:106D2C000E33CDAB34126DE6ECDE050010F8012B02
:106D3C0011F8013B012A28BF9A42F7D0D01A7047AC
:106D4C00034611F8012B03F8012B002AF9D17047E7
:106D5C00034613F8012B002AFBD1181A013870478F
:106D6C0010B50139034632B111F8014F03F8014B4C
:106D7C00013A002CF7D11A440021934200D110BDE6
:106D8C0003F8011BF9E700002DE9F843DFF8B880A0
:106D9C000646D8F800001F460D46914600F056F8FE
:106DAC00254B1C6834B9254C1C60254B13B11B6852
:106DBC00C4F8883063681F2B07DDD8F8000000F09A
:106DCC0047F84FF0FF30BDE8F8834EB3D4F8880095
:106DDC0088B91C4B23B9D8F8000000F038F8F0E75C
:106DEC004FF48470FEF708F90028F4D00023C0E9B2
:106DFC004033C4F88800636840F8239001229A401D
:106E0C0000EB8301D0F800311343C0F80031022E9F
:106E1C00C1F8807002BFD0F804311343C0F80431BC
:106E2C006368D8F800005A1C0233626044F823509F
:106E3C0000F00EF80020C6E7E8E703205CE703202B
:106E4C000000000005500B0058E503207047704708
:106E5C00704700001D400B0059400B0081400B0097
:106E6C0085400B000000000043616C6C206F6E20AD
:106E7C0070757265207669727475616C000A0A000F
:106E8C00436F6E6E656374696E6720746F204D512D
:106E9C0054542E2E2E20004572726F7220436F6454
:106EAC00652025730A005265747279696E67204DEE
:106EBC0051545420636F6E6E656374696F6E2069F4
:106ECC006E2035207365636F6E64732E2E2E0A0050
:106EDC004D51545420436F6E6E6563746564210A82
:106EEC000050696E67696E67204D515454200A003A
:106EFC00446973636F6E6E656374696E67200A0014
:106F0C004D6F6973747572652072656164696E6723
:106F1C00206973202569200A0073616E74656437DB
:106F2C0000696F2E61646166727569742E636F6D92
:106F3C000061696F5F54544C4B303243554E536A69
:106F4C00646B517968316F4F4A67423533433878F7
:106F5C00530073616E746564372F66656564732FB7
:106F6C0073757661627574746F6E6F6E6F666600A2
:106F7C0073616E746564372F66656564732F736F08
:106F8C00696C656E74477265656E000000000000E8
:106F9C000000000041440B00CD440B00ED430B00FE
:106FAC009B440B00DB440B0001440B0043440B00DF
:106FBC0044726F707065642061207061636B6574DE
:106FCC0000556E6B6E6F776E206572726F72004D2E
:106FDC00515454004661696C656420746F2073755C
:106FEC006273637269626500436F6E6E6563746988
:106FFC006F6E206661696C6564005468652053652A
:10700C007276657220646F6573206E6F7420737571
:10701C0070706F727420746865206C6576656C2076
:10702C006F6620746865204D5154542070726F74D3
:10703C006F636F6C20726571756573746564005451
:10704C00686520436C69656E74206964656E74694B
:10705C006669657220697320636F72726563742050
:10706C005554462D3820627574206E6F7420616CF7
:10707C006C6F776564206279207468652053657243
:10708C0076657200546865204D51545420736572B6
:10709C007669636520697320756E617661696C61D0
:1070AC00626C6500546865206461746120696E20AF
:1070BC007468652075736572206E616D65206F72E2
:1070CC002070617373776F7264206973206D616CCB
:1070DC00666F726D6564004E6F7420617574686FB5
:1070EC0072697A656420746F20636F6E6E65637469
:1070FC00004578636565646564207265636F6E6EC8
:10710C006563742072617465206C696D69742E20DE
:10711C00506C656173652074727920616761696E6A
:10712C00206C617465722E00596F752068617665EC
:10713C00206265656E2062616E6E65642066726F9A
:10714C006D20636F6E6E656374696E672E20506C74
:10715C006561736520636F6E746163742074686518
:10716C00204D515454207365727665722061646DA4
:10717C00696E6973747261746F7220666F72206DC0
:10718C006F72652064657461696C732E0000000079
:10719C0000000000000000000000000000000000E3
:1071AC00A1400B00A1400B00A1400B00A1400B0023
:1071BC00A1400B00E06F0B00F46F0B00CD6F0B00C8
:1071CC0006700B004B700B0090700B00B0700B0036
:1071DC00E3700B00FD700B0034710B00000000001D
:1071EC0000000000374A0B00394A0B000000000079
:1071FC0000000000C3500B00B9500B00AF500B0047
:10720C00A5500B0099500B008D500B00555E0B00D8
:10721C005D5E0B0081500B0079500B006F500B0022
:10722C0065500B008D5E0B0000000000000000009C
:10723C006170700025592D256D2D25645425483A13
:10724C00254D3A2553257A0061736374696D650089
:10725C000000000000000000AD540B009D540B001A
:10726C009F540B000000000000000000BF550B00F5
:10727C0027560B00FD550B00D9510B00EF550B0099
:10728C00C1550B00D1550B0021560B00E1550B00DD
:10729C00B9550B000000000000000000C9560B009F
:1072AC0035570B000D570B00D9510B00DD560B0059
:1072BC00F9560B00EB560B0007570B00CB560B0087
:1072CC00CF560B0000000000000000006D570B00B3
:1072DC00B7570B008F570B006F570B0097570B00CE
:1072EC009F570B00A7570B00AF570B0077697269BC
:1072FC006E670072656376206572726F72203D2036
:10730C0025640000000000000000000085580B0000
:10731C00A9580B00935D0B00B7580B0089580B0054
:10732C0000000000000000002D530B0045530B0023
:10733C0001580B001B580B00295C0B0045580B0027
:10734C009F5A0B0079580B00315B0B0071590B00E5
:10735C00CD5A0B00DD5C0B006D5A0B007B580B00FB
:10736C002D580B00BD580B0051590B0000000000AC
:10737C0000000000F75D0B00ED5D0B00E35D0B0002
:10738C00995D0B00D75D0B00CB5D0B00555E0B00C0
:10739C005D5E0B00BF5D0B00B75D0B00AD5D0B00C0
:1073AC00A35D0B008D5E0B000000000000000000D0
:1073BC00155E0B001F5E0B00295E0B00335E0B008D
:1073CC003D5E0B00495E0B00555E0B005D5E0B00D5
:1073DC00655E0B00715E0B00795E0B00835E0B002B
:1073EC008D5E0B0000537431395F53705F6D616BB0
:1073FC00655F7368617265645F74616700000000AB
:10740C004C740B00F1730B00AC740B0020740B006C
:10741C00D0740B004E31305F5F63787861626976AF
:10742C003131375F5F636C6173735F747970655F63
:10743C00696E666F450000000000000014740B00BC
:10744C0035620B0049620B00DD630B00DD630B0042
:10745C00B3620B00F5610B009B620B005D620B00CD
:10746C0027620B00AC740B007C740B0014740B00C3
:10747C004E31305F5F637878616269763132305FAC
:10748C005F73695F636C6173735F747970655F6957
:10749C006E666F45000000000000000070740B0069
:1074AC00DD620B00F1620B00DD630B00DD630B0092
:1074BC00B3620B00F5610B00B1630B003D630B0075
:1074CC0005630B004C740B00D8740B0053743974A7
:1074DC007970655F696E666F005245454E54206D3C
:1074EC00616C6C6F632073756363656564656400C0
:1074FC002F6D6E742F776F726B73706163652F775E
:10750C006F726B73706163652F4743432D31302D60
:10751C00706970656C696E652F6A656E6B696E73E8
:10752C002D4743432D31302D706970656C696E6544
:10753C002D34385F32303230313132345F313630C5
:10754C00363138303634312F7372632F6E65776C69
:10755C0069622F6E65776C69622F6C6962632F7339
:10756C0074646C69622F72616E642E63000000009B
:10757C0059430B00CD500B00F5500B00C9510B00BB
:10758C0001530B0011530B0059530B00015E0B0000
:04759C00655F0B001C
:1075A000040000001400000003000000474E5500D6
:1075B000F45B895E35A42EF80AD5CE8801542B875A
:0475C000903864B2E9
:0475C40000000000C3
:1075C8000E00000054720B00F8E4032000000000D5
:1075D80000000000000000000000000000000000A3
:1075E8000000000000000000000000000000000093
:1075F8000000000000000000000000000000000083
:107608000000000000000000000000000000000072
:107618000000000000000000000000000000000062
:10762800000000000000000000000000ECE703205C
:10763800FFFFFFFF00000102030405060708090A0F
:107648000B0C0D0E0F101112131415161718191A0A
:087658001B1C1D1E1F20280051
:047660007856341212
:04000003B000401CED
:00000001FF
