:02000002B0004C
:1040000000400B0080740B00000006000C0005024D
:084010000401A60F00000000EE
:04401800A46A0B008B
:10401C0009480A49884208B505D0094A824202D0AB
:10402C00121A02F047FC0748074A0021121A02F044
:10403C0069FC014808BD00BFF0E40320E8730B00E5
:10404C0060E5032060E50320EDE7032070B5074E23
:10405C00074C01F001FCA41BA4080025AC4200D1C4
:10406C0070BD56F8043B98470135F7E798730B0081
:10407C00BC730B0000F08EB908B500F0ADFABDE8CA
:10408C00084001F0A1BB01F011B901F00FB901F02A
:10409C0015B9000008B5034A03490C2001F042F899
:1040AC00FEE700BFB14E0B00B86A0B000078B0FA07
:1040BC0080F0400970470123037070472DE9F041EF
:1040CC00804694B014460D4601B3084602F062FCDB
:1040DC000746ECB1204602F05DFC06463822002172
:1040EC0006A802F00FFC4C23CDE9013503238DF813
:1040FC0018300023D8F80400059601AA1946CDE91A
:10410C00037401F093F814B0BDE8F0810F46E0E7BA
:10411C002646E3E70EB403B503AB002153F8042B9A
:10412C00019301F0CCFA02B05DF804EB03B07047D8
:10413C002DE9F04FADF5457D38AC4FF00A0A254618
:10414C003826201D3422002102F0DCFBBAF1010AD2
:10415C0044F8386BF5D120AE7649774CDFF830B2A5
:10416C00304601F0CCF9754924A801F0C8F974491E
:10417C0028A801F0C4F973492CA801F0C0F97249C0
:10418C0030A801F0BCF910AF704934A801F0B7F9B0
:10419C006F49384601F0B3F96E4914A801F0AFF934
:1041AC006D4918A801F0ABF96C491CA801F0A7F9EE
:1041BC0001F074FC6A49FFF7ADFF01F06FFC524649
:1041CC0081465146606800F0E1FF811C0AA801F0AD
:1041DC00BDFB0AA906A801F0D9F9069A614948461F
:1041EC00FFF798FF06A801F03FF952465146606868
:1041FC0000F0CCFF0346D0F857000A90B3F85B30C0
:10420C00ADF82C3001F04AFC9DF82D3003939DF84D
:10421C002C3002939DF82B3001939DF82A309DF899
:10422C002820514900939DF82930FFF773FF294648
:10423C000522204602F00CF8054601F02FFC4B49F4
:10424C002A46FFF767FF39ACAA4545DA94F828905F
:10425C0094F8298004F122000AA9062310F801CB56
:10426C0001F801CB013BF9D101F018FC2346524671
:10427C005946FFF74FFF01F011FC9DF82D300493C8
:10428C009DF82C3003939DF82B3002939DF82A3027
:10429C0001939DF829303649009352469DF82830F9
:1042AC00FFF738FF01F0FAFB4FEA09135246F358B7
:1042BC00304900934B46FFF72DFF01F0EFFB4FEA1F
:1042CC0008135246FB5800932B494346FFF722FF35
:1042DC000AF1010A3834B7E7284C00F0EBFD2368EB
:1042EC00C01A41F27073984211D92548254D00F03F
:1042FC0069FA18B12968244800F0E7FC01F0CEFBFC
:10430C002A682249FFF706FF00F0D4FD2060032441
:10431C0007EB041001F0A8F8013CF9D2052406EBD8
:10432C00041001F0A1F8013CF9D20DF5457DBDE872
:10433C00F08F00BFCD6A0B000CE70320DC6A0B008A
:10434C00E96A0B00F66A0B00046B0B001C6B0B008C
:10435C00356B0B00396B0B00496B0B005A6B0B0068
:10436C006F6B0B00916B0B00E46B0B00A26B0B00E3
:10437C00DD6B0B00096C0B002D6C0B008CE5032026
:10438C0090E50320F0E4032074E60320506C0B004E
:10439C00CB6B0B0070B501F081FB4FF4165101F0A3
:1043AC006DFB002000F08EFD42F2107504460020DB
:1043BC0000F088FD001B61F10001A84271F10003BF
:1043CC0007D201F06BFB01F05DFB10B900F05EFF52
:1043DC00EDE701F063FB3F4C3F4E01F053FB4FF414
:1043EC007A7001F0AFF900231A461946606800F0A4
:1043FC0025FF01F053FB002211460546606800F0D2
:10440C000DFF364902462846FFF784FE4FF47A70BA
:10441C0001F098F9324A33492046FFF74FFE324AF1
:10442C0032492046FFF74AFE00231A4619466068B7
:10443C0000F0D4FE002360681A46194600F0AEFE68
:10444C0000226068114600F0B1FE054640B101F053
:10445C0025FB3146FFF75EFE642001F073F9EFE7B0
:10446C0001F01CFB2249FFF755FE40F6B83001F075
:10447C0069F9FFF75DFE0121072001F0F5FF1D4BE7
:10448C002946188801F0F0FF01210B2001F0ECFF08
:10449C0001210B2001F0F9FF41F2707001F052F98B
:1044AC0029460B2001F0F1FF41F2707001F04AF93E
:1044BC0001210B2001F0E9FF41F2707001F042F98B
:1044CC0029460B2001F0E1FFBDE870400A490B487A
:1044DC0000F054BA0CE70320366F0B00696C0B002C
:1044EC00806C0B008B6C0B00926C0B009C6C0B00AB
:1044FC004D6C0B00F0E4032080E6032090E50320D4
:10450C002DE9F041184800F0D7F858BB01F0C6FA75
:10451C001649154EDFF86080154F01F095F81248DA
:10452C0000F077FB0446C0B101F0B8FA214605460D
:10453C00304600F001FA414602462846FFF7EAFDF4
:10454C0001F0ACFA3946FFF7E5FD304600F002FA0F
:10455C0041F2883001F0F6F8E1E701F09FFA0549E5
:10456C00FFF7D8FDBDE8F08190E50320A86C0B00A7
:10457C00CE6C0B00F86C0B00BF6C0B0038B5114DFA
:10458C0000F098FC2B68C01A0F4B98424FF00004B7
:10459C0015D901F083FA0D49FFF7BCFD0C48012138
:1045AC0000F007FA044638B901F078FA0949FFF728
:1045BC00B1FD074800F0CEF900F07CFC28602046E5
:1045CC0038BD00BF88E50320C0D40100096D0B0085
:1045DC0090E50320186D0B0010B5104C208801F0ED
:1045EC0080FF2060FFF78CFFFFF7C8FF0C4B002209
:1045FC005868114600F012FE78B10121072001F035
:10460C0044FFFA2001F09EF80720002101F03DFF45
:10461C00BDE81040FA2001F095B810BDF0E403207D
:10462C000CE7032037B5184D1848194C802311227C
:10463C000E2100F0D7FB284601F0AAFD154B009384
:10464C001549164B40F25B72204600F0F1F8144B02
:10465C0023602146134A1448C4F8D050002300F0BC
:10466C0043FB124A12480023214600F029FB114B50
:10467C000022C3E900220220A2F580329A6003B026
:10468C00BDE8304000F05EBD6CE5032064E603201D
:10469C0090E50320406D0B00306D0B00286D0B0076
:1046AC00A46D0B00616D0B0080E603207F6D0B0089
:1046BC0074E6032060E5032008B5D0F8D000036849
:1046CC001B6B9847003818BF012008BDF8B506468B
:1046DC000F461446C4B1D6F8D00003681B6B98473C
:1046EC0008B90020F8BDD6F8D000FA2C036825468E
:1046FC00A8BFFA25DB682A463946984783B2E41AE4
:10470C009D42A4B2E6D0ECE70120EBE770472DE91F
:10471C00F8430646884691461F461D460024D6F8A7
:10472C00D00003681B6B9847D0B1002D18DBD6F86E
:10473C00D00003681B69984760B1D6F8D0000368B5
:10474C005B69984708F804000134A4B24C4507D0C3
:10475C003D46ECE70A3D0A202DB200F0F3FFDEE700
:10476C002046BDE8F88370B5044600F12205962278
:10477C000021284602F0C6F86168284602F002F9CA
:10478C00D4F8D0002289036829465E6A0023B0471A
:10479C00003818BF012070BD10B5D4210446FFF7B6
:1047AC0076FC204610BD10B50446D0F8D000036846
:1047BC001B6B984720B1D4F8D0000368DB6A98478C
:1047CC00012010BD70B503689B6804469847C8B9B2
:1047DC00204600F01EFA042570B1013D15F0FF05CE
:1047EC000AD0204600F0B6F841F2883000F0AAFF5B
:1047FC00204600F00EFAEFE7236820469B68BDE8E0
:10480C007040184770BD13B504460846019102F07C
:10481C00C1F8C0F3072323706070A31C84B2019904
:10482C002246184602F0BEF8204402B010BD00002B
:10483C0030B502810A4A0B4DC0E90323039B436147
:10484C000023C0E90051C0E92F33C0E93133C0E97E
:10485C000633C0F8CC300384A0F8B83030BD00BFAC
:10486C004F6C0B00A86F0B002DE9F74F1646026832
:10487C001BB297690193012205460C46B847C7B293
:10488C00012F019B03D0002003B0BDE8F08F04F191
:10489C00010804F1050A4FF000092A680193D2F8C7
:1048AC0018B0414601222846D847C0B20128EAD1A7
:1048BC0018F8012B02F07F01C24501FB07994FEA62
:1048CC00C717E0D012F0800F019BE6D1A8EB0404CF
:1048DC00A7B2341B2A68013C4C45D2F818A03DBF46
:1048EC0006F1FF32D21B92B21FFA89F241462846DA
:1048FC00D047C0B2384480B2C6E700002DE9F04181
:10490C00DFF8308005460C4616461F463B4696227D
:10491C0021462846FFF7A8FF48B12378B6EB131FB2
:10492C0005D001F0BBF8414600F0A1FEEEE7BDE872
:10493C00F08100BFC06D0B000231C9B209299ABFCA
:10494C00024B53F821000248704700BFC46F0B00A4
:10495C00D16D0B0010B5E02380F822300146002306
:10496C0080F8233051F8223B04465B6902229847B9
:10497C00236820461B69BDE81040184700F1BC02B3
:10498C0030B5134600F1D00453F8045B8D4209D0C6
:10499C00A342F9D1002352F8044B2CB900EB83004D
:1049AC00C0F8BC10012003E00133052BF3D100202B
:1049BC0030BD2DE9F84304460D464FF0000800F1D8
:1049CC0022074FF0C009E5B1236884F8229084F8DF
:1049DC0023805B690222394620469847064668B117
:1049EC004FF4FA730D2239462046FFF787FF94F8EF
:1049FC002230D02B02D13046BDE8F883013DEDB218
:104A0C00E1E72E46F7E7000038B5054608461023C7
:104A1C0000F8023B0C462949FFF7F5FE042303700E
:104A2C0002234370AB698BB11B787BB106234370B7
:104A3C0095F82030012B39D10E23437095F8213095
:104A4C00012B02BF437843F0200343702B691B7882
:104A5C001BB1437863F07F0343706B691B781BB108
:104A6C00437843F040034370012383702C23C370BD
:104A7C00E9680B78F3B10430FFF7C5FEA96931B1D1
:104A8C000B7823B1FFF7BFFEE969FFF7BCFE29697C
:104A9C000B780BB1FFF7B7FE69690B780BB1FFF719
:104AAC00B2FE001BC0B2831E637038BD022BC5D191
:104ABC001E23C2E7037143710630DFE7DF6D0B0085
:104ACC002DE9F743054610460E469846019201F033
:104ADC0061FF9DF82C90BDF82870019984B2B9F152
:104AEC00000F35D102344FEA49033046A4B243F0EB
:104AFC0030033C4400F8013BA4B2224604F07F038F
:104B0C007F2A88BF43F080037F2A00F8013B4FEADD
:104B1C00D414F2D8FFF777FE0346B9F1000F0CD08E
:104B2C00B5F8B820120A0270B5F8B8204270B5F882
:104B3C00B82001320233A5F8B8203A46414618464F
:104B4C0001F0C6FE3844801B80B203B0BDE8F08390
:104B5C000434C8E773B59DF8186000F122050446CB
:104B6C00CDE9003613460A462946FFF7A9FF23680C
:104B7C0002465B6929462046984710B9002002B0CE
:104B8C0070BD002EFBD04FF4FA73962229462046B6
:104B9C00FFF76AFE0428F1D194F822301B09042B8C
:104BAC00ECD1A38CB4F8B8005BBA01339BB2C31A36
:104BBC0058425841E3E730B585B0044610461D46CF
:104BCC000391029201F0E6FEDDE9022183B2009529
:104BDC002046FFF7BFFF05B030BD38B51D46822318
:104BEC000B70B0F8B8301B0A8B70B0F8B830CB70C3
:104BFC00B0F8B8300C460133A0F8B8301146201D7F
:104C0C00FFF701FE00F8015B001BC0B2831E63704E
:104C1C0038BD2DE9F0410368DB680446984700284D
:104C2C004BD004F1220529462046FFF7EDFE236800
:104C3C0082B25B6929462046984700283DD041F254
:104C4C007073962229462046FFF70EFEC0B2042848
:104C5C0033D1638CB3F5087F2FD194F8250010B1B4
:104C6C0040B2BDE8F08104F1BC0704F1D00857F85C
:104C7C00043BF3B1032657F8042C29461379126828
:104C8C002046FFF7AAFF236882B25B6929462046BB
:104C9C00984790B14FF4FA73092229462046FFF742
:104CAC002DFE30B9013E16F0FF06E4D16FF0010085
:104CBC00D7E7B845DBD10020D3E74FF0FF30D0E782
:104CCC0010B5C0E90012037210BD1FB504460A22CC
:104CDC00084601A900F07CFBD4E90001237A01AA63
:104CEC00FFF769FF04B010BD10B503710023C0E9D4
:104CFC000833C0E90A33416302604383C361036331
:104D0C0010BD704710B510210446FFF7C0F92046BE
:104D1C0010BD08B5407901F0D1FBB0FA80F0400924
:104D2C0008BD2DE9F04104462046FFF7F2FF10B90B
:104D3C0000F0D0F8F8E721796079012201F0E8FB66
:104D4C00217901220646607901F0E2FB21790546C2
:104D5C000122607901F0DCFB4FF000080746A379D3
:104D6C0043450AD92079012101F08FFB20790021DC
:104D7C0001F08BFB08F10108F1E72B0243EA064333
:104D8C003B4346F3C01043EA0060BDE8F081402984
:104D9C0010B5044610D0802903D0202903D102235A
:104DAC0000E00123A3712079002101F06EFB204665
:104DBC00BDE81040FFF7B5BF0323F3E738B5044651
:104DCC0010462271617101211D4601F04DFB607985
:104DDC00002101F049FB29462046BDE83840FFF789
:104DEC00D6BF000038B5064D0560002585604FF034
:104DFC007E550446C560FFF7E1FF204638BD00BF75
:104E0C00F46F0B0008B5024B1B689B68019308BD3F
:104E1C006802030008B5024B1B68DB68019308BDF0
:104E2C006802030008B5024B1B685B68019308BD60
:104E3C002C02030008B5024B1B689B68019308BD4C
:104E4C002C02030008B5024B1B68DB68019308BDFC
:104E5C002C02030008B5024B1B681B69019308BDAB
:104E6C002C02030008B5024B1B685B69019308BD5B
:104E7C002C02030008B5024B1B681B6B019308BD89
:104E8C002C02030008B5024B1B685B69019308BD3B
:104E9C006C02030008B5024B1B685B68019308BDEC
:104EAC001802030008B5024B1B68DB68019308BDB0
:104EBC001802030008B5024B1B685B69019308BD1F
:104ECC001802030008B5024B1B68DB6D019308BD8B
:104EDC001802030008B5024B1B68DB68019308BD80
:104EEC004802030008B5024B1B685B6C019308BDBC
:104EFC004802030008B5024B1B685B69019308BDAF
:104F0C006402030008B5024B1B681B6A019308BDC1
:104F1C006402030008B5024B1B689B6A019308BD31
:104F2C006402030008B5024B1B68DB68019308BDE3
:104F3C003C02030008B5024B1B681B69019308BDBA
:104F4C003C02030008B5024B1B685B69019308BD6A
:104F5C003C02030008B5024B1B689B69019308BD1A
:104F6C003C02030008B5024B1B68DB69019308BDCA
:104F7C003C02030008B5024B1B681B6A019308BD79
:104F8C003C02030008B5024B1B689B6A019308BDE9
:104F9C003C02030008B5024B1B681B6C019308BD57
:104FAC003C02030008B5024B1B681B6A019308BD49
:104FBC002802030008B5024B1B685B6A019308BD0D
:104FCC002802030008B5024B1B689B6A019308BDBD
:104FDC002802030008B5024B1B68DB6A019308BD6D
:104FEC002802030008B5024B1B681B6B019308BD1C
:104FFC002802030008B5024B1B685B6B019308BDCC
:10500C002802030008B5024B1B681B6C019308BDFA
:10501C002802030008B5024B1B689B69019308BD6D
:10502C003802030008B5024B1B68DB69019308BD0D
:10503C003802030008B5024B1B681B6A019308BDBC
:10504C003802030008B5024B1B689B6A019308BD2C
:10505C003802030008B5024B1B681B6B019308BD9B
:10506C003802030008B5024B1B689B6B019308BD0B
:10507C003802030008B5024B1B68DB69019308BDBD
:10508C003002030008B5024B1B681B6A019308BD74
:10509C003002030008B5024B1B681B68019308BD66
:1050AC004C02030008B5024B1B685B68019308BDFA
:1050BC004C02030008B5024B1B681B69019308BD29
:1050CC004C02030008B5024B1B685B69019308BDD9
:1050DC004C02030008B5024B1B689B69019308BD89
:1050EC004C02030008B5024B1B68DB69019308BD39
:1050FC004C02030008B5024B1B681B6A019308BDE8
:10510C004C02030008B5024B1B689B6A019308BD57
:10511C004C02030008B5024B1B681B6E019308BDC3
:10512C007402030008B5024B1B685B6B019308BD4E
:10513C006002030008B5024B1B681B6D019308BD90
:10514C006002030008B5024B1B685B68019308BD45
:10515C002002030008B5024B1B685B69019308BD74
:10516C002002030008B5034B1B68D3F88830019369
:10517C0008BD00002002030008B5034B1B68D3F8E0
:10518C009430019308BD00002002030008B5024BC7
:10519C001B681B68019308BD4002030008B5024B55
:1051AC001B685B68019308BD4002030008B5024B05
:1051BC001B689B68019308BD4002030008B5024BB5
:1051CC001B68DB68019308BD4002030008B5024B65
:1051DC001B681B69019308BD4002030008B5024B14
:1051EC001B685B69019308BD4002030008B5024BC4
:1051FC001B689B69019308BD4002030008B5024B74
:10520C001B68DB69019308BD4002030008B5024B23
:10521C001B681B6A019308BD4002030008B5024BD2
:10522C001B685B6A019308BD4002030008B5024B82
:10523C001B689B6A019308BD4002030008B5024B32
:10524C001B68DB6A019308BD4002030008B5024BE2
:10525C001B681B6B019308BD4002030008B5024B91
:10526C001B685B6B019308BD4002030008B5024B41
:10527C001B681B6C019308BD4002030008B5024B70
:10528C001B685B6C019308BD4002030008B5024B20
:10529C001B689B68019308BD4402030008B5024BD0
:1052AC001B68DB6B019308BD4402030008B5024B7D
:1052BC001B681B68019308BD1C02030008B5024B58
:1052CC001B685B68019308BD1C02030008B5024B08
:1052DC001B689B68019308BD1C02030008B5024BB8
:1052EC001B685B6A019308BD1C02030008B5024BE6
:1052FC001B68DB6B019308BD1C02030008B5024B55
:10530C001B681B6C019308BD1C02030008B5024B03
:10531C001B685B6C019308BD1C02030000224068F3
:10532C001146FFF773BF002240681146FFF796BF86
:10533C0040680022FFF78ABF4068002281F001011B
:10534C00FFF75CBF002340681A461946FFF74EBFB3
:10535C00002340681A461946FFF740BF00224068F8
:10536C001146FFF733BF002240681146FFF71EBFFE
:10537C00406800220221FFF721BF002340681A4633
:10538C00FFF70CBF024B03225A60024A1A607047A7
:10539C00B8E6032004700B0010B5044608462170D3
:1053AC00FFF768FE00236360204610BD054B022208
:1053BC001A60054B054A9A600020C3E90000FFF70C
:1053CC00C1BE00BFCCE60320C0E603200000FFFFF7
:1053DC002DE9F041931E8CB0222B4FF000030D46AB
:1053EC0014468DF82C3027D900282ADA2E462D2386
:1053FC0006F8013B40420A240DF12B074FF001083F
:10540C002246014601A801F041FA029B0198092BA2
:10541C00CCBF3722302252FA83F307F8013908F156
:10542C0001080028ECD14246791C304601F042FAC2
:10543C0028460CB0BDE8F0810A2AD5D018B12E460A
:10544C00DAE70A24FAE730238DF82B302E460DF1DB
:10545C002A074FF00208E6E7704710B50C21044606
:10546C00FEF715FE204610BD10B504460068FFF788
:10547C0025FF204610BD10B50446006808B1FFF7A3
:10548C001DFF0023C4E90133236010BD38B5044669
:10549C000D4600680131FFF719FF10B1C4E9000592
:1054AC00012038BD10B50368044623B143688B4214
:1054BC0001D3012010BD2046FFF7E8FF0028F9D0EA
:1054CC00A368002BF5D122681370F2E737B50D46AF
:1054DC00114601920446FFF7E5FF019A28B92046D0
:1054EC00FFF7C9FF204603B030BDA26029462068F3
:1054FC0001F0E0F92268A3680021D154F2E70023FF
:10550C0013B5C0E9003304468360037341B1084608
:10551C00019101F03FFA019902462046FFF7D6FFB0
:10552C00204602B010BD70B505460E4609B90020E4
:10553C0070BD6AB1846814442146FFF7B3FF00289C
:10554C00F5D02868AB683146184401F01BFAAC6002
:10555C000120EDE738B5044680688568FFF7E3FF66
:10556C00A3689868401B38BD07B500238DF804105C
:10557C00012201A98DF80530FFF7D5FF03B05DF8C6
:10558C0004FB08B58068FFF7EFFF08BD30B585B0A8
:10559C0000230D460293C0E900338360037314218A
:1055AC00064B019304460390FFF77CFF2B6801A97F
:1055BC001B6828469847204605B030BD40700B004C
:1055CC0010B54368013B0446436063B903689B68AC
:1055DC009847A368013BA3602BB923682046DB687E
:1055EC00BDE81040184710BD024800230360FFF7C8
:1055FC0079BC00BFD0E60320F8B506460D468F18DF
:10560C000024BD420CD0336815F8011B9B68304652
:10561C009847031E01DB1C44F3E7002C08BF1C4613
:10562C002046F8BD13B50446084659B1019101F066
:10563C00B1F923680199DB680246204602B0BDE847
:10564C001040184702B010BD08B5FFF7EBFF08BDBE
:10565C0003689B68184738B50D210546FFF7F8FF1E
:10566C000A2104462846FFF7F3FF204438BD38B51D
:10567C000546FFF7D7FF04462846FFF7ECFF20440A
:10568C0038BD30B58BB00023012A8DF8243098BF7B
:10569C000A2209AC0D46B1FBF2F101FB125303F0E7
:1056AC00FF03092B94BF30333733DBB2AA4204F823
:1056BC00013DEFD92146FFF7B5FF0BB030BD2DE909
:1056CC00F04186B000AF05460E46381D1421144635
:1056DC003B60FFF703FE13280ED8391D2846FFF751
:1056EC00A1FF04461EB12846FFF7B5FF044420462F
:1056FC001837BD46BDE8F08100F1080323F007031D
:10570C00E846ADEB030D2246411C3B686846FFF7AB
:10571C00E5FD69462846FFF785FF0446C546E1E7E7
:10572C00014B024A1A607047D4E6032058700B00F4
:10573C00024B1A68024B1A60704700BFF4E4032056
:10574C00D8E603200021FFF705BD000010B5044B7F
:10575C0003600446806908B1FFF732FF204610BD94
:10576C0050710B0010B50446FFF7F0FF20461C21CA
:10577C00FEF78DFC204610BD014B00229A6070474D
:10578C00DCE60320014B1860704700BFF8E40320EF
:10579C0008B50B4B43B100F081F903681B699847BE
:1057AC00002801DDAFF30080064B43B100F0F0FEA2
:1057BC0003681B699847002801DDAFF3008008BD22
:1057CC00000000000000000008B5FFF7E1FFFFF744
:1057DC0071FB014B186008BD40E703200548064AE1
:1057EC00064908B5121A01F065F8054B054A1A600E
:1057FC0008BD00BF00F4032004F40320E4730B0085
:10580C0000F403201E1C279A07B5002300931A46A8
:10581C006FF07701FFF7B0FC03B05DF804FB0000FC
:10582C0007B543880A2B08D0502B0BD1094B1B68AA
:10583C004BB103B05DF804EB1847FFF7E5FF03B07D
:10584C005DF804FB002300931A466FF07701FFF715
:10585C0093FCF4E7F0E6032010B512480021FFF7A3
:10586C0055FD114B1A68114B9A42114B0CBF01227A
:10587C0000221A7001D0FFF7B1FFFFF70BFB0446B3
:10588C0001F048F80B4B13B12046AFF30080002118
:10589C000848FFF703FDBDE8104007480021FFF75B
:1058AC0061BC00BF91570B0000F403201E1C279A0B
:1058BC00ECE60320000000002D580B00704710B5DB
:1058CC0018210446FEF7E3FB204610BDF0B5037D1E
:1058DC00062B8DB00E4600F104074FF0000412D0D9
:1058EC0000F1080515F8011D0A223046FFF7C9FE24
:1058FC00AF42044419D0002CF4D02E213046FFF7CF
:10590C00A7FE0444EEE72F236A4639460A208DF899
:10591C000040FFF7EFFA684601F03CF833680246A6
:10592C00DB68694630469847044620460DB0F0BD0A
:10593C0010B5054B0446112240F8043B002100F041
:10594C00E1FF204610BD00BF80700B000346074AE4
:10595C0010B543F8042B01F1100251F8044B43F835
:10596C00044B9142F9D10A781A7010BD80700B006B
:10597C00037D042B04D14068003818BF0120704708
:10598C00062B07D143683BB983682BB9C3681BB995
:10599C000069F1E7002070470120704710B59DF8B1
:1059AC00084044EA032343EA024242EA0161042329
:1059BC004160037510BD000007B5064B0360CB7842
:1059CC0000938B784A780978FFF7E8FF03B05DF80D
:1059DC0004FB00BF80700B00417470477047704728
:1059EC0008B50021007CFFF775FB40EAE07008BDAC
:1059FC0008B50121007CFFF76DFB40EAE07008BDA3
:105A0C0008B5007CFFF75EFB20EAE07008BD08B526
:105A1C00007CFFF74FFB20EAE07008BD13B504468D
:105A2C00007C0191FFF74EFB0028019901DC607CA2
:105A3C0020B1207CFFF756FB20EAE07002B010BDCD
:105A4C00007CFFF757BB10B514210446FEF71FFB73
:105A5C00204610BD10B54FF47A7304460846002159
:105A6C00C4E90113044B23600123207463741146B1
:105A7C00FFF710FB204610BD94700B00007C002239
:105A8C00FFF710BB007CFFF73DBB10B5142204469A
:105A9C00002100F037FF204610BD000010B50F4C60
:105AAC0088B003A8FFF7F1FF2178BFF35B8F11F0EB
:105ABC0001010FD120460191FEF7F8FA019948B186
:105ACC0003AA0748FFF7C6FF2046FEF7F4FA05487D
:105ADC0000F0D6FE024808B010BD00BFF4E603206B
:105AEC00F8E60320E9590B0070474174704708B57C
:105AFC00007CFFF747FA20EAE07008BD08B5007C8F
:105B0C00FFF718FA20EAE07008BD08B5007CFFF733
:105B1C0021FA40EAE07008BD08B5007CFFF712FAE4
:105B2C0040EAE07008BD007CFFF71CBA37B5457C35
:105B3C0004462DB1207C03B0BDE83040FFF7F2B92C
:105B4C00007C0191FFF71EFA00280199F2DC28462F
:105B5C0003B030BD10B514210446FEF798FA204668
:105B6C0010BD000010B54FF47A7304460846114678
:105B7C000022C4E90123044B2360012320746374C5
:105B8C00FFF708FA204610BDC4700B007047F8B53B
:105B9C00064615460C468F18BC4206D0336814F8DE
:105BAC00011B9B6830469847F6E72846F8BD007CF9
:105BBC000022FFF7F7B9007C0021FFF7FBB9007C4E
:105BCC000021FFF7FFB9007C0021FFF703BA007C2E
:105BDC000021FFF707BA10B514210446FEF757FA57
:105BEC00204610BD38B5044615464FF47A73002292
:105BFC00C4E90123094B2174084623602946FFF7A9
:105C0C0001FABF3008D16B69DB0705D56868FFF76F
:105C1C0055FBE868FFF752FB204638BDF4700B00CB
:105C2C0013B503688DF80710DC6B01224FF0FF33BE
:105C3C000DF10701A04702B010BD10B40368DC6B76
:105C4C004FF0FF33A4465DF8044B604713B5134681
:105C5C0002688DF80710D46B0DF107010122A047E3
:105C6C0002B010BD10B54369B3F88620B3F8843088
:105C7C009A42044608D06369B3F88420511CA3F8F7
:105C8C0084101344187910BD03681B6998470028C9
:105C9C00F1D14FF0FF30F6E7704743691868C04305
:105CAC00C00F704770470000064B994210B500F1C9
:105CBC000C0405D0084600F0D1FC002808BF0024D5
:105CCC00204610BD50700B0010B5AC210446FEF7F9
:105CDC00DEF9204610BDAC21FEF7D9B92DE9F04113
:105CEC004FF0000886B01C46C0F8048005460E46EE
:105CFC0017464146102202A800F004FE631C09D08E
:105D0C004FF47A73B4FBF3F203FB1244CDE902288F
:105D1C005C430494686910230093006802AB41F261
:105D2C00050240F6FF71FFF775F9002807DAFFF757
:105D3C00DDFA03686B60002006B0BDE8F08168698D
:105D4C00002300683A463146FFF784F9031EEEDB68
:105D5C001846F1E730B587B0044601AD6846FFF749
:105D6C002BFE0FCD04340FC42B68237007B030BD4D
:105D7C0070B54D69054B04468C3544F8043B06461A
:105D8C000FCD0FC42B682370304670BD80700B0094
:105D9C002DE9F0439846036893B00D460024DB6A66
:105DAC0006461746984728466B46224621460094DD
:105DBC00FFF730F80546002863D1009B002B4BD031
:105DCC005B69002B48D006A8FFF7B2FD009B5C690D
:105DDC006378022B04D1211D06A8FFF7BBFF26E038
:105DEC000A2B24D11122294601A800F08BFDA368AF
:105DFC00002B38D004F108030DF1040C183418688A
:105E0C005968624603C20833A3429446F7D106236D
:105E1C0001A90CA88DF81430FFF798FD0DF1340C86
:105E2C00BCE80F0007AC0FC4DCF80030237006A8E8
:105E3C00FFF79EFD80B1336807ADD3F82090124B6D
:105E4C000C930FCD0DAC0FC42B6823703A46434610
:105E5C000CA93046C84705460098FEF7D3FF2846E4
:105E6C0013B0BDE8F083E368002BC3D14FF6FF708D
:105E7C00D4F81090FFF746F88145BBD104F114011A
:105E8C00AAE72546E8E700BF80700B0038B54369E8
:105E9C001A68002A054610DAB3F88620B3F8843065
:105EAC009A420AD103681B699847044628B92B68A3
:105EBC002846DB6A9847204638BD0120FCE710B520
:105ECC004369B3F88620B3F884309A42044605D06F
:105EDC006369B3F884201344187910BD03681B69F7
:105EEC0098470028F4D14FF0FF30F6E7F8B5436936
:105EFC001746B3F88620B3F884309A4205460E460E
:105F0C0016D06969B1F88430B1F88640E41ABC4205
:105F1C0028BF3C46043322461944304600F0CAFCE4
:105F2C006A69B2F884302344A2F884302046F8BD64
:105F3C0003681B6998470028E3D14FF0FF34F5E75D
:105F4C0042690023A2F884304269A2F88630704777
:105F5C002DE9F0411F4603680C46DB6A8AB0054602
:105F6C0016469847237DD5F81480042B0CBF0220CD
:105F7C000A2006220121FFF775F8C8F800006B69AA
:105F8C001B68002B08DA2B682846DB6A002498472C
:105F9C0020460AB0BDE8F0812846FFF7D1FFB7B123
:105FAC00002303A9F8B20393ADF81030FEF76AFF93
:105FBC000028E8D1686906230093006803AB41F21E
:105FCC000B0240F6FF71FFF725F80028DBD11C22ED
:105FDC00002103A800F096FC237D042B1DD14FF467
:105FEC0007733046ADF80C30FEF794FFADF80E0099
:105FFC006068FEF787FF04906B691C22186803A980
:10600C00FFF718F80028BED104340FCC6D698C351D
:10601C000FC523682B700124BAE740F61C233046C9
:10602C00ADF80C30FEF776FF05AEADF80E00231D73
:10603C0004F1140718685968324603C20833BB428E
:10604C001646F7D1D8E7000030B54269B2F8863071
:10605C008BB004462BB1B2F884209A4201D1FFF7E1
:10606C006FFF61690868002818DBB1F886507F2D36
:10607C0014D804310823C5F180022944FEF7E2FF4D
:10608C00002813DD6369B3F886200AB9A3F88420CD
:10609C006369B3F886201044A3F886006369B3F8EB
:1060AC008600B3F88430C01A0BB030BDFFF71EF970
:1060BC0003680B2BF2D0FFF719F903680B2BEDD00B
:1060CC0020230025CDE90235FFF710F90368019371
:1060DC00084B0949009302AA2B463220FFF72AF8F5
:1060EC0063691868FEF79EFF63694FF0FF321A6010
:1060FC00D4E700BF1B710B0014710B0010B5436982
:10610C0004461868002801DBFEF78CFF63694FF02A
:10611C00FF321A606069112200218C3000F0F2FB12
:10612C002046BDE81040FFF70BBF10B50023044616
:10613C000160C0F884308830FFF7FAFB204610BDB0
:10614C0073B500234FF47A72C0E901320E4A036131
:10615C00026043610446AC200191FDF794FF051EDB
:10616C0005F10C0608D00123C5E90133074B019951
:10617C002B603046FFF7D9FF2046C4E90565FFF7D1
:10618C00DFFE02B070BD00BF50710B0034710B000C
:10619C0010B54FF0FF310446FFF7D2FF204610BD7B
:1061AC0010B504460068002801DBFEF73BFF2046D3
:1061BC0010BD0C30FFF7F4BF30B5D1E9013293427A
:1061CC0010DA0D685A1C4A600446382202FB03554B
:1061DC000FCC0FC50FCC0FC50FCC0FC594E8030027
:1061EC0085E8030030BD002240681146FEF7EEBF83
:1061FC00002240681146FFF709B80022406811469A
:10620C00FFF72CB840680022FFF720B84068002246
:10621C0081F00101FEF7F2BF002340681A461946CF
:10622C00FEF7E4BF002340681A461946FEF7D6BFB6
:10623C00002240681146FEF7B9BF406800220221D7
:10624C00FEF7BCBF002340681A46FEF7A7BF00004C
:10625C001FB5002301910648029301A90392FEF792
:10626C0059FF039B9842A8BF184605B05DF804FB84
:10627C00C5610B00024B04225A60024A1A60704737
:10628C000CE703209C710B00002340681A46FEF7B4
:10629C0085BF406800220221FEF790BF00224068B3
:1062AC001146FEF783BF002240681146FEF78EBFF1
:1062BC00002340681A461946FEF790BF0023406839
:1062CC001A461946FEF792BF40680021FEF7CEBF72
:1062DC0040680021FEF7D2BF4068002281F0010126
:1062EC00FEF78CBF40680022FEF7B0BF002240686A
:1062FC001146FEF7B3BF002240681146FEF786BF79
:10630C002DE9F04395B014460D460746FFF710FBF8
:10631C0000211C220DA8009100F0F4FA40230C93EC
:10632C0020466B460CAA0021FEF774FD044600289B
:10633C004BD1024601216868FEF748FF02218046D6
:10634C0022466868FEF742FF009E81462146002ED9
:10635C003BD0002939D17368022B03D00A2B11D002
:10636C00F669F4E7B8F1000FFAD0716906A80431A8
:10637C0007ADFFF721FB0FCD3C1D0FC42B6823701D
:10638C004146EDE7B9F1000FEAD07469102201A87B
:10639C0000F0B8FA06238DF8143001AD04F10803AF
:1063AC001834186859682A4603C20833A3421546A4
:1063BC00F7D101A906A807ADFFF7C8FA0FCD3C1D10
:1063CC000FC42B6823704946CAE70098FEF71AFDE4
:1063DC00384615B0BDE8F083024B034A1A60002220
:1063EC005A60704714E70320D8710B00232813B5AB
:1063FC0002D9002002B010BDA0F10B03022B1AD859
:10640C00174C2178BFF35B8F11F001010BD12046A3
:10641C000191FDF74BFE019928B11248FEF7BCFF24
:10642C002046FDF748FE0F4B1878FEF72BFE002890
:10643C00DFD10120DEE7012809D800F0E9F80021BE
:10644C00007CFEF7D7FD80F00100C0B2D2E709381E
:10645C000128EED800F09CF8007CFEF78BFDF2E7EB
:10646C001CE7032020E70320232838B504460D46FB
:10647C000AD8FF2908D0FFF7B9FF28B129462046D2
:10648C00BDE83840FEF7D6BC38BD38B504460D46DD
:10649C00FEF7D8FCFF2810D0062804D84D2323FA89
:1064AC0000F0C30709D42046FFF7A0FF28B1294606
:1064BC002046BDE83840FEF7CDBC38BD10B50446CB
:1064CC00FEF7C0FC031FDBB2012B08D92046FFF7F7
:1064DC008DFF20B12046BDE81040FEF7C3BC002064
:1064EC0010BD0D2810B504469CBF0E34A4B2204636
:1064FC00FFF77CFF50B103212046FEF793FC0328E5
:10650C0004D12046BDE81040FEF7B4BC002010BDFD
:10651C002DE9F8439046072500240E4607463046E1
:10652C000121FFF7B2FFC5F1070964B23846B8F193
:10653C00000F0ED1FFF7C2FF00FA09F0044300214F
:10654C003046FFF7A2FF013DE4B2E8D22046BDE899
:10655C00F883FFF7B3FFA840F0E7704738B504465F
:10656C0014252A46002100F0CDF925804025074945
:10657C0025812846258200F06FF804496060284682
:10658C0000F06AF8E060204638BD00BF0C720B00CA
:10659C0030B50E4D2978BFF35B8F11F0010487B035
:1065AC0011D12846FDF782FD68B101A8FFF7D6FF8F
:1065BC0001AA21460648FFF7D5FA2846FDF77BFDD0
:1065CC00044800F05DF9024807B030BD28E703200D
:1065DC002CE7032067650B007047000038B50A4BA9
:1065EC0003600123044643610849202000F034F87D
:1065FC00202560600549A560284600F02DF8C4E907
:10660C000305204638BD00BF180001000C720B00BA
:10661C0030B50E4D2978BFF35B8F11F0010487B0B4
:10662C0011D12846FDF742FD68B16846FFF7D6FF49
:10663C006A4621460648FFF7D5FA2846FDF73BFD8A
:10664C00044800F01DF9024807B030BD44E70320B0
:10665C0048E70320E5650B00FDF717BD014900F085
:10666C00F9B800BF28720B007FB500241023CDE9C8
:10667C000234036815469E6912686B46CDE90044E6
:10668C00B0479DF8043003F00603062B03BF009BB4
:10669C002B600120204604B070BD0098904214BFBE
:1066AC00012006207047000010B5034B0360044620
:1066BC0000F0CDF8204610BD68720B0010B50446F2
:1066CC00FFF7F2FF20460821FDF7E1FC204610BD44
:1066DC002DE9F0411F46DDE90834DDF818809845B6
:1066EC000646154607D1079900F0B4F818B1657144
:1066FC000020BDE8F0813946304600F0ABF80028A8
:10670C00F6D00123C4F800802571A371F0E738B5E9
:10671C0015461C4600F09EF820B10823E3600623C2
:10672C002560237138BD73B505460C4601921E4693
:10673C0000F090F850B9032E08D82368019A5B69D1
:10674C002946204602B0BDE87040184702B070BD23
:10675C0010B5034B03600446FFF7A6FF204610BD9F
:10676C00C8720B0010B50446FFF7F2FF20460C214F
:10677C00FDF78DFC204610BDF7B5089F97420546E6
:10678C000E4614460AD0A86802680897156A314666
:10679C002246AC4603B0BDE8F04060471946019371
:1067AC0000F058F8019B0028EDD0062003B0F0BD96
:1067BC002DE9F14F0D461946DDE90A4BDDE90CA632
:1067CC0081461746984600F045F890B1002D34608C
:1067DC00377109DB61198A450CBF06210121B171A2
:1067EC00002001B0BDE8F08F0235F9D10123B3715F
:1067FC00F6E7544506D15946484600F02BF808B147
:10680C007771EDE7D9F808000368CDE90CA6CDE95E
:10681C000A4BDC693A4643462946A44601B0BDE81A
:10682C00F04F60472DE9F04107460C4615461E46D1
:10683C00FFF76DFF48B9B86803689F692A4633466D
:10684C002146BC46BDE8F0416047BDE8F081704789
:10685C0000207047814208B50ED0406803782A2B7F
:10686C000CD049680B782A2B08BF013100F080F856
:10687C00B0FA80F0400908BD0120FCE70020FAE7DF
:10688C00002301461A46184600F0A0B8002910B59E
:10689C0091FBF2F402FB141306DB002B01DA01343A
:1068AC009B1AC0E9004310BD002BC4BF04F1FF3498
:1068BC009B18F6E70A44914200F1FF3300D1704770
:1068CC0010B511F8014B03F8014F9142F9D110BDED
:1068DC00884210B501EB020402D98442234607D842
:1068EC00431EA14208D011F8012B03F8012FF8E741
:1068FC00024401468A4200D110BD13F8014D02F842
:10690C00014DF7E702440346934200D1704703F868
:10691C00011BF9E738B5104B1D68AB6B0446B3B9D6
:10692C001820FEF7C3FC0246A86320B90B4B0C4899
:10693C004221FEF7E3FC0B490B4BC0E900130B4B58
:10694C0083600B23838100210120C2E90401AB6B1E
:10695C0000221C615A6138BDF8E4032001730B005E
:10696C0018730B000E33CDAB34126DE6ECDE050064
:10697C0010F8012B11F8013B012A28BF9A42F7D0DD
:10698C00D01A7047034611F8012B03F8012B002A8B
:10699C00F9D17047034613F8012B002AFBD1181AC2
:1069AC000138704710B50139034632B111F8014F67
:1069BC0003F8014B013A002CF7D11A440021934201
:1069CC0000D110BD03F8011BF9E700002DE9F843D5
:1069DC00DFF8B8800646D8F800001F460D469146F1
:1069EC0000F056F8254B1C6834B9254C1C60254B1F
:1069FC0013B11B68C4F8883063681F2B07DDD8F807
:106A0C00000000F047F84FF0FF30BDE8F8834EB3BC
:106A1C00D4F8880088B91C4B23B9D8F8000000F0D2
:106A2C0038F8F0E74FF48470FEF740FC0028F4D0FF
:106A3C000023C0E94033C4F88800636840F8239011
:106A4C0001229A4000EB8301D0F800311343C0F8C7
:106A5C000031022EC1F8807002BFD0F8043113430C
:106A6C00C0F804316368D8F800005A1C0233626025
:106A7C0044F8235000F00EF80020C6E7E8E70320A6
:106A8C005CE7032000000000B9520B005CE503201A
:106A9C0070477047704700001D400B0059400B00B9
:106AAC0081400B0085400B000000000043616C6CC2
:106ABC00206F6E2070757265207669727475616CCA
:106ACC0000574C414E5F5345435F554E5345430071
:106ADC00574C414E5F5345435F57455000574C410F
:106AEC004E5F5345435F57504100574C414E5F53E7
:106AFC0045435F5750413200574C414E5F5345431D
:106B0C005F5750415F454E544552505249534500D2
:106B1C00574C414E5F5345435F575041325F454E92
:106B2C005445525052495345004E2F4100574C4149
:106B3C004E5F4349504845525F41455300574C41C5
:106B4C004E5F4349504845525F544B495000574C97
:106B5C00414E5F4349504845525F4145535F544B4A
:106B6C004950005363616E204172676F6E20666FEF
:106B7C0072205769466920496E666F726D6174693F
:106B8C006F6E200A00697020616464726573733AD9
:106B9C00202573200A0043726564656E7469616C0C
:106BAC007320666F722025642041636365737320C4
:106BBC00506F696E747320466F756E64200A0041C5
:106BCC00502564202D20737369643A202573200AA4
:106BDC000041502564202D206D61633A2025303210
:106BEC00583A253032583A253032583A25303258F6
:106BFC003A253032583A25303258200A0041502577
:106C0C0064202D2073656375726974793A2025644C
:106C1C002028736563757269747920257329200A9D
:106C2C000041502564202D206369706865723A20FC
:106C3C0020202564202863697068657220257329DB
:106C4C00200A0A004D6F6973747572652072656154
:106C5C0064696E67206973202569200A0048617396
:106C6C002043726564656E7469616C73203D2025E8
:106C7C00690A0A00646463494F543230323000446C
:106C8C004443494F5400537576613966696A69000B
:106C9C00506172656E74486F75736500436F6E6EEC
:106CAC00656374696E6720746F204D5154542E2E99
:106CBC002E20004572726F7220436F64652025731D
:106CCC000A005265747279696E67204D51545420D4
:106CDC00636F6E6E656374696F6E20696E2035200C
:106CEC007365636F6E64732E2E2E0A004D515454CF
:106CFC0020436F6E6E6563746564210A0050696E83
:106D0C0067696E67204D515454200A0044697363BF
:106D1C006F6E6E656374696E67200A0073616E74C2
:106D2C0065643700696F2E61646166727569742ED3
:106D3C00636F6D0061696F5F664F57653736724CD4
:106D4C00474A7277434E674B6A646D5842597A785A
:106D5C00745670570073616E746564372F66656581
:106D6C0064732F73757661627574746F6E6F6E6F6A
:106D7C0066660073616E746564372F66656564734F
:106D8C002F736F696C656E74477265656E000000D9
:106D9C00000000000000000019470B00A5470B0085
:106DAC00C5460B0073470B00B3470B00D9460B00CD
:106DBC001B470B0044726F7070656420612070611A
:106DCC00636B657400556E6B6E6F776E20657272B7
:106DDC006F72004D515454004661696C65642074A7
:106DEC006F2073756273637269626500436F6E6EB8
:106DFC00656374696F6E206661696C6564005468C4
:106E0C00652053657276657220646F6573206E6FB2
:106E1C007420737570706F727420746865206C6563
:106E2C0076656C206F6620746865204D5154542033
:106E3C0070726F746F636F6C2072657175657374AB
:106E4C0065640054686520436C69656E74206964E0
:106E5C00656E74696669657220697320636F7272FE
:106E6C00656374205554462D3820627574206E6FFE
:106E7C007420616C6C6F776564206279207468652E
:106E8C002053657276657200546865204D515454D8
:106E9C00207365727669636520697320756E6176FF
:106EAC0061696C61626C6500546865206461746131
:106EBC0020696E207468652075736572206E616D33
:106ECC0065206F722070617373776F7264206973C1
:106EDC00206D616C666F726D6564004E6F7420611D
:106EEC007574686F72697A656420746F20636F6E55
:106EFC006E656374004578636565646564207265CE
:106F0C00636F6E6E6563742072617465206C696D5D
:106F1C0069742E20506C65617365207472792061E0
:106F2C006761696E206C617465722E00596F7520F3
:106F3C0068617665206265656E2062616E6E65645F
:106F4C002066726F6D20636F6E6E656374696E6719
:106F5C002E20506C6561736520636F6E7461637471
:106F6C0020746865204D5154542073657276657297
:106F7C002061646D696E6973747261746F722066DE
:106F8C006F72206D6F72652064657461696C732E0D
:106F9C0000000000000000000000000000000000E5
:106FAC0000000000A1400B00A1400B00A1400B0011
:106FBC00A1400B00A1400B00E46D0B00F86D0B0021
:106FCC00D16D0B000A6E0B004F6E0B00946E0B0014
:106FDC00B46E0B00E76E0B00016F0B00386F0B00EB
:106FEC0000000000000000000F4D0B00114D0B00C5
:106FFC00000000000000000087530B007D530B00C5
:10700C0073530B0069530B005D530B0051530B0072
:10701C00D5620B00DD620B0045530B003D530B009A
:10702C0033530B0029530B000D630B0000000000C1
:10703C000000000065540B0067540B008F550B00CB
:10704C0061550B0000000000000000006170700032
:10705C0025592D256D2D25645425483A254D3A2565
:10706C0053257A0061736374696D6500000000003C
:10707C0000000000D9580B00C9580B00CB580B006E
:10708C000000000000000000EB590B00535A0B00ED
:10709C00295A0B0005560B001B5A0B00ED590B001F
:1070AC00FD590B004D5A0B000D5A0B00E5590B0006
:1070BC000000000000000000F55A0B00615B0B00A3
:1070CC00395B0B0005560B00095B0B00255B0B00B5
:1070DC00175B0B00335B0B00F75A0B00FB5A0B00D2
:1070EC000000000000000000995B0B00E35B0B004C
:1070FC00BB5B0B009B5B0B00C35B0B00CB5B0B0008
:10710C00D35B0B00DB5B0B00776972696E670072F7
:10711C00656376206572726F72203D2025640000D5
:10712C000000000000000000B15C0B00D55C0B00FF
:10713C00BF610B00E35C0B00B55C0B0000000000B2
:10714C000000000059570B0071570B002D5C0B0011
:10715C00475C0B0055600B00715C0B00CB5E0B00A9
:10716C00A55C0B005D5F0B009D5D0B00F95E0B00D9
:10717C0009610B00995E0B00A75C0B00595C0B00BE
:10718C00E95C0B007D5D0B000000000000000000BE
:10719C0051620B0047620B003D620B00F3610B0068
:1071AC0031620B0025620B00D5620B00DD620B0017
:1071BC0019620B0011620B0007620B00FD610B00E2
:1071CC000D630B00000000000000000095620B0036
:1071DC009F620B00A9620B00B3620B00BD620B0037
:1071EC00C9620B00D5620B00DD620B00E5620B007F
:1071FC00F1620B00F9620B0003630B000D630B00D3
:10720C0000537431395F53705F6D616B655F7368E8
:10721C00617265645F7461670000000068720B0046
:10722C000D720B00C8720B003C720B00EC720B0061
:10723C004E31305F5F637878616269763131375FE8
:10724C005F636C6173735F747970655F696E666F91
:10725C00450000000000000030720B00B5660B000A
:10726C00C9660B005D680B005D680B0033670B0093
:10727C0075660B001B670B00DD660B00A7660B0029
:10728C00C8720B0098720B0030720B004E31305FDD
:10729C005F637878616269763132305F5F73695F02
:1072AC00636C6173735F747970655F696E666F454B
:1072BC0000000000000000008C720B005D670B00EA
:1072CC0071670B005D680B005D680B0033670B008A
:1072DC0075660B0031680B00BD670B0085670B00F2
:1072EC0068720B00F4720B00537439747970655F1B
:1072FC00696E666F005245454E54206D616C6C6F23
:10730C006320737563636565646564002F6D6E74CB
:10731C002F776F726B73706163652F776F726B73FE
:10732C00706163652F4743432D31302D7069706553
:10733C006C696E652F6A656E6B696E732D4743437E
:10734C002D31302D706970656C696E652D34385F28
:10735C0032303230313132345F31363036313830D0
:10736C003634312F7372632F6E65776C69622F6EB2
:10737C0065776C69622F6C6962632F7374646C69D6
:10738C00622F72616E642E630000000031460B00A8
:10739C0091530B00B9530B00F5550B002D570B00F7
:1073AC003D570B0085570B0081620B00E5630B000A
:0473BC0000000000CD
:1073C000040000001400000003000000474E5500B8
:1073D00035CF7D5D3A2131DACFB757C5EA57383D11
:0473E000B05709D0C9
:0473E40000000000A5
:1073E8000E00000070700B00FCE403200000000099
:1073F8000000000000000000000000000000000085
:107408000000000000000000000000000000000074
:107418000000000000000000000000000000000064
:107428000000000000000000000000000000000054
:107438000000000000000000000000000000000044
:10744800000000000000000000000000ECE703203E
:10745800FFFFFFFF00000102030405060708090AF1
:107468000B0C0D0E0F101112131415161718191AEC
:087478001B1C1D1E1F20280033
:0474800078563412F4
:04000003B000401CED
:00000001FF
