:02000002B0004C
:1040000000400B00FC520B00000006000C000502F3
:084010000401A60F00000000EE
:04401800C44F0B0086
:10401C0009480A49884208B505D0094A824202D0AB
:10402C00121A00F017FF0748074A0021121A00F075
:10403C001FFF014808BD00BF3CE6032068520B007F
:10404C00A8E60320A8E60320EDE7032070B5074E91
:10405C00074C00F05BFBA41BA4080025AC4200D16C
:10406C0070BD56F8043B98470135F7E714520B0026
:10407C0038520B0000F013B808B500F021F8BDE879
:10408C00084000F0FBBA00F0EBB900F0F1B9007891
:10409C00B0FA80F04009704701230370704708B5EF
:1040AC000021052000F02AFE00F038FC4FF41651D8
:1040BC0000F028FCBDE8084044F6206000F0B2BADD
:1040CC0038B5052000F02BFE114D0446B8B92B680D
:1040DC00012B09D100F022FC0E4900F06BFA4FF4D1
:1040EC00FA602C6000F09EFA00F018FC0A4900F00F
:1040FC0061FABDE838404FF47A7000F093BA00F0E2
:10410C000DFC064900F056FA01232B60F1E700BFC5
:10411C00B4E60320D84F0B00E54F0B00FA4F0B0011
:10412C00044B0022C3E90022A2F580329A600220DF
:10413C0000F00AB9A8E6032008B5024B1B689B687F
:10414C00019308BD6802030008B5024B1B68DB68CD
:10415C00019308BD6802030008B5024B1B689B68FD
:10416C00019308BD2C02030008B5024B1B68DB68E9
:10417C00019308BD2C02030008B5024B1B685B6958
:10418C00019308BD2C02030008B5024B1B685B6849
:10419C00019308BD1802030008B5024B1B685B694C
:1041AC00019308BD1802030008B5024B1B685B6C39
:1041BC00019308BD4802030008B5024B1B685B69FC
:1041CC00019308BD6402030008B5024B1B68DB6851
:1041DC00019308BD3C02030008B5024B1B681B6928
:1041EC00019308BD3C02030008B5024B1B685B69D8
:1041FC00019308BD3C02030008B5024B1B689B6988
:10420C00019308BD3C02030008B5024B1B68DB6937
:10421C00019308BD3C02030008B5024B1B681B6AE6
:10422C00019308BD3C02030008B5024B1B689B6A56
:10423C00019308BD3C02030008B5024B1B681B6CC4
:10424C00019308BD3C02030008B5024B1B681B6AB6
:10425C00019308BD2802030008B5024B1B685B6A7A
:10426C00019308BD2802030008B5024B1B689B6A2A
:10427C00019308BD2802030008B5024B1B68DB6ADA
:10428C00019308BD2802030008B5024B1B681B6B89
:10429C00019308BD2802030008B5024B1B685B6B39
:1042AC00019308BD2802030008B5024B1B681B6C68
:1042BC00019308BD2802030008B5024B1B68DB699B
:1042CC00019308BD3002030008B5024B1B681B6A42
:1042DC00019308BD3002030008B5024B1B681B6834
:1042EC00019308BD4C02030008B5024B1B685B68C8
:1042FC00019308BD4C02030008B5024B1B681B69F7
:10430C00019308BD4C02030008B5024B1B685B69A6
:10431C00019308BD4C02030008B5024B1B689B6956
:10432C00019308BD4C02030008B5024B1B68DB6906
:10433C00019308BD4C02030008B5024B1B681B6AB5
:10434C00019308BD4C02030008B5024B1B685B6867
:10435C00019308BD2002030008B5024B1B685B6982
:10436C00019308BD2002030008B5034B1B68D3F86A
:10437C008830019308BD00002002030008B5034BF0
:10438C001B68D3F89430019308BD00002002030091
:10439C0008B5024B1B685B68019308BD4002030023
:1043AC0008B5024B1B689B68019308BD40020300D3
:1043BC0008B5024B1B68DB68019308BD4002030083
:1043CC0008B5024B1B681B69019308BD4002030032
:1043DC0008B5024B1B685B69019308BD40020300E2
:1043EC0008B5024B1B689B69019308BD4002030092
:1043FC0008B5024B1B68DB69019308BD4002030042
:10440C0008B5024B1B681B6A019308BD40020300F0
:10441C0008B5024B1B681B6B019308BD40020300DF
:10442C0008B5024B1B685B6B019308BD400203008F
:10443C0008B5024B1B681B6C019308BD40020300BE
:10444C0008B5024B1B685B6C019308BD400203006E
:10445C0008B5024B1B68DB6B019308BD44020300DB
:10446C0008B5024B1B681B68019308BD1C020300B6
:10447C0008B5024B1B685B68019308BD1C02030066
:10448C0008B5024B1B681B6C019308BD1C02030092
:10449C0008B5024B1B685B6C019308BD1C02030042
:1044AC00002240681146FFF7ABBF0022406811465E
:1044BC00FFF7B6BF40680022FFF7AABF4068002292
:1044CC0081F00101FFF794BF002340681A4619469A
:1044DC00FFF786BF002340681A461946FFF778BFDE
:1044EC00002240681146FFF76BBF0022406811465E
:1044FC00FFF756BF406800220221FFF759BF002387
:10450C0040681A46FFF744BF024B03225A60024A26
:10451C001A607047B8E6032014500B0010B504461F
:10452C0008462170FFF7C8FE00236360204610BDCB
:10453C00054B02221A60054B054A9A600020C3E91C
:10454C000000FFF701BF00BFCCE60320C0E603204C
:10455C000000FFFF024800230360FFF725BE00BFE9
:10456C00D0E60320F8B506460D468F180024BD4250
:10457C000CD0336815F8011B9B6830469847031E16
:10458C0001DB1C44F3E7002C08BF1C462046F8BD99
:10459C0013B50446084659B1019100F09FFC2368FD
:1045AC000199DB680246204602B0BDE8104018476E
:1045BC0002B010BD08B5FFF7EBFF08BD03689B68A0
:1045CC00184730B58BB00023012A8DF8243098BFE2
:1045DC000A2209AC0D46B1FBF2F101FB125303F0B8
:1045EC00FF03092B94BF30333733DBB2AA4204F8F4
:1045FC00013DEFD92146FFF7CBFF0BB030BD0000DA
:10460C00014B024A1A607047D4E6032048500B0055
:10461C00024B1A68024B1A60704700BF3CE603203D
:10462C00D8E603200021FFF797BE0000014B0022C3
:10463C009A607047DCE60320014B1860704700BF9E
:10464C0040E6032008B50B4B43B100F067F9036853
:10465C001B699847002801DDAFF30080064B43B17E
:10466C0000F08CFB03681B699847002801DDAFF351
:10467C00008008BD000000000000000008B5FFF736
:10468C00E1FFFFF789FD014B186008BD40E70320EF
:10469C000548064A064908B5121A00F0DBFB054B23
:1046AC00054A1A6008BD00BF00F4032004F403207F
:1046BC0064520B0000F403201E1C279A07B500233C
:1046CC0000931A466FF07701FFF758FE03B05DF8C0
:1046DC0004FB000007B543880A2B08D0502B0BD1E4
:1046EC00094B1B684BB103B05DF804EB1847FFF79F
:1046FC00E5FF03B05DF804FB002300931A466FF04E
:10470C007701FFF73BFEF4E7F0E6032010B5124803
:10471C000021FFF7BDFE114B1A68114B9A42114B49
:10472C000CBF012200221A7001D0FFF7B1FFFFF776
:10473C002BFD044600F0A4FB0B4B13B12046AFF34A
:10474C00008000210848FFF783FEBDE810400748B1
:10475C000021FFF709BE00BF45460B0000F4032003
:10476C001E1C279AECE6032000000000E1460B001B
:10477C00704710B518210446FFF787FC204610BD82
:10478C00F0B5037D062B8DB00E4600F104074FF0FB
:10479C00000412D000F1080515F8011D0A2230465C
:1047AC00FFF70FFFAF42044419D0002CF4D02E2198
:1047BC003046FFF703FF0444EEE72F236A463946E1
:1047CC000A208DF80040FFF7F7FC684600F086FBE6
:1047DC0033680246DB6869463046984704462046F3
:1047EC000DB0F0BD10B5054B0446112240F8043B4A
:1047FC00002100F03DFB204610BD00BF70500B00A7
:10480C000346074A10B543F8042B01F1100251F886
:10481C00044B43F8044B9142F9D10A781A7010BD3D
:10482C0070500B0010B59DF8084044EA032343EA8E
:10483C00024242EA016104234160037510BD00008D
:10484C0007B5064B0360CB7800938B784A780978D0
:10485C00FFF7E8FF03B05DF804FB00BF70500B00DE
:10486C00417470477047704708B50021007CFFF712
:10487C0053FD40EAE07008BD08B50121007CFFF74C
:10488C004BFD40EAE07008BD08B5007CFFF73CFD2D
:10489C0020EAE07008BD08B5007CFFF72DFD20EA8A
:1048AC00E07008BD13B50446007C0191FFF72CFDA8
:1048BC000028019901DC607C20B1207CFFF734FDDD
:1048CC0020EAE07002B010BD007CFFF735BD10B5DA
:1048DC0014210446FFF7D9FB204610BD10B54FF448
:1048EC007A73044608460021C4E90113044B236083
:1048FC000123207463741146FFF7EEFC204610BDB3
:10490C0084500B00007C0022FFF7EEBC10B5142283
:10491C000446002100F0ACFA204610BD10B50F4C37
:10492C0088B003A8FFF7F2FF2178BFF35B8F11F07B
:10493C0001010FD120460191FFF7A9FB019948B164
:10494C0003AA0748FFF7CAFF2046FFF7A5FB054857
:10495C0000F07AFA024808B010BD00BFF4E603205C
:10496C00F8E6032071480B0070474174704708B596
:10497C00007CFFF759FC20EAE07008BD08B5007C0C
:10498C00FFF72AFC20EAE07008BD08B5007CFFF7B1
:10499C0033FC40EAE07008BD08B5007CFFF724FC4E
:1049AC0040EAE07008BD007CFFF72EBC37B5457CB3
:1049BC0004462DB1207C03B0BDE83040FFF704BCA9
:1049CC00007C0191FFF730FC00280199F2DC2846AD
:1049DC0003B030BD10B514210446FFF756FB20463A
:1049EC0010BD000010B54FF47A730446084611460A
:1049FC000022C4E90123044B236001232074637457
:104A0C00FFF71AFC204610BDB4500B007047F8B5E8
:104A1C00064615460C468F18BC4206D0336814F86F
:104A2C00011B9B6830469847F6E72846F8BD007C8A
:104A3C000022FFF709BC007C0021FFF70DBC007CB5
:104A4C000021FFF711BC007C0021FFF715BC007C96
:104A5C000021FFF719BC10B514210446FFF715FB14
:104A6C00204610BD38B5044615464FF47A73002223
:104A7C00C4E90123094B2174084623602946FFF73A
:104A8C0013FCBF3008D16B69DB0705D56868FFF7ED
:104A9C00EFFCE868FFF7ECFC204638BDE4500B0057
:104AAC00002240681146FFF78BBC0022406811467B
:104ABC00FFF7A6BC002240681146FFF7B1BC406866
:104ACC000022FFF7A5BC4068002281F00101FFF72E
:104ADC008FBC002340681A461946FFF781BC00239F
:104AEC0040681A461946FFF773BC0022406811460D
:104AFC00FFF756BC406800220221FFF759BC002387
:104B0C0040681A46FFF744BC024B04225A60024A22
:104B1C001A6070470CE703200C510B00002340680F
:104B2C001A46FFF735BC406800220221FFF740BC53
:104B3C00002240681146FFF733BC00224068114642
:104B4C00FFF73EBC002340681A461946FFF740BCED
:104B5C00002340681A461946FFF742BC4068002102
:104B6C00FFF766BC40680021FFF76ABC4068002272
:104B7C0081F00101FFF73CBC40680022FFF748BC04
:104B8C00002240681146FFF74BBC002240681146DA
:104B9C00FFF736BC2DE9F04395B014460D46074699
:104BAC00FFF720FE00211C220DA8009100F060F9F7
:104BBC0040230C9320466B460CAA0021FFF7C4FA45
:104BCC00044600284BD1024601216868FFF7F8FB28
:104BDC000221804622466868FFF7F2FB009E814660
:104BEC002146002E3BD0002939D17368022B03D00B
:104BFC000A2B11D0F669F4E7B8F1000FFAD07169FD
:104C0C0006A8043107ADFFF71BFE0FCD3C1D0FC4EA
:104C1C002B6823704146EDE7B9F1000FEAD07469B7
:104C2C00102201A800F024F906238DF8143001ADF0
:104C3C0004F108031834186859682A4603C208336B
:104C4C00A3421546F7D101A906A807ADFFF7D8FD79
:104C5C000FCD3C1D0FC42B6823704946CAE7009842
:104C6C00FFF76AFA384615B0BDE8F083024B034AE9
:104C7C001A6000225A60704714E7032048510B0059
:104C8C00232813B502D9002002B010BDA0F10B03EC
:104C9C00022B1AD8174C2178BFF35B8F11F001014E
:104CAC000BD120460191FFF7F2F9019928B1124876
:104CBC00FFF734FC2046FFF7EFF90F4B1878FFF79E
:104CCC0003FB0028DFD10120DEE7012809D800F022
:104CDC0095F80021007CFFF7DFFA80F00100C0B2EC
:104CEC00D2E709380128EED800F048F8007CFFF72D
:104CFC0093FAF2E71CE7032020E70320232838B5BA
:104D0C0004460D460AD8FF2908D0FFF7B9FF28B191
:104D1C0029462046BDE83840FFF71EBA38BD10B50D
:104D2C000446FFF721FA031FDBB2012B08D92046FA
:104D3C00FFF7A6FF20B12046BDE81040FFF71CBAD4
:104D4C00002010BD7047000038B5044614252A46D3
:104D5C00002100F08DF82580402507492581284643
:104D6C00258200F06FF804496060284600F06AF86C
:104D7C00E060204638BD00BF7C510B0030B50E4DB5
:104D8C002978BFF35B8F11F0010487B011D128464D
:104D9C00FFF77DF968B101A8FFF7D6FF01AA2146FC
:104DAC000648FFF71FFE2846FFF776F9044800F087
:104DBC004BF8024807B030BD28E703202CE703204E
:104DCC00514D0B007047000038B50A4B03600123AE
:104DDC00044643610849202000F034F82025606027
:104DEC000549A560284600F02DF8C4E903052046C6
:104DFC0038BD00BF180001007C510B0030B50E4DC2
:104E0C002978BFF35B8F11F0010487B011D12846CC
:104E1C00FFF73DF968B16846FFF7D6FF6A462146B1
:104E2C000648FFF71FFE2846FFF736F9044800F046
:104E3C000BF8024807B030BD44E7032048E70320D5
:104E4C00D14D0B00FFF71FB9002301461A46184637
:104E5C0000F04CB80A44914200F1FF3300D1704786
:104E6C0010B511F8014B03F8014F9142F9D110BD67
:104E7C0002440346934200D1704703F8011BF9E743
:104E8C0038B5104B1D68AB6B0446B3B91820FFF74F
:104E9C00E7FA0246A86320B90B4B0C484221FFF7F6
:104EAC00EFFA0B490B4BC0E900130B4B83600B2340
:104EBC00838100210120C2E90401AB6B00221C613B
:104ECC005A6138BD40E603207D510B0094510B0014
:104EDC000E33CDAB34126DE6ECDE0500034613F851
:104EEC00012B002AFBD1181A013870472DE9F84321
:104EFC00DFF8B8800646D8F800001F460D469146EC
:104F0C0000F056F8254B1C6834B9254C1C60254B19
:104F1C0013B11B68C4F8883063681F2B07DDD8F801
:104F2C00000000F047F84FF0FF30BDE8F8834EB3B7
:104F3C00D4F8880088B91C4B23B9D8F8000000F0CD
:104F4C0038F8F0E74FF48470FFF78AFA0028F4D0B1
:104F5C000023C0E94033C4F88800636840F823900C
:104F6C0001229A4000EB8301D0F800311343C0F8C2
:104F7C000031022EC1F8807002BFD0F80431134307
:104F8C00C0F804316368D8F800005A1C0233626020
:104F9C0044F8235000F00EF80020C6E7E8E70320A1
:104FAC005CE70320000000006D440B00A4E6032026
:104FBC0070477047704700001D400B0059400B00B4
:104FCC0081400B0085400B00000000005761726DA2
:104FDC00696E672055700A0A004E6F206F626A6511
:104FEC00637420696E2073696768740A0A004F62E3
:104FFC006A6563742064657465637465640A0A0089
:10500C0000000000000000000B450B0001450B00E8
:10501C00F7440B00ED440B00E1440B00D5440B00AE
:10502C00694B0B00714B0B00C9440B00C1440B00C6
:10503C00B7440B00AD440B00A14B0B00617070002A
:10504C0025592D256D2D25645425483A254D3A2595
:10505C0053257A0061736374696D6500000000006C
:10506C00000000008D470B007D470B007F470B00B5
:10507C00000000000000000073480B00DB480B0030
:10508C00B1480B0071450B00A3480B0075480B0091
:10509C0085480B00D5480B0095480B006D480B005C
:1050AC00000000000000000075490B00E1490B00F6
:1050BC00B9490B0071450B0089490B00A5490B0040
:1050CC0097490B00B3490B0077490B007B490B0048
:1050DC000000000000000000194A0B00634A0B009E
:1050EC003B4A0B001B4A0B00434A0B004B4A0B007C
:1050FC00534A0B005B4A0B0000000000000000004C
:10510C000B4B0B00014B0B00F74A0B00AD4A0B008D
:10511C00EB4A0B00DF4A0B00694B0B00714B0B0089
:10512C00D34A0B00CB4A0B00C14A0B00B74A0B0009
:10513C00A14B0B000000000000000000294B0B00ED
:10514C00334B0B003D4B0B00474B0B00514B0B00F3
:10515C005D4B0B00694B0B00714B0B00794B0B003B
:10516C00854B0B008D4B0B00974B0B00A14B0B0091
:10517C00005245454E54206D616C6C6F6320737505
:10518C0063636565646564002F6D6E742F776F7251
:10519C006B73706163652F776F726B73706163658E
:1051AC002F4743432D31302D706970656C696E65E6
:1051BC002F6A656E6B696E732D4743432D31302D0D
:1051CC00706970656C696E652D34385F32303230C1
:1051DC00313132345F313630363138303634312F6C
:1051EC007372632F6E65776C69622F6E65776C696D
:1051FC00622F6C6962632F7374646C69622F7261C5
:10520C006E642E63000000002D410B0015450B0051
:10521C003D450B0061450B000D460B001D460B0078
:10522C0039460B00154B0B00794C0B0000000000AD
:04523C00000000006E
:10524000040000001400000003000000474E550059
:10525000A23B890BB1624F3104796A7974F64DCA69
:045260007D9E82CFDE
:045264000000000046
:1052680060500B0044E6032000000000000000002E
:105278000000000000000000000000000000000026
:105288000000000000000000000000000000000016
:105298000000000000000000000000000000000006
:1052A80000000000000000000000000000000000F6
:1052B80000000000000000000000000000000000E6
:0C52C8000000000000000000ECE70320E4
:1052D400FFFFFFFF00000102030405060708090A97
:1052E4000B0C0D0E0F101112131415161718191A92
:0852F4001B1C1D1E1F202800D9
:0452FC00785634129A
:04000003B000401CED
:00000001FF
