:02000002B0004C
:1040000000400B0018760B00000006000C000502B3
:084010000401A60F00000000EE
:04401800DC670B0056
:10401C0009480A49884208B505D0094A824202D0AB
:10402C00121A02F019FB0748074A0021121A02F073
:10403C0021FB014808BD00BFCCE1032068710B00D7
:10404C0054E6032054E60320EDE7032070B5074E39
:10405C00074C01F01FFBA41BA4080025AC4200D1A7
:10406C0070BD56F8043B98470135F7E718710B0003
:10407C003C710B0000F030B808B500F061F8BDE8F9
:10408C00084001F0BFBA01F087B801F085B801F023
:10409C008BB8000008B5034A03490C2000F0E0FF80
:1040AC00FEE700BF8D4D0B00F0670B000078B0FAF7
:1040BC0080F0400970470123037070470EB403B5BC
:1040CC0003AB002153F8042B019301F016FA02B054
:1040DC005DF804EB03B0704710B5154C3C2220463C
:1040EC00022100F07BFB00221146204600F0F4FD7B
:1040FC00204600F003FB40F2DC5001F041FA204670
:10410C000C4C00F083FA2088012102F0ADF80A4B28
:10411C000021188802F0A8F8084B0021188802F03A
:10412C00A3F820880021BDE8104002F0AEB800BF13
:10413C0088E60320D0E10320D4E10320CCE1032066
:10414C0038B52D4B2D4C188802F0B8F82C4B20604C
:10415C00188802F0B3F82B4B246818602A4B012CFA
:10416C001A683DD102B91C60284D00283DD1284A5F
:10417C001368012C03F1010313600BD12B6801337D
:10418C002B60244B2146188802F07FF8224B1A68CA
:10419C0002B91C604FF4FA7001F0F2F91F480221C9
:1041AC0000F09DFD1D48012100F09EFD0F221B48D3
:1041BC00012100F091FD1A491848FFF77FFF2A688A
:1041CC0018491648FFF77AFF144800F097FA40F2A6
:1041DC00DC5001F0D5F9BDE83840104800F016BAB3
:1041EC00012A04BF00221A60BEE70A4B002118887E
:1041FC0002F04BF8CEE700BFD4E10320B0E6032079
:10420C00CCE1032080E60320ACE6032084E6032007
:10421C007CE60320D0E10320B4E6032088E60320EB
:10422C0005680B0014680B0008B5094801F0DAFEAC
:10423C000848042100F0D4F9074B0022C3E90022FE
:10424C00A2F580329A60BDE80840022000F018BF49
:10425C0060E6032088E6032054E60320F0B5457E93
:10426C00BDF81440022D69D0032D00F09980012D6A
:10427C006CD10589D2432A4412B2002A5DDBB0F915
:10428C000850954259DD0029BEBF5B181BB20021B6
:10429C00B0F90A00CD188542C4BF431A1BB2002BDB
:1042AC004BDDC1F3C400DFF820C102EBC01211F0EA
:1042BC000701DBB20CEB02001AD0C1F10805404E2D
:1042CC00EDB2AB42775D3FBFA5EB030EFF2646FA7E
:1042DC000EF637401CF80260012C0CBF3E43BE4367
:1042EC00AB420CF8026028D308390B44DBB28030A7
:1042FC00072B19D9012C4FF0FF3518BF0025EDB253
:10430C0000F180011A46083AD2B2072A01F8805C03
:10431C0001F18001F7D8A3F10802C2F3C402013203
:10432C0000EBC21003F007033BB1264AD25C0378C2
:10433C00012C0CBF134393430370F0BD4589D2434A
:10434C002A44CD180189491B12B209B2002AF4DBA8
:10435C00B0F90A509542F0DD0029BEBF5B181BB2C4
:10436C000021B0F90870CE18BE42C4BF6B1A1BB244
:10437C00002BE2DDD010802510FB05111248014402
:10438C0002F0070001228240012CD2B20B440CD166
:10439C008B42D2D011F8010B104301F8010CF7E756
:1043AC00CD184189491B09B267E7D243D2B28B427F
:1043BC00C3D011F8010B104001F8010CF7E700BF56
:1043CC00E0E10320D8E10320E8E10320F0B5457ECD
:1043DC00BDF81440022D34D0032D00F09B80012D2C
:1043EC0037D1D5180289521B12B20029C0F2918024
:1043FC00B0F90A508D4240F38C80002ABEBF9B1846
:10440C001BB20022B0F90870D618BE42C4BFAB1A5A
:10441C001BB2002B7DDDC810802510FB0522454802
:10442C00024401F0070001218140012CC9B2134460
:10443C0075D19A426DD012F8010B084302F8010CA9
:10444C00F7E70589C9432944D5184289521B09B29B
:10445C0012B200295DDBB0F908508D4259DD002AFB
:10446C00BEBF9B181BB20022B0F90A00D5188542BA
:10447C00C4BF831A1BB2002B4BDDC2F3C400DFF8A0
:10448C00B4C001EBC01112F00702DBB20CEB01005F
:10449C001AD0C2F10805284EEDB2AB42775D3FBF92
:1044AC00A5EB030EFF2646FA0EF637401CF801600A
:1044BC00012C0CBF3E43BE43AB420CF8016028D329
:1044CC00083A1344DBB28030072B19D9012C4FF07A
:1044DC00FF3518BF0025EDB200F180011A46083AED
:1044EC00D2B2072A01F8805C01F18001F7D8A3F160
:1044FC000802C2F3C402013200EBC21003F007033E
:10450C003BB10E4AD25C0378012C0CBF134393438E
:10451C000370F0BD4589C943294409B265E7C94315
:10452C00C9B29A42F5D012F8010B084002F8010CFE
:10453C00F7E700BFE8E10320E0E10320D8E1032026
:10454C0070470000F8B50D1E064614461F462DDBBD
:10455C0000F0CFFBA84229DD002C27DB304600F011
:10456C00CBFBA04222DD304600F0C1FB02281ED05E
:10457C00032825D0012804D13389E2431A442C4660
:10458C0015B2002C2246B8BFE21DD210802112FBBE
:10459C0001550E49012204F007044B5702FA04F4AA
:1045AC0064B297420CBF2343A3434B55F8BD3189EA
:1045BC0072890139E4434D1B14442DB224B2E0E757
:1045CC007389013B5B1B25461CB2DAE7E8E103204B
:1045DC0010B524210446FFF75AFD204610BD0000FB
:1045EC0038B5402204460D46802100F0A7FA064B50
:1045FC002360FF2384F8213063774FF6FF73E38346
:10460C0084F82050204638BD28680B0002484FF42F
:10461C008062002102F02EB8E8E1032013B50B4CA8
:10462C002178BFF35B8F11F001010BD12046019172
:10463C00FFF73CFD019928B1054800F021FE20460A
:10464C00FFF739FD024802B010BD00BFB8E60320E9
:10465C00BCE6032007B590F8223043B10191FFF777
:10466C00DDFF019903B05DF804EB00F0BDBE0B4615
:10467C00817F407F012203B05DF804EB01F031BE75
:10468C0038B590F91D30013304460D461DD090F914
:10469C002100012180B201F0F8FD94F91F000021E6
:1046AC0080B201F0F2FD94F92100002180B201F0FA
:1046BC00ECFD29462046FFF7CDFF94F9210001219E
:1046CC00BDE8384080B201F0E0BD01F087FE94F9FE
:1046DC001B1001F0C5F901F081FE036800219B68F5
:1046EC00984701F07BFE036829469B68984701F0C8
:1046FC0075FEBDE8384001F0BAB90000F8B52121CB
:10470C000446FFF7BDFF00212046FFF7B9FF7F21CC
:10471C002046FFF7B5FF22212046FFF7B1FF00210D
:10472C002046FFF7ADFF07212046FFF7A9FF94F9BC
:10473C001D30294F01332AD094F92100012180B278
:10474C0001F0A3FD94F91F00012180B201F09DFD41
:10475C0094F92100002180B201F097FD012000F0B6
:10476C000FFB4FF48065013D17F8011B2046ADB2DD
:10477C00FFF770FF002DF6D1012000F001FB94F93A
:10478C0021000121BDE8F84080B201F07EBD00257A
:10479C0001F024FE94F91B1001F062F901F01EFEE9
:1047AC00036840219B68984705F11006B6B201F0EA
:1047BC0015FE0368795D9B6898476B1C9DB2AE42F1
:1047CC00F5D101F00BFE01F052F9B6F5806F00D176
:1047DC00F8BD3546DCE700BFE8E1032038B590F9B9
:1047EC001D300177013304460D46C27600F0C980B6
:1047FC0090F91F00012180B201F036FD94F92100DF
:10480C00012180B201F030FD94F82230002B00F031
:10481C00A68094F92100012180B201F036FDFFF74A
:10482C00FDFE012100F04AFDFFF7F8FE102100F01B
:10483C00B5FDFFF7F3FE002100F054FDFFF7EEFE8F
:10484C0000F028FD94F92000012180B201F00CFD4C
:10485C0094F92000012180B201F017FD012000F035
:10486C008FFE94F92000002180B201F00EFD0A2089
:10487C0000F086FE94F92000012180B201F005FDC4
:10488C002046AE21FFF7FCFE2046D521FFF7F8FEAF
:10489C0020468021FFF7F4FE2046A821FFF7F0FE0A
:1048AC0020463F21FFF7ECFE2046D321FFF7E8FE20
:1048BC0020460021FFF7E4FE20464021FFF7E0FEF2
:1048CC008D212046FFF7DCFE012D0CBF1021142199
:1048DC002046FFF7D5FE20462021FFF7D1FE2046CB
:1048EC000021FFF7CDFE2046A121FFF7C9FE20468F
:1048FC00C821FFF7C5FE2046DA21FFF7C1FE20468E
:10490C001221FFF7BDFE81212046FFF7B9FE012DD4
:10491C000CBF9F21CF212046FFF7B2FED9212046A4
:10492C00FFF7AEFE012D0CBF2221F1212046FFF72F
:10493C00A7FE2046DB21FFF7A3FE20464021FFF710
:10494C009FFE2046A421FFF79BFE2046A621FFF7E1
:10495C0097FE2046AF21BDE83840FFF791BE94F991
:10496C001D00012180B201F07FFC94F91E00012191
:10497C0080B201F079FC94F82230002B3FF462AF46
:10498C0047E701F02BFD01F061F85BE72DE9F04FF3
:10499C0085B01F46BDF93880BDF83C30A8EB020944
:1049AC00A7EB010AB9F1000FB8BFC9F10009BAF1C0
:1049BC00000FB8BFCAF1000AD14583460C46154614
:1049CC0004DD3A462C4647460D469046BC4205DD72
:1049DC002A464546904622463C4617463E1BB2B2F6
:1049EC000092A8EB050282EAE271A1EBE271C6F338
:1049FC00C03202FA86F64545B4BF01224FF0FF32B1
:104A0C00019176100292BC421CDCDBF8002003936F
:104A1C00D145D2F81080C7BF294622462A462146E6
:104A2C005846C047019A039BB61AB1B236B2002E53
:104A3C0005DA029A1544009A56182DB236B2013492
:104A4C0024B2E0E705B0BDE8F08F2DE9F347BDF8DF
:104A5C002C800768BDF92890CDF800800446FF69CA
:104A6C0016468A461D46B8472368CDF8008009F1E2
:104A7C00FF323244DF6951462B46204612B2B8470A
:104A8C002368CDF800809F6932464B46514620463C
:104A9C00B8476B1E03EB0A012368CDF828809D698B
:104AAC0032464B4609B22046AC4602B0BDE8F04750
:104ABC00604737B5013B13440468BDF818500195A5
:104ACC001BB2009364690B46A04703B030BD37B5E9
:104ADC00BDF818500468CDE90025013B0B4464690E
:104AEC001BB2A04703B030BD2DE9F347BDF92890A8
:104AFC00BDF82C80054692460C46CE18B4420BDA13
:104B0C002B68CDF800809F6921464B4652462846BB
:104B1C000134B84724B2F1E702B0BDE8F08713B511
:104B2C0002680191B0F90E100091546AB0F90C3082
:104B3C0000221146A04702B010BD704730B542812B
:104B4C00C2814FF0FF320024054D426101224460C6
:104B5C0005600181818104610283827630BD00BFD2
:104B6C005C6D0B002DE9F04F2DED028B8DB00746DF
:104B7C000491BDF860100591BDF864100691B0F970
:104B8C000C1004989DF86850814252DDB7F90E1054
:104B9C0091424EDD062111FB0504002C49DD02EB90
:104BAC00C504002C45DD03EB83030B9393B20793F1
:104BBC0008339BB2089100240993052C1CBF2C4B85
:104BCC000B9A079E16BF1B1900239B5C0393049A38
:104BDC00ABB20A9304FB05F313FA82F31BB204EB9A
:104BEC00020A08EE103AB0460FFA85F90FFA8AFA63
:104BFC00039BDB072FD5012D3B681FD1D3F810B0D9
:104C0C00059B32B251463846D847039B5B08039349
:104C1C000A9B01369844099BB6B2B3421FFA88F836
:104C2C00E6D1089B013B013413F0FF0364B20893F7
:104C3C00C3D10DB0BDEC028BBDE8F08F059ACDE968
:104C4C00009218EE101AD3F824B00FFA88F24B46E3
:104C5C003846D847D9E7DDE905239342D5D0012D55
:104C6C003B6803D1D3F810B0069BCAE7069AE6E777
:104C7C0058680B0030B50A2985B0044607D1027E6E
:104C8C00638A03EBC20363820023238221E00D2994
:104C9C001FD0037E0293C38A0193838A0093B0F9D9
:104CAC0012200B46B0F91010FFF75CFF207E238A10
:104CBC0000EB400103EB4103A17E1BB202462382B1
:104CCC0039B1B4F90C106FF0050505FB00118B42DE
:104CDC00D6DC012005B030BD01824282704701292B
:104CEC0038BF012101767047C18281827047407EB6
:104CFC007047B0F90C007047B0F90E007047000017
:104D0C0008B5024B1B689B68019308BD6802030041
:104D1C0008B5024B1B68DB68019308BD68020300F1
:104D2C0008B5024B1B689B68019308BD2C0203005D
:104D3C0008B5024B1B68DB68019308BD2C0203000D
:104D4C0008B5024B1B681B69019308BD2C020300BC
:104D5C0008B5024B1B685B69019308BD2C0203006C
:104D6C0008B5024B1B685B69019308BD6C0203001C
:104D7C0008B5024B1B685B68019308BD1802030061
:104D8C0008B5024B1B68DB68019308BD18020300D1
:104D9C0008B5024B1B685B69019308BD1802030040
:104DAC0008B5024B1B685B6C019308BD48020300FD
:104DBC0008B5024B1B685B69019308BD64020300D4
:104DCC0008B5024B1B681B6A019308BD6402030003
:104DDC0008B5024B1B689B6A019308BD6402030073
:104DEC0008B5024B1B68DB68019308BD3C0203004D
:104DFC0008B5024B1B681B69019308BD3C020300FC
:104E0C0008B5024B1B685B69019308BD3C020300AB
:104E1C0008B5024B1B689B69019308BD3C0203005B
:104E2C0008B5024B1B68DB69019308BD3C0203000B
:104E3C0008B5024B1B681B6A019308BD3C020300BA
:104E4C0008B5024B1B689B6A019308BD3C0203002A
:104E5C0008B5024B1B681B6C019308BD3C02030098
:104E6C0008B5024B1B68DB68019308BD28020300E0
:104E7C0008B5024B1B689B69019308BD280203000F
:104E8C0008B5024B1B68DB69019308BD28020300BF
:104E9C0008B5024B1B681B6A019308BD280203006E
:104EAC0008B5024B1B685B6A019308BD280203001E
:104EBC0008B5024B1B689B6A019308BD28020300CE
:104ECC0008B5024B1B68DB6A019308BD280203007E
:104EDC0008B5024B1B681B6B019308BD280203002D
:104EEC0008B5024B1B685B6B019308BD28020300DD
:104EFC0008B5024B1B681B6C019308BD280203000C
:104F0C0008B5024B1B689B69019308BD380203006E
:104F1C0008B5024B1B68DB69019308BD380203001E
:104F2C0008B5024B1B681B6A019308BD38020300CD
:104F3C0008B5024B1B689B6A019308BD380203003D
:104F4C0008B5024B1B681B6B019308BD38020300AC
:104F5C0008B5024B1B689B6B019308BD380203001C
:104F6C0008B5024B1B681B68019308BD3002030097
:104F7C0008B5024B1B689B68019308BD3002030007
:104F8C0008B5024B1B68DB68019308BD30020300B7
:104F9C0008B5024B1B681B69019308BD3002030066
:104FAC0008B5024B1B685B69019308BD3002030016
:104FBC0008B5024B1B68DB69019308BD3002030086
:104FCC0008B5024B1B681B6A019308BD3002030035
:104FDC0008B5024B1B685B6A019308BD30020300E5
:104FEC0008B5024B1B681B6C019308BD3002030013
:104FFC0008B5024B1B685B6C019308BD30020300C3
:10500C0008B5024B1B681B68019308BD4C020300DA
:10501C0008B5024B1B681B69019308BD4C020300C9
:10502C0008B5024B1B685B69019308BD4C02030079
:10503C0008B5024B1B689B69019308BD4C02030029
:10504C0008B5024B1B68DB69019308BD4C020300D9
:10505C0008B5024B1B681B6A019308BD4C02030088
:10506C0008B5024B1B685B6B019308BD6002030023
:10507C0008B5024B1B681B6D019308BD6002030051
:10508C0008B5024B1B685B68019308BD2002030046
:10509C0008B5024B1B685B69019308BD2002030035
:1050AC0008B5034B1B68D3F88830019308BD00008A
:1050BC002002030008B5034B1B68D3F8943001930E
:1050CC0008BD00002002030008B5024B1B685B689A
:1050DC00019308BD4002030008B5024B1B689B6896
:1050EC00019308BD4002030008B5024B1B68DB6846
:1050FC00019308BD4002030008B5024B1B681B69F5
:10510C00019308BD4002030008B5024B1B685B69A4
:10511C00019308BD4002030008B5024B1B689B6954
:10512C00019308BD4002030008B5024B1B68DB6904
:10513C00019308BD4002030008B5024B1B681B6AB3
:10514C00019308BD4002030008B5024B1B681B6BA2
:10515C00019308BD4002030008B5024B1B685B6B52
:10516C00019308BD4002030008B5024B1B681B6C81
:10517C00019308BD4002030008B5024B1B685B6C31
:10518C00019308BD4002030008B5024B1B68DB6BA2
:10519C00019308BD4402030008B5024B1B681B6851
:1051AC00019308BD1C02030008B5024B1B685B6829
:1051BC00019308BD1C02030008B5024B1B685B6A17
:1051CC00019308BD1C02030008B5024B1B68DB6B86
:1051DC00019308BD1C02030008B5024B1B681B6C35
:1051EC00019308BD1C02030008B5024B1B685B6CE5
:1051FC00019308BD1C020300002240681146FFF712
:10520C009BBF002240681146FFF7A6BF40680022F2
:10521C00FFF79ABF4068002281F00101FFF784BFBD
:10522C00002340681A461946FFF776BF00234068F2
:10523C001A461946FFF768BF002240681146FFF76F
:10524C005BBF002240681146FFF746BF4068002252
:10525C000221FFF749BF002340681A46FFF734BF0D
:10526C00024B03225A60024A1A607047C4E60320BC
:10527C00946D0B000021FFF7BBBE0021FFF7B0BE01
:10528C0010B5044608462170FFF792FE00236360B8
:10529C00204610BD13B504460078FFF7EEFF58B951
:1052AC00207801904FF6FF71FFF75AFE019802B07B
:1052BC00BDE81040FFF7DEBF02B010BD13B50446C9
:1052CC0000780191FFF7D9FF019948B92078019036
:1052DC00FFF74EFE019802B0BDE81040FFF7CABFC1
:1052EC0002B010BD13B5044600780191FFF7C5FF5D
:1052FC00019948B920780190FFF742FE019802B05D
:10530C00BDE81040FFF7B6BF02B010BD400830B585
:10531C001860002418688842E5B206D90134082CBC
:10532C0002D040081860F5E70725024B5B5D13704F
:10533C0030BD00BFC86D0B002DE9F04188B00023D3
:10534C000446007802930E461746FFF796FF054673
:10535C0000BB94F800800146142203A801F08AF9DE
:10536C000B232A4603A94046ADF80C30FFF730FE5C
:10537C0004988DF8075002AB0DF1070207FB06F1FC
:10538C00FFF7C4FF20789DF80710FFF701FE207887
:10539C00FFF770FF029808B0BDE8F08138B50446FD
:1053AC0000780D46FFF769FF0346D0B9616899B1E3
:1053BC000C4A12F8010B854202D00133082BF8D1AC
:1053CC000133DBB20122D9402046FFF7B5FF20782C
:1053DC00BDE83840FFF74EBF20782946FFF7D8FDCF
:1053EC00F5E738BDC86D0B0008B50078FFF7D8FDA0
:1053FC00C0B208BD054B02221A60054B054A9A60E3
:10540C000020C3E90000FFF73BBE00BFD8E6032035
:10541C00CCE603200000FFFF10B54368013B0446B7
:10542C00436063B903689B689847A368013BA3601A
:10543C002BB923682046DB68BDE81040184710BD27
:10544C00024800230360FFF7ABBC00BFDCE603207F
:10545C00F8B506460D468F180024BD420CD03368B3
:10546C0015F8011B9B6830469847031E01DB1C4452
:10547C00F3E7002C08BF1C462046F8BD13B50446C4
:10548C00084659B1019101F035F923680199DB689F
:10549C000246204602B0BDE81040184702B010BDCD
:1054AC0003689B68184738B50D210546FFF7F8FFD0
:1054BC000A2104462846FFF7F3FF204438BD30B5D7
:1054CC008BB00023012A8DF8243098BF0A2209AC36
:1054DC000D46B1FBF2F101FB125303F0FF03092B54
:1054EC0094BF30333733DBB2AA4204F8013DEFD915
:1054FC002146FFF7C3FF0BB030BD2DE9F04186B05C
:10550C0000AF05460E46381D142114463B60FFF7CC
:10551C0053FE13280ED8391D2846FFF7AFFF04465B
:10552C001EB12846FFF7BFFF044420461837BD467E
:10553C00BDE8F08100F1080323F00703E846ADEB6A
:10554C00030D2246411C3B686846FFF735FE694651
:10555C002846FFF793FF0446C546E1E7014B024A94
:10556C001A607047E0E60320D86D0B00024B1A68F6
:10557C00024B1A60704700BFE8E50320E4E6032005
:10558C000021FFF785BD000010B5044B03600446F5
:10559C00806908B1FFF740FF204610BDD06E0B00AC
:1055AC0010B50446FFF7F0FF20461C21FEF76FFDF7
:1055BC00204610BD014B00229A607047E8E603209C
:1055CC00014B1860704700BFECE5032008B50B4B8E
:1055DC0043B100F079F903681B699847002801DD95
:1055EC00AFF30080064B43B100F0B8FE03681B69B3
:1055FC009847002801DDAFF3008008BD00000000D3
:10560C000000000008B5FFF7E1FFFFF7C1FB014BFD
:10561C00186008BD40E703200548064A064908B54E
:10562C00121A01F019F8054B054A1A6008BD00BFA3
:10563C0000F4032004F4032064710B0000F4032035
:10564C001E1C279A07B5002300931A466FF07701AA
:10565C00FFF730FD03B05DF804FB000007B543888D
:10566C000A2B08D0502B0BD1094B1B684BB103B044
:10567C005DF804EB1847FFF7E5FF03B05DF804FB9A
:10568C00002300931A466FF07701FFF713FDF4E740
:10569C00FCE6032010B512480021FFF7A5FD114BC5
:1056AC001A68114B9A42114B0CBF012200221A703E
:1056BC0001D0FFF7B1FFFFF75BFB044600F0E2FF00
:1056CC000B4B13B12046AFF3008000210848FFF7C5
:1056DC005BFDBDE8104007480021FFF7E1BC00BFAF
:1056EC00CD550B0000F403201E1C279AF8E603206E
:1056FC000000000069560B00704710B518210446D5
:10570C00FEF7C5FC204610BDF0B5037D062B8DB011
:10571C000E4600F104074FF0000412D000F108050A
:10572C0015F8011D0A223046FFF7C9FEAF420444AA
:10573C0019D0002CF4D02E213046FFF7B1FE0444D2
:10574C00EEE72F236A4639460A208DF80040FFF712
:10575C002FFB684600F0CEFF33680246DB686946D3
:10576C0030469847044620460DB0F0BD10B5054BA9
:10577C000446112240F8043B002100F07BFF204638
:10578C0010BD00BF006E0B000346074A10B543F86E
:10579C00042B01F1100251F8044B43F8044B9142D5
:1057AC00F9D10A781A7010BD006E0B00037D042B22
:1057BC0004D14068003818BF01207047062B07D170
:1057CC0043683BB983682BB9C3681BB90069F1E71F
:1057DC00002070470120704710B59DF8084044EA3E
:1057EC00032343EA024242EA016104234160037548
:1057FC0010BD000007B5064B0360CB7800938B7887
:10580C004A780978FFF7E8FF03B05DF804FB00BFA6
:10581C00006E0B00417470477047704708B500214B
:10582C00007CFFF705FC40EAE07008BD08B50121DB
:10583C00007CFFF7FDFB40EAE07008BD08B5007C7A
:10584C00FFF7EEFB20EAE07008BD08B5007CFFF71F
:10585C00DFFB20EAE07008BD13B50446007C019123
:10586C00FFF7DEFB0028019901DC607C20B1207C75
:10587C00FFF7E6FB20EAE07002B010BD007CFFF7FA
:10588C00E7BB10B514210446FEF701FC204610BD01
:10589C0010B54FF47A73044608460021C4E901138D
:1058AC00044B23600123207463741146FFF7A8FB9B
:1058BC00204610BD146E0B0010B5142204460021B6
:1058CC0000F0D8FE204610BD10B50F4C88B003A8D0
:1058DC00FFF7F2FF2178BFF35B8F11F001010FD1BD
:1058EC0020460191FEF7E2FB019948B103AA074853
:1058FC00FFF7CEFF2046FEF7DEFB054800F0A6FEC4
:10590C00024808B010BD00BF00E7032004E70320E5
:10591C0025580B0070474174704708B5007CFFF7A1
:10592C008FFA20EAE07008BD08B5007CFFF760FA3A
:10593C0020EAE07008BD08B5007CFFF769FA40EA80
:10594C00E07008BD08B5007CFFF75AFA40EAE07039
:10595C0008BD007CFFF764BA37B5457C04462DB111
:10596C00207C03B0BDE83040FFF73ABA007C0191CF
:10597C00FFF766FA00280199F2DC284603B030BD27
:10598C0010B514210446FEF782FB204610BD000022
:10599C0010B54FF47A730446084611460022C4E948
:1059AC000123044B2360012320746374FFF750FA26
:1059BC00204610BD446E0B007047F8B506461546E0
:1059CC000C468F18BC4206D0336814F8011B9B6838
:1059DC0030469847F6E72846F8BD007C0022FFF7D2
:1059EC0057BA007C0021FFF75BBA007C0021FFF75F
:1059FC005FBA007C0021FFF763BA007C0021FFF73F
:105A0C0067BA10B514210446FEF741FB204610BDC1
:105A1C0038B5044615464FF47A730022C4E90123C5
:105A2C00094B2174084623602946FFF761FABF3001
:105A3C0008D16B69DB0705D56868FFF7B5FBE8682B
:105A4C00FFF7B2FB204638BD746E0B000023007CC0
:105A5C001A461946FFF704BA007C0022FFF708BA71
:105A6C00C9B2FFF7F9BF007C0022FFF709BA012188
:105A7C00FFF7F9BF13B503688DF80710DC6B012233
:105A8C004FF0FF330DF10701A04702B010BD10B469
:105A9C000368DC6B4FF0FF33A4465DF8044B6047A2
:105AAC0013B5134602688DF80710D46B0DF107017E
:105ABC000122A04702B010BD10B54369B3F886208F
:105ACC00B3F884309A42044608D06369B3F8842052
:105ADC00511CA3F884101344187910BD03681B697A
:105AEC0098470028F1D14FF0FF30F6E77047436933
:105AFC001868C043C00F704770470000064B9942AE
:105B0C0010B500F10C0405D0084600F08DFC0028FF
:105B1C0008BF0024204610BDD06D0B0010B5AC2181
:105B2C000446FEF7B4FA204610BDAC21FEF7AFBA1E
:105B3C002DE9F0414FF0000886B01C46C0F80480F7
:105B4C0005460E4617464146102202A800F092FD6B
:105B5C00631C09D04FF47A73B4FBF3F203FB1244C9
:105B6C00CDE902285C430494686910230093006813
:105B7C0002AB41F2050240F6FF71FFF7C1F90028B4
:105B8C0007DAFFF721FB03686B60002006B0BDE865
:105B9C00F0816869002300683A463146FFF7D0F976
:105BAC00031EEEDB1846F1E730B587B0044601ADB5
:105BBC006846FFF71FFE0FCD04340FC42B6823700B
:105BCC0007B030BD70B54D69054B04468C3544F8B3
:105BDC00043B06460FCD0FC42B682370304670BDB6
:105BEC00006E0B002DE9F0439846036893B00D4608
:105BFC000024DB6A06461746984728466B46224621
:105C0C0021460094FFF784F80546002863D1009BD9
:105C1C00002B4BD05B69002B48D006A8FFF7A6FDE4
:105C2C00009B5C696378022B04D1211D06A8FFF749
:105C3C00BBFF26E00A2B24D11122294601A800F033
:105C4C0019FDA368002B38D004F108030DF1040CE6
:105C5C00183418685968624603C20833A342944644
:105C6C00F7D1062301A90CA88DF81430FFF78CFD91
:105C7C000DF1340CBCE80F0007AC0FC4DCF800309D
:105C8C00237006A8FFF792FD80B1336807ADD3F8F7
:105C9C002090124B0C930FCD0DAC0FC42B682370BE
:105CAC003A4643460CA93046C84705460098FFF7CC
:105CBC0027F8284613B0BDE8F083E368002BC3D166
:105CCC004FF6FF70D4F81090FFF77AF88145BBD1EE
:105CDC0004F11401AAE72546E8E700BF006E0B00AB
:105CEC0038B543691A68002A054610DAB3F88620DD
:105CFC00B3F884309A420AD103681B69984704466A
:105D0C0028B92B682846DB6A9847204638BD012005
:105D1C00FCE710B54369B3F88620B3F884309A4297
:105D2C00044605D06369B3F884201344187910BD78
:105D3C0003681B6998470028F4D14FF0FF30F6E751
:105D4C00F8B543691746B3F88620B3F884309A4205
:105D5C0005460E4616D06969B1F88430B1F8864014
:105D6C00E41ABC4228BF3C46043322461944304650
:105D7C0000F072FC6A69B2F884302344A2F88430D3
:105D8C002046F8BD03681B6998470028E3D14FF003
:105D9C00FF34F5E742690023A2F884304269A2F887
:105DAC00863070472DE9F0411F4603680C46DB6ACC
:105DBC008AB0054616469847237DD5F81480042BE7
:105DCC000CBF02200A2006220121FFF7C1F8C8F8F7
:105DDC0000006B691B68002B08DA2B682846DB6A0D
:105DEC000024984720460AB0BDE8F0812846FFF70A
:105DFC00D1FFB7B1002303A9F8B20393ADF810306B
:105E0C00FEF7AEFF0028E8D168690623009300680E
:105E1C0003AB41F20B0240F6FF71FFF771F800285B
:105E2C00DBD11C22002103A800F024FC237D042BD1
:105E3C001DD14FF407733046ADF80C30FEF7C8FF98
:105E4C00ADF80E006068FEF7BBFF04906B691C2276
:105E5C00186803A9FFF764F80028BED104340FCCEE
:105E6C006D698C350FC523682B700124BAE740F699
:105E7C001C233046ADF80C30FEF7AAFF05AEADF88A
:105E8C000E00231D04F1140718685968324603C22A
:105E9C000833BB421646F7D1D8E7000030B542694B
:105EAC00B2F886308BB004462BB1B2F884209A42FB
:105EBC0001D1FFF76FFF61690868002818DBB1F8A2
:105ECC0086507F2D14D804310823C5F18002294453
:105EDC00FFF72EF8002813DD6369B3F886200AB9A2
:105EEC00A3F884206369B3F886201044A3F88600D5
:105EFC006369B3F88600B3F88430C01A0BB030BDB8
:105F0C00FFF762F903680B2BF2D0FFF75DF903681A
:105F1C000B2BEDD020230025CDE90235FFF754F9EA
:105F2C0003680193084B0949009302AA2B463220BF
:105F3C00FFF79EF863691868FEF7EAFF63694FF094
:105F4C00FF321A60D4E700BF9B6E0B00946E0B00FF
:105F5C0010B5436904461868002801DBFEF7D8FF2A
:105F6C0063694FF0FF321A606069112200218C3096
:105F7C0000F080FB2046BDE81040FFF70BBF10B5CA
:105F8C00002304460160C0F884308830FFF7EEFB34
:105F9C00204610BD73B500234FF47A72C0E901326C
:105FAC000E4A0361026043610446AC200191FEF786
:105FBC006AF8051E05F10C0608D00123C5E901336A
:105FCC00074B01992B603046FFF7D9FF2046C4E9F7
:105FDC000565FFF7DFFE02B070BD00BFD06E0B0091
:105FEC00B46E0B0010B54FF0FF310446FFF7D2FF33
:105FFC00204610BD10B504460068002801DBFEF7F2
:10600C0087FF204610BD0C30FFF7F4BF002240681C
:10601C001146FFF771B8002240681146FFF78CB8A3
:10602C00002240681146FFF797B840680022FFF73E
:10603C008BB84068002281F00101FFF775B800238E
:10604C0040681A461946FFF767B8002340681A469D
:10605C001946FFF759B8002240681146FFF73CB8C3
:10606C00406800220221FFF73FB8002340681A461F
:10607C00FFF72AB8024B04225A60024A1A60704792
:10608C0018E703201C6F0B00002340681A46FFF72B
:10609C001BB8406800220221FFF726B80022406896
:1060AC001146FFF719B8002240681146FFF724B8D3
:1060BC00002340681A461946FFF726B800234068AB
:1060CC001A461946FFF728B840680021FFF74CB86C
:1060DC0040680021FFF750B84068002281F00101B0
:1060EC00FFF722B840680022FFF72EB80022406864
:1060FC001146FFF731B8002240681146FFF71CB873
:10610C002DE9F04395B014460D460746FFF72EFBDC
:10611C0000211C220DA8009100F0ACFA40230C9336
:10612C0020466B460CAA0021FEF7F2FD044600281F
:10613C004BD1024601216868FEF7DEFF0221804642
:10614C0022466868FEF7D8FF009E81462146002E45
:10615C003BD0002939D17368022B03D00A2B11D004
:10616C00F669F4E7B8F1000FFAD0716906A80431AA
:10617C0007ADFFF73FFB0FCD3C1D0FC42B68237001
:10618C004146EDE7B9F1000FEAD07469102201A87D
:10619C0000F070FA06238DF8143001AD04F10803F9
:1061AC001834186859682A4603C20833A3421546A6
:1061BC00F7D101A906A807ADFFF7E6FA0FCD3C1DF4
:1061CC000FC42B6823704946CAE70098FEF798FD68
:1061DC00384615B0BDE8F083024B034A1A60002222
:1061EC005A60704720E70320586F0B00232813B523
:1061FC0002D9002002B010BDA0F10B03022B1AD85B
:10620C00174C2178BFF35B8F11F001010BD12046A5
:10621C000191FDF74BFF019928B11248FFF730F8B7
:10622C002046FDF748FF0F4B1878FEF7C9FE0028F3
:10623C00DFD10120DEE7012809D800F0CFF80021DA
:10624C00007CFEF74DFE80F00100C0B2D2E70938A9
:10625C000128EED800F082F8007CFEF7E9FDF2E7A9
:10626C00B8E60320BCE60320232838B504460D46C7
:10627C000AD8FF2908D0FFF7B9FF28B129462046D4
:10628C00BDE83840FEF74CBD38BD38B504460D4668
:10629C00FEF74EFDFF2810D0062804D84D2323FA14
:1062AC0000F0C30709D42046FFF7A0FF28B1294608
:1062BC002046BDE83840FEF743BD38BD10B5044656
:1062CC00FEF736FD031FDBB2012B08D92046FFF782
:1062DC008DFF20B12046BDE81040FEF739BD0020EF
:1062EC0010BD2DE9F04190461F46072406460D4689
:1062FC00C4F10701B8F1000F12D147FA01F101F016
:10630C0001013046FFF7C1FF01212846FFF7BDFF11
:10631C0000212846FFF7B9FF013CE9D2BDE8F08126
:10632C0047FA04F1EBE7704738B5044614252A46C2
:10633C00002100F09FF9258040250749258128463A
:10634C00258200F06FF804496060284600F06AF876
:10635C00E060204638BD00BF8C6F0B0030B50E4D91
:10636C002978BFF35B8F11F0010487B011D1284657
:10637C00FDF79CFE68B101A8FFF7D6FF01AA2146E4
:10638C000648FFF705FB2846FDF795FE044800F08C
:10639C005DF9024807B030BD28E703202CE7032045
:1063AC0033630B007047000038B50A4B03600123C0
:1063BC00044643610849202000F034F82025606031
:1063CC000549A560284600F02DF8C4E903052046D0
:1063DC0038BD00BF180001008C6F0B0030B50E4D9E
:1063EC002978BFF35B8F11F0010487B011D12846D7
:1063FC00FDF75CFE68B16846FFF7D6FF6A4621469A
:10640C000648FFF705FB2846FDF755FE044800F04B
:10641C001DF9024807B030BD44E7032048E70320CC
:10642C00B1630B00FDF731BE014900F0F9B800BFB4
:10643C00A86F0B007FB500241023CDE9023403684C
:10644C0015469E6912686B46CDE90044B0479DF82D
:10645C00043003F00603062B03BF009B2B600120C6
:10646C00204604B070BD0098904214BF0120062055
:10647C007047000010B5034B0360044600F0CDF8E4
:10648C00204610BDE86F0B0010B50446FFF7F2FF75
:10649C0020460821FDF7FBFD204610BD2DE9F041FB
:1064AC001F46DDE90834DDF8188098450646154688
:1064BC0007D1079900F0B4F818B165710020BDE858
:1064CC00F0813946304600F0ABF80028F6D00123B5
:1064DC00C4F800802571A371F0E738B515461C4649
:1064EC0000F09EF820B10823E36006232560237199
:1064FC0038BD73B505460C4601921E4600F090F867
:10650C0050B9032E08D82368019A5B6929462046A6
:10651C0002B0BDE87040184702B070BD10B5034B17
:10652C0003600446FFF7A6FF204610BD48700B0021
:10653C0010B50446FFF7F2FF20460C21FDF7A7FD2E
:10654C00204610BDF7B5089F974205460E461446E7
:10655C000AD0A86802680897156A31462246AC46EC
:10656C0003B0BDE8F04060471946019300F058F8BD
:10657C00019B0028EDD0062003B0F0BD2DE9F14FB2
:10658C000D461946DDE90A4BDDE90CA68146174696
:10659C00984600F045F890B1002D3460377109DB56
:1065AC0061198A450CBF06210121B171002001B08F
:1065BC00BDE8F08F0235F9D10123B371F6E75445EC
:1065CC0006D15946484600F02BF808B17771EDE733
:1065DC00D9F808000368CDE90CA6CDE90A4BDC69B3
:1065EC003A4643462946A44601B0BDE8F04F604701
:1065FC002DE9F04107460C4615461E46FFF76DFF88
:10660C0048B9B86803689F692A4633462146BC4698
:10661C00BDE8F0416047BDE8F0817047002070474D
:10662C00814208B50ED0406803782A2B0CD04968FB
:10663C000B782A2B08BF013100F052F8B0FA80F029
:10664C00400908BD0120FCE70020FAE700230146C1
:10665C001A46184600F056B80A44914200F1FF332E
:10666C0000D1704710B511F8014B03F8014F91425E
:10667C00F9D110BD02440346934200D1704703F890
:10668C00011BF9E738B5104B1D68AB6B0446B3B969
:10669C001820FEF781FD0246A86320B90B4B0C486D
:1066AC004221FEF799FD0B490B4BC0E900130B4B34
:1066BC0083600B23838100210120C2E90401AB6BB1
:1066CC0000221C615A6138BDECE5032081700B007F
:1066DC0098700B000E33CDAB34126DE6ECDE05007A
:1066EC0010F8012B11F8013B012A28BF9A42F7D070
:1066FC00D01A7047034613F8012B002AFBD1181A45
:10670C00013870472DE9F843DFF8B8800646D8F811
:10671C0000001F460D46914600F056F8254B1C68AC
:10672C0034B9254C1C60254B13B11B68C4F8883058
:10673C0063681F2B07DDD8F8000000F047F84FF016
:10674C00FF30BDE8F8834EB3D4F8880088B91C4BF1
:10675C0023B9D8F8000000F038F8F0E74FF4847053
:10676C00FEF71AFD0028F4D00023C0E94033C4F82A
:10677C008800636840F8239001229A4000EB830163
:10678C00D0F800311343C0F80031022EC1F88070EC
:10679C0002BFD0F804311343C0F804316368D8F851
:1067AC0000005A1C0233626044F8235000F00EF8CB
:1067BC000020C6E7E8E703205CE7032000000000A8
:1067CC00A5510B0050E6032070477047704700003E
:1067DC001D400B0059400B0081400B0085400B0005
:1067EC000000000043616C6C206F6E207075726548
:1067FC00207669727475616C0057656C636F6D659A
:10680C002055206172650A00766973746F723D259C
:10681C00690A000000000000000000004D450B005C
:10682C00DD450B00814C0B005D540B0051450B00FA
:10683C0099490B00D9430B0069420B00574A0B00D6
:10684C00F54A0B002B4B0B00474B0B0000000000D4
:10685C00003E5B4F5B3E3E6B4F6B3E1C3E7C3E1CDA
:10686C00183C7E3C181C577D571C1C5E7F5E1C0020
:10687C00183C1800FFE7C3E7FF0018241800FFE7D7
:10688C00DBE7FF30483A060E2629792926407F059A
:10689C000507407F05253F5A3CE73C5A7F3E1C1CB0
:1068AC0008081C1C3E7F14227F22145F5F005F5F70
:1068BC0006097F017F006689956A6060606060945C
:1068CC00A2FFA29408047E040810207E2010080861
:1068DC002A1C08081C2A08081E101010100C1E0C6C
:1068EC001E0C30383E3830060E3E0E0600000000FE
:1068FC000000005F00000007000700147F147F14E5
:10690C00242A7F2A12231308646236495620500029
:10691C0008070300001C2241000041221C002A1C15
:10692C007F1C2A08083E0808008070300008080800
:10693C000808000060600020100804023E51494520
:10694C003E00427F400072494949462141494D333E
:10695C001814127F1027454545393C4A49493141A5
:10696C00211109073649494936464949291E000073
:10697C0014000000403400000008142241141414C8
:10698C001414004122140802015909063E415D59B4
:10699C004E7C1211127C7F494949363E41414122BD
:1069AC007F4141413E7F494949417F090909013EE7
:1069BC00414151737F0808087F00417F410020400E
:1069CC00413F017F081422417F404040407F021C20
:1069DC00027F7F0408107F3E4141413E7F09090937
:1069EC00063E4151215E7F09192946264949493203
:1069FC0003017F01033F4040403F1F2040201F3FC9
:106A0C004038403F6314081463030478040361594D
:106A1C00494D43007F41414102040810200041418F
:106A2C00417F04020102044040404040000307083B
:106A3C000020545478407F28444438384444442837
:106A4C00384444287F385454541800087E090218DE
:106A5C00A4A49C787F0804047800447D4000204066
:106A6C00403D007F1028440000417F40007C0478AA
:106A7C0004787C080404783844444438FC182424F2
:106A8C001818242418FC7C08040408485454542472
:106A9C0004043F44243C4040207C1C2040201C3CEF
:106AAC004030403C44281028444C9090907C4464E6
:106ABC00544C440008364100000077000000413679
:106ACC00080002010204023C2623263C1EA1A161FF
:106ADC00123A4040207A3854545559215555794131
:106AEC002154547841215554784020545579400C08
:106AFC001E527212395555555939545454593955E9
:106B0C005454580000457C410002457D420001452B
:106B1C007C40F0292429F0F0282528F07C54554598
:106B2C00002054547C547C0A097F4932494949322B
:106B3C003248484832324A4848303A4141217A3A40
:106B4C0042402078009DA0A07D39444444393D400A
:106B5C0040403D3C24FF2424487E4943662B2FFCB7
:106B6C002F2BFF0929F620C0887E09032054547965
:106B7C00410000447D413048484A32384040227A36
:106B8C00007A0A0A727D0D19317D2629292F2826B3
:106B9C002929292630484D402038080808080808BB
:106BAC000808382F10C8ACBA2F102834FA00007B14
:106BBC00000008142A142222142A1408AA005500D2
:106BCC00AAAA55AA55AA000000FF00101010FF0039
:106BDC00141414FF001010FF00FF1010F010F0142C
:106BEC001414FC001414F700FF0000FF00FF141431
:106BFC00F404FC141417101F10101F101F1414147D
:106C0C001F00101010F0000000001F101010101FBB
:106C1C0010101010F010000000FF101010101010C9
:106C2C00101010FF10000000FF140000FF00FF0008
:106C3C00001F10170000FC04F41414171017141480
:106C4C00F404F40000FF00F714141414141414F7D3
:106C5C0000F7141414171410101F101F141414F42C
:106C6C00141010F010F000001F101F0000001F1473
:106C7C00000000FC140000F010F01010FF10FF14C6
:106C8C001414FF141010101F00000000F010FFFF70
:106C9C00FFFFFFF0F0F0F0F0FFFFFF00000000003E
:106CAC00FFFF0F0F0F0F0F38444438447C2A2A3E45
:106CBC00147E02020606027E027E0263554941637F
:106CCC003844443C04407E201E2006027E02029979
:106CDC00A5E7A5991C2A492A1C4C7201724C304A12
:106CEC004D4D303048784830BC625A463D3E49499B
:106CFC0049007E0101017E2A2A2A2A2A44445F4443
:106D0C004440514A444040444A51400000FF010372
:106D1C00E080FF000008086B6B083612362436063C
:106D2C000F090F060000181800000010100030406A
:106D3C00FF0101001F01011E00191D1712003C3C30
:106D4C003C3C0000000000000000000000000000BF
:106D5C000000000000000000814C0B005D540B0093
:106D6C00A1400B0099490B00BF4A0B00DB4A0B00FA
:106D7C00574A0B00F54A0B002B4B0B00474B0B00F3
:106D8C00000000000000000063520B0059520B0081
:106D9C004F520B0045520B0039520B002D520B0079
:106DAC00D5600B00DD600B0021520B0019520B005B
:106DBC000F520B0005520B000D610B000008101850
:106DCC0020283038000000000000000061707000C6
:106DDC0025592D256D2D25645425483A254D3A25E8
:106DEC0053257A0061736374696D650000000000BF
:106DFC000000000015570B0005570B0007570B0040
:106E0C00000000000000000027580B008F580B00FA
:106E1C0065580B005D540B0057580B0029580B009C
:106E2C0039580B0089580B0049580B0021580B009E
:106E3C00000000000000000021590B008D590B00D0
:106E4C0065590B005D540B0035590B0051590B0063
:106E5C0043590B005F590B0023590B0027590B00AA
:106E6C000000000000000000C5590B000F5A0B0079
:106E7C00E7590B00C7590B00EF590B00F7590B00E2
:106E8C00FF590B00075A0B00776972696E67007225
:106E9C00656376206572726F72203D202564000058
:106EAC000000000000000000055B0B00295B0B00DC
:106EBC0013600B00375B0B00095B0B00000000003C
:106ECC000000000095550B00AD550B00815A0B00CE
:106EDC009B5A0B00A95E0B00C55A0B001F5D0B00E3
:106EEC00F95A0B00B15D0B00F15B0B004D5D0B0013
:106EFC005D5F0B00ED5C0B00FB5A0B00AD5A0B00F9
:106F0C003D5B0B00D15B0B0000000000000000009B
:106F1C0077600B006D600B0063600B0019600B0059
:106F2C0057600B004B600B00D5600B00DD600B0055
:106F3C003F600B0037600B002D600B0023600B00D3
:106F4C000D610B00000000000000000095600B00BC
:106F5C009F600B00A9600B00B3600B00BD600B00C1
:106F6C00C9600B00D5600B00DD600B00E5600B0009
:106F7C00F1600B00F9600B0003610B000D610B005D
:106F8C0000537431395F53705F6D616B655F73686B
:106F9C00617265645F74616700000000E86F0B004C
:106FAC008D6F0B0048700B00BC6F0B006C700B00EE
:106FBC004E31305F5F637878616269763131375F6B
:106FCC005F636C6173735F747970655F696E666F14
:106FDC004500000000000000B06F0B0081640B0046
:106FEC0095640B0029660B0029660B00FF640B00EF
:106FFC0041640B00E7640B00A9640B0073640B0085
:10700C0048700B0018700B00B06F0B004E31305FE6
:10701C005F637878616269763132305F5F73695F84
:10702C00636C6173735F747970655F696E666F45CD
:10703C0000000000000000000C700B0029650B0024
:10704C003D650B0029660B0029660B00FF640B00E5
:10705C0041640B00FD650B0089650B0051650B004D
:10706C00E86F0B0074700B00537439747970655FA2
:10707C00696E666F005245454E54206D616C6C6FA5
:10708C006320737563636565646564002F6D6E744E
:10709C002F776F726B73706163652F776F726B7381
:1070AC00706163652F4743432D31302D70697065D6
:1070BC006C696E652F6A656E6B696E732D47434301
:1070CC002D31302D706970656C696E652D34385FAB
:1070DC0032303230313132345F3136303631383053
:1070EC003634312F7372632F6E65776C69622F6E35
:1070FC0065776C69622F6C6962632F7374646C6959
:10710C00622F72616E642E630000000035420B002A
:10711C006D520B0001540B004D540B0069550B00C4
:10712C0079550B00C1550B0081600B00E5610B001C
:04713C00000000004F
:10714000040000001400000003000000474E55003A
:10715000E4CBB76EBC48030F6DE8F4B6FD48B51B31
:047160003B88598D82
:047164000000000027
:107168000200000004000000030000000001030703
:107178000F1F3F7F0080C0E0F0F8FCFE0000000019
:1071880000000000000000000000000000000000F7
:1071980000000000000000000000000000000000E7
:1071A80000000000000000000000000000000000D7
:1071B8000000000000000000000000808080000047
:1071C800000000000000000000000000008080C0F7
:1071D800C0000000000000000000000000000000E7
:1071E8000000000000000000000000000000000097
:1071F8000000000000000000000000000000000087
:107208000000000000000000000000000000000076
:1072180080C0E0F0F8FCF8E000000000000000008A
:107228000000000000000000008080808080008056
:107238008000000000808080808000FFFFFF000049
:1072480000008080808000008080000080FFFF8038
:1072580080008080008080808000808000000000A6
:1072680000808000008C8E84000080F8F8F8800090
:10727800000000000000000000000000F0F0F0F046
:10728800F0F0F0F0F0F0F0F0E0E0C08000E0FCFE9C
:10729800FFFFFF7FFFFFFFFFFF000000000000006F
:1072A80000000000000000FEFFC70101010183FF8C
:1072B800FF00007CFEC70101010183FFFFFF0038CA
:1072C800FEC78301010183C7FFFF000001FFFF0123
:1072D8000100FFFF0701010100007FFF800000009F
:1072E800FFFF7F0000FFFFFF000001FFFFFF01001D
:1072F800000000000000000000000000030F3F7FB6
:107308007FFFFFFFFFFFFFFFE7C7C78F8F9FBFFF0D
:10731800FFC3C0F0FFFFFFFFFFFCFCFCFCFCFCFC14
:10732800FCF8F8F0F0E0C0000103030303030103D5
:10733800030000000001030303030101030100002F
:10734800000103030303010103030000000303001A
:107358000000030300000000000000010303030312
:107368000301000000010301000000030301000005
:107378000000000000000000000000000000008085
:10738800C0E0F0F9FFFFFFFFFF3F1F0F87C7F7FFC0
:10739800FF1F1F3DFCF8F8F8F87C7DFFFFFFFFFF9B
:1073A800FFFFFF7F3F0F07003030000000000000A4
:1073B80000000000000000000000000000000000C5
:1073C800FEFEFC00000000000000000000000000BD
:1073D800000000000000000000E0C0000000000005
:1073E8000000000000003030000000000000000035
:1073F80000000000000000000000000000C0FEFFC8
:10740800FFFFFFFFFFFFFFFF7F7F3F1F0F071F7F6C
:10741800FFFFF8F8FFFFFFFFFFFEF8E000000001A4
:107428000000000000000000FEFE000000FCFEFC62
:107438000C06060EFCF80000F0F81C0E0606060CFA
:10744800FFFFFF0000FEFE00000000FCFEFC00182D
:107458003C7E66E6CE84000006FFFF0606FCFEFCC6
:107468000C0606060000FEFE0000C0F8FC4E46466C
:10747800464E7C7840183C76E6CECC800000000072
:1074880000000000000000000000000000000000F4
:1074980001070F1F1F3F3F3F3F1F0F030000000062
:1074A80000000000000000000F0F0000000F0F0F89
:1074B800000000000F0F000003070E0C18180C0640
:1074C8000F0F0F0000010F0E0C180C0F070100041E
:1074D8000E0C180C0F070000000F0F00000F0F0F05
:1074E8000000000000000F0F00000007070C0C1838
:1074F8001C0C060600040E0C180C0F0700000000F8
:107508000000000000000000000000000000000073
:107518000000000000000000000000000000000063
:107528000000000000000000000000000000000053
:107538000000000000000000000000000000000043
:107548000000000000000000000000000000000033
:107558000000000000000000000000000000000023
:107568000000000000000000000000000000000013
:10757800000000000000000000000000F06D0B009B
:10758800F0E50320000000000000000000000000FB
:1075980000000000000000000000000000000000E3
:1075A80000000000000000000000000000000000D3
:1075B80000000000000000000000000000000000C3
:1075C80000000000000000000000000000000000B3
:1075D80000000000000000000000000000000000A3
:0875E80000000000ECE70320A5
:1075F000FFFFFFFF00000102030405060708090A58
:107600000B0C0D0E0F101112131415161718191A52
:087610001B1C1D1E1F20280099
:04761800785634125A
:04000003B000401CED
:00000001FF
