:02000002B0004C
:1040000000400B00986B0B00000006000C0005023E
:084010000401A60F00000000EE
:04401800D45E0B0067
:10401C0009480A49884208B505D0094A824202D0AB
:10402C00121A01F09FFE0748074A0021121A01F0EC
:10403C00A7FE014808BD00BFE8E10320E8660B00BD
:10404C0070E6032070E60320EDE7032070B5074E01
:10405C00074C01F099FAA41BA4080025AC4200D12E
:10406C0070BD56F8043B98470135F7E794660B0092
:10407C00B8660B0000F02EB808B500F05FF8BDE88C
:10408C00084001F039BA01F033B801F039B800003A
:10409C0008B5034A03490C2000F096FFFEE700BF69
:1040AC00754D0B00E85E0B000078B0FA80F040090B
:1040BC0070470123037070470EB403B503AB0021A6
:1040CC0053F8042B019301F0A8F902B05DF804EB4E
:1040DC0003B0704710B5154C3C222046022100F06D
:1040EC0079FB00221146204600F0F2FD204600F03C
:1040FC0001FB40F2DC5001F0D3F920460C4C00F0EF
:10410C0081FA2088012101F047FD0A4B0021188813
:10411C0001F042FD084B0021188801F03DFD20887C
:10412C000021BDE8104001F048BD00BF88E6032027
:10413C00ECE10320F0E10320E8E1032038B52E4B3D
:10414C002E4C188801F052FD2D4B2060188801F080
:10415C004DFD2C4B246818602B4B012C1A683DD15B
:10416C0002B91C60294D00283DD1294A1368012C45
:10417C0003F1010313600BD12B6801332B60254B2A
:10418C002146188801F019FD234B1A6802B91C60EE
:10419C004FF4FA7001F084F92048022100F09BFDE5
:1041AC001E48012100F09CFD0F221C48012100F04B
:1041BC008FFD1B491948FFF77FFF2A6819491748DB
:1041CC00FFF77AFF154800F095FA40F2DC5001F049
:1041DC0067F9BDE83840114800F014BA012A04BF51
:1041EC0000221A60BEE70B4B0021188801F0E5FC99
:1041FC0040F2DC50CEE700BFF0E10320B0E6032034
:10420C00E8E1032080E60320ACE6032084E60320EB
:10421C007CE60320ECE10320B4E6032088E60320CF
:10422C00FD5E0B000C5F0B0008B50848042100F084
:10423C00D3F9074B0022C3E90022A2F580329A6021
:10424C00BDE80840022000F0C7BE00BF88E603208E
:10425C0070E60320F0B5457EBDF81440022D69D000
:10426C00032D00F09980012D6CD10589D2432A448D
:10427C0012B2002A5DDBB0F90850954259DD0029D5
:10428C00BEBF5B181BB20021B0F90A00CD188542E5
:10429C00C4BF431A1BB2002B4BDDC1F3C400DFF8C3
:1042AC0020C102EBC01211F00701DBB20CEB0200D3
:1042BC001AD0C1F10805404EEDB2AB42775D3FBF5D
:1042CC00A5EB030EFF2646FA0EF637401CF80260EB
:1042DC00012C0CBF3E43BE43AB420CF8026028D30A
:1042EC0008390B44DBB28030072B19D9012C4FF065
:1042FC00FF3518BF0025EDB200F180011A46083ACF
:10430C00D2B2072A01F8805C01F18001F7D8A3F141
:10431C000802C2F3C402013200EBC21003F007031F
:10432C003BB1264AD25C0378012C0CBF1343934358
:10433C000370F0BD4589D2432A44CD180189491B2D
:10434C0012B209B2002AF4DBB0F90A509542F0DD42
:10435C000029BEBF5B181BB20021B0F90870CE1843
:10436C00BE42C4BF6B1A1BB2002BE2DDD0108025FD
:10437C0010FB05111248014402F007000122824093
:10438C00012CD2B20B440CD18B42D2D011F8010BC0
:10439C00104301F8010CF7E7CD184189491B09B20C
:1043AC0067E7D243D2B28B42C3D011F8010B104055
:1043BC0001F8010CF7E700BFFCE10320F4E1032056
:1043CC0004E20320F0B5457EBDF81440022D34D034
:1043DC00032D00F09B80012D37D1D5180289521B7B
:1043EC0012B20029C0F29180B0F90A508D4240F30C
:1043FC008C80002ABEBF9B181BB20022B0F908703B
:10440C00D618BE42C4BFAB1A1BB2002B7DDDC81040
:10441C00802510FB05224548024401F007000121CC
:10442C008140012CC9B2134475D19A426DD012F857
:10443C00010B084302F8010CF7E70589C94329442D
:10444C00D5184289521B09B212B200295DDBB0F9B2
:10445C0008508D4259DD002ABEBF9B181BB20022AA
:10446C00B0F90A00D5188542C4BF831A1BB2002BC1
:10447C004BDDC2F3C400DFF8B4C001EBC01112F085
:10448C000702DBB20CEB01001AD0C2F10805284E72
:10449C00EDB2AB42775D3FBFA5EB030EFF2646FAAC
:1044AC000EF637401CF80160012C0CBF3E43BE4396
:1044BC00AB420CF8016028D3083A1344DBB28030CD
:1044CC00072B19D9012C4FF0FF3518BF0025EDB281
:1044DC0000F180011A46083AD2B2072A01F8805C32
:1044EC0001F18001F7D8A3F10802C2F3C402013232
:1044FC0000EBC21003F007033BB10E4AD25C037809
:10450C00012C0CBF134393430370F0BD4589C94381
:10451C00294409B265E7C943C9B29A42F5D012F8E9
:10452C00010B084002F8010CF7E700BF04E203207E
:10453C00FCE10320F4E1032070470000F8B50D1EE8
:10454C00064614461F462DDB00F0CFFBA84229DDA2
:10455C00002C27DB304600F0CBFBA04222DD30469E
:10456C0000F0C1FB02281ED0032825D0012804D15D
:10457C003389E2431A442C4615B2002C2246B8BFAC
:10458C00E21DD210802112FB01550E49012204F0CC
:10459C0007044B5702FA04F464B297420CBF23434E
:1045AC00A3434B55F8BD318972890139E4434D1B46
:1045BC0014442DB224B2E0E77389013B5B1B254602
:1045CC001CB2DAE704E2032010B524210446FFF7FD
:1045DC005CFD204610BD000038B5402204460D4657
:1045EC00802100F0A7FA064B2360FF2384F82130CA
:1045FC0063774FF6FF73E38384F82050204638BD71
:10460C00205F0B0002484FF48062002101F0B8BB20
:10461C0004E2032013B50B4C2178BFF35B8F11F030
:10462C0001010BD120460191FFF73EFD019928B104
:10463C00054800F0C9FD2046FFF73BFD024802B0DB
:10464C0010BD00BFB8E60320BCE6032007B590F808
:10465C00223043B10191FFF7DDFF019903B05DF802
:10466C0004EB00F065BE0B46817F407F012203B056
:10467C005DF804EB01F0CDBA38B590F91D3001337B
:10468C0004460D461DD090F92100012180B201F0A5
:10469C0094FA94F91F00002180B201F08EFA94F97B
:1046AC002100002180B201F088FA29462046FFF74C
:1046BC00CDFF94F921000121BDE8384080B201F012
:1046CC007CBA01F023FB94F91B1001F02DF901F0D9
:1046DC001DFB036800219B68984701F017FB0368DA
:1046EC0029469B68984701F011FBBDE8384001F062
:1046FC0022B90000F8B521210446FFF7BDFF0021C7
:10470C002046FFF7B9FF7F212046FFF7B5FF222196
:10471C002046FFF7B1FF00212046FFF7ADFF072130
:10472C002046FFF7A9FF94F91D30294F01332AD0F9
:10473C0094F92100012180B201F03FFA94F91F0095
:10474C00012180B201F039FA94F92100002180B2E4
:10475C0001F033FA012000F007FB4FF48065013DB6
:10476C0017F8011B2046ADB2FFF770FF002DF6D1F4
:10477C00012000F0F9FA94F921000121BDE8F8407C
:10478C0080B201F01ABA002501F0C0FA94F91B109E
:10479C0001F0CAF801F0BAFA036840219B68984707
:1047AC0005F11006B6B201F0B1FA0368795D9B68A9
:1047BC0098476B1C9DB2AE42F5D101F0A7FA01F0FF
:1047CC00BAF8B6F5806F00D1F8BD3546DCE700BF0E
:1047DC0004E2032038B590F91D300177013304460B
:1047EC000D46C27600F0C98090F91F00012180B2FD
:1047FC0001F0D2F994F92100012180B201F0CCF939
:10480C0094F82230002B00F0A68094F921000121AD
:10481C0080B201F0D2F9FFF7FDFE012100F0F2FCAD
:10482C00FFF7F8FE102100F05DFDFFF7F3FE00210D
:10483C0000F0FCFCFFF7EEFE00F0D0FC94F9200039
:10484C00012180B201F0A8F994F92000012180B275
:10485C0001F0B3F9012000F023FE94F920000021AF
:10486C0080B201F0AAF90A2000F01AFE94F9200097
:10487C00012180B201F0A1F92046AE21FFF7FCFE28
:10488C002046D521FFF7F8FE20468021FFF7F4FEE5
:10489C002046A821FFF7F0FE20463F21FFF7ECFE53
:1048AC002046D321FFF7E8FE20460021FFF7E4FE67
:1048BC0020464021FFF7E0FE8D212046FFF7DCFE6D
:1048CC00012D0CBF102114212046FFF7D5FE2046E8
:1048DC002021FFF7D1FE20460021FFF7CDFE204618
:1048EC00A121FFF7C9FE2046C821FFF7C5FE2046CF
:1048FC00DA21FFF7C1FE20461221FFF7BDFE812110
:10490C002046FFF7B9FE012D0CBF9F21CF21204679
:10491C00FFF7B2FED9212046FFF7AEFE012D0CBFEA
:10492C002221F1212046FFF7A7FE2046DB21FFF7CD
:10493C00A3FE20464021FFF79FFE2046A421FFF74F
:10494C009BFE2046A621FFF797FE2046AF21BDE82F
:10495C003840FFF791BE94F91D00012180B201F09F
:10496C001BF994F91E00012180B201F015F994F89D
:10497C002230002B3FF462AF47E701F0C7F900F09B
:10498C00C9FF5BE72DE9F04F85B01F46BDF93880B4
:10499C00BDF83C30A8EB0209A7EB010AB9F1000FF6
:1049AC00B8BFC9F10009BAF1000FB8BFCAF1000ACB
:1049BC00D14583460C46154604DD3A462C464746FF
:1049CC000D469046BC4205DD2A4645469046224699
:1049DC003C4617463E1BB2B20092A8EB050282EA97
:1049EC00E271A1EBE271C6F3C03202FA86F64545DC
:1049FC00B4BF01224FF0FF32019176100292BC42FB
:104A0C001CDCDBF800200393D145D2F81080C7BF23
:104A1C00294622462A4621465846C047019A039BFE
:104A2C00B61AB1B236B2002E05DA029A1544009AC3
:104A3C0056182DB236B2013424B2E0E705B0BDE809
:104A4C00F08F2DE9F347BDF82C800768BDF928904D
:104A5C00CDF800800446FF6916468A461D46B847C5
:104A6C002368CDF8008009F1FF323244DF695146EA
:104A7C002B46204612B2B8472368CDF800809F69B8
:104A8C0032464B4651462046B8476B1E03EB0A0193
:104A9C002368CDF828809D6932464B4609B22046E2
:104AAC00AC4602B0BDE8F047604737B5013B134454
:104ABC000468BDF8185001951BB2009364690B464D
:104ACC00A04703B030BD37B5BDF818500468CDE928
:104ADC000025013B0B4464691BB2A04703B030BDF9
:104AEC002DE9F347BDF92890BDF82C800546924678
:104AFC000C46CE18B4420BDA2B68CDF800809F69B7
:104B0C0021464B46524628460134B84724B2F1E7B9
:104B1C0002B0BDE8F08713B502680191B0F90E1030
:104B2C000091546AB0F90C3000221146A04702B033
:104B3C0010BD704730B54281C2814FF0FF32002466
:104B4C00054D42610122446005600181818104614F
:104B5C000283827630BD00BF54640B002DE9F04F08
:104B6C002DED028B8DB007460491BDF860100591B8
:104B7C00BDF864100691B0F90C1004989DF86850BB
:104B8C00814252DDB7F90E1091424EDD062111FB28
:104B9C000504002C49DD02EBC504002C45DD03EBBC
:104BAC0083030B9393B2079308339BB208910024B1
:104BBC000993052C1CBF2C4B0B9A079E16BF1B1977
:104BCC0000239B5C0393049AABB20A9304FB05F39A
:104BDC0013FA82F31BB204EB020A08EE103AB04649
:104BEC000FFA85F90FFA8AFA039BDB072FD5012DF3
:104BFC003B681FD1D3F810B0059B32B251463846F2
:104C0C00D847039B5B0803930A9B01369844099B86
:104C1C00B6B2B3421FFA88F8E6D1089B013B0134C7
:104C2C0013F0FF0364B20893C3D10DB0BDEC028B3B
:104C3C00BDE8F08F059ACDE9009218EE101AD3F862
:104C4C0024B00FFA88F24B463846D847D9E7DDE94D
:104C5C0005239342D5D0012D3B6803D1D3F810B076
:104C6C00069BCAE7069AE6E7505F0B0030B50A29A7
:104C7C0085B0044607D1027E638A03EBC2036382CC
:104C8C000023238221E00D291FD0037E0293C38AC7
:104C9C000193838A0093B0F912200B46B0F91010DF
:104CAC00FFF75CFF207E238A00EB400103EB4103FE
:104CBC00A17E1BB20246238239B1B4F90C106FF0FD
:104CCC00050505FB00118B42D6DC012005B030BD7B
:104CDC00018242827047012938BF01210176704759
:104CEC00C18281827047407E7047B0F90C007047DA
:104CFC00B0F90E007047000008B5024B1B689B68AA
:104D0C00019308BD6802030008B5024B1B68DB6801
:104D1C00019308BD6802030008B5024B1B689B6831
:104D2C00019308BD2C02030008B5024B1B68DB681D
:104D3C00019308BD2C02030008B5024B1B681B69CC
:104D4C00019308BD2C02030008B5024B1B685B697C
:104D5C00019308BD2C02030008B5024B1B685B686D
:104D6C00019308BD1802030008B5024B1B68DB68F1
:104D7C00019308BD1802030008B5024B1B685B6960
:104D8C00019308BD1802030008B5024B1B685B6C4D
:104D9C00019308BD4802030008B5024B1B685B6910
:104DAC00019308BD6402030008B5024B1B68DB6865
:104DBC00019308BD3C02030008B5024B1B681B693C
:104DCC00019308BD3C02030008B5024B1B685B69EC
:104DDC00019308BD3C02030008B5024B1B689B699C
:104DEC00019308BD3C02030008B5024B1B68DB694C
:104DFC00019308BD3C02030008B5024B1B681B6AFB
:104E0C00019308BD3C02030008B5024B1B689B6A6A
:104E1C00019308BD3C02030008B5024B1B681B6CD8
:104E2C00019308BD3C02030008B5024B1B68DB680C
:104E3C00019308BD2802030008B5024B1B689B694F
:104E4C00019308BD2802030008B5024B1B68DB69FF
:104E5C00019308BD2802030008B5024B1B681B6AAE
:104E6C00019308BD2802030008B5024B1B685B6A5E
:104E7C00019308BD2802030008B5024B1B689B6A0E
:104E8C00019308BD2802030008B5024B1B68DB6ABE
:104E9C00019308BD2802030008B5024B1B681B6B6D
:104EAC00019308BD2802030008B5024B1B685B6B1D
:104EBC00019308BD2802030008B5024B1B681B6C4C
:104ECC00019308BD2802030008B5024B1B681B6840
:104EDC00019308BD3002030008B5024B1B689B68A8
:104EEC00019308BD3002030008B5024B1B68DB6858
:104EFC00019308BD3002030008B5024B1B681B6907
:104F0C00019308BD3002030008B5024B1B685B69B6
:104F1C00019308BD3002030008B5024B1B68DB6926
:104F2C00019308BD3002030008B5024B1B681B6AD5
:104F3C00019308BD3002030008B5024B1B685B6A85
:104F4C00019308BD3002030008B5024B1B681B6CB3
:104F5C00019308BD3002030008B5024B1B685B6C63
:104F6C00019308BD3002030008B5024B1B681B6897
:104F7C00019308BD4C02030008B5024B1B681B696A
:104F8C00019308BD4C02030008B5024B1B685B691A
:104F9C00019308BD4C02030008B5024B1B689B69CA
:104FAC00019308BD4C02030008B5024B1B68DB697A
:104FBC00019308BD4C02030008B5024B1B681B6A29
:104FCC00019308BD4C02030008B5024B1B685B6BD8
:104FDC00019308BD6002030008B5024B1B685B68B7
:104FEC00019308BD2002030008B5024B1B685B69E6
:104FFC00019308BD2002030008B5034B1B68D3F8CE
:10500C008830019308BD00002002030008B5034B53
:10501C001B68D3F89430019308BD000020020300F4
:10502C0008B5024B1B685B68019308BD4002030086
:10503C0008B5024B1B689B68019308BD4002030036
:10504C0008B5024B1B68DB68019308BD40020300E6
:10505C0008B5024B1B681B69019308BD4002030095
:10506C0008B5024B1B685B69019308BD4002030045
:10507C0008B5024B1B689B69019308BD40020300F5
:10508C0008B5024B1B68DB69019308BD40020300A5
:10509C0008B5024B1B681B6A019308BD4002030054
:1050AC0008B5024B1B681B6B019308BD4002030043
:1050BC0008B5024B1B685B6B019308BD40020300F3
:1050CC0008B5024B1B681B6C019308BD4002030022
:1050DC0008B5024B1B685B6C019308BD40020300D2
:1050EC0008B5024B1B68DB6B019308BD440203003F
:1050FC0008B5024B1B681B68019308BD1C0203001A
:10510C0008B5024B1B685B68019308BD1C020300C9
:10511C0008B5024B1B685B6A019308BD1C020300B7
:10512C0008B5024B1B681B6C019308BD1C020300E5
:10513C0008B5024B1B685B6C019308BD1C02030095
:10514C00002240681146FFF7A3BF002240681146B9
:10515C00FFF7AEBF40680022FFF7A2BF40680022F5
:10516C0081F00101FFF78CBF002340681A461946F5
:10517C00FFF77EBF002340681A461946FFF770BF41
:10518C00002240681146FFF763BF002240681146B9
:10519C00FFF74EBF406800220221FFF751BF0023EA
:1051AC0040681A46FFF73CBF024B03225A60024A82
:1051BC001A607047C4E603208C640B000021FFF7D3
:1051CC00CBBE0021FFF7C0BE10B5044608462170C7
:1051DC00FFF7A2FE00236360204610BD13B5044602
:1051EC000078FFF7EEFF58B9207801904FF6FF7169
:1051FC00FFF76AFE019802B0BDE81040FFF7DEBF72
:10520C0002B010BD13B5044600780191FFF7D9FF29
:10521C00019948B920780190FFF75EFE019802B021
:10522C00BDE81040FFF7CABF02B010BD13B504466D
:10523C0000780191FFF7C5FF019948B920780190DA
:10524C00FFF752FE019802B0BDE81040FFF7B6BF61
:10525C0002B010BD400830B51860002418688842B0
:10526C00E5B206D90134082C02D040081860F5E7E5
:10527C000725024B5B5D137030BD00BFC0640B0093
:10528C002DE9F04188B000230446007802930E46C5
:10529C001746FFF796FF054600BB94F800800146C1
:1052AC00142203A800F06CFD0B232A4603A94046E8
:1052BC00ADF80C30FFF740FE04988DF8075002ABA8
:1052CC000DF1070207FB06F1FFF7C4FF20789DF8EC
:1052DC000710FFF711FE2078FFF770FF029808B057
:1052EC00BDE8F08138B5044600780D46FFF769FF3C
:1052FC000346D0B9616899B10C4A12F8010B85428A
:10530C0002D00133082BF8D10133DBB20122D94092
:10531C002046FFF7B5FF2078BDE83840FFF74EBFB9
:10532C0020782946FFF7E8FDF5E738BDC0640B008F
:10533C0008B50078FFF7E8FDC0B208BD054B0222A6
:10534C001A60054B054A9A600020C3E90000FFF77C
:10535C0043BE00BFD8E60320CCE603200000FFFFCD
:10536C00024800230360FFF70FBD00BFDCE60320FB
:10537C00F8B506460D468F180024BD420CD0336894
:10538C0015F8011B9B6830469847031E01DB1C4433
:10539C00F3E7002C08BF1C462046F8BD13B50446A5
:1053AC00084659B1019100F021FD23680199DB6891
:1053BC000246204602B0BDE81040184702B010BDAE
:1053CC0003689B68184738B50D210546FFF7F8FFB1
:1053DC000A2104462846FFF7F3FF204438BD30B5B8
:1053EC008BB00023012A8DF8243098BF0A2209AC17
:1053FC000D46B1FBF2F101FB125303F0FF03092B35
:10540C0094BF30333733DBB2AA4204F8013DEFD9F5
:10541C002146FFF7C3FF0BB030BD2DE9F04186B03C
:10542C0000AF05460E46381D142114463B60FFF7AD
:10543C006FFE13280ED8391D2846FFF7AFFF044620
:10544C001EB12846FFF7BFFF044420461837BD465F
:10545C00BDE8F08100F1080323F00703E846ADEB4B
:10546C00030D2246411C3B686846FFF751FE694616
:10547C002846FFF793FF0446C546E1E7014B024A75
:10548C001A607047E0E60320C8640B00024B1A68F0
:10549C00024B1A60704700BF04E60320E4E60320C9
:1054AC000021FFF7A1BD0000014B00229A6070475C
:1054BC00E8E60320014B1860704700BF08E60320A4
:1054CC0008B50B4B43B100F063F903681B699847AF
:1054DC00002801DDAFF30080064B43B100F0D6FB92
:1054EC0003681B699847002801DDAFF3008008BDF5
:1054FC00000000000000000008B5FFF7E1FFFFF717
:10550C003BFC014B186008BD40E703200548064AE8
:10551C00064908B5121A00F025FC054B054A1A601D
:10552C0008BD00BF00F4032004F40320E4660B0064
:10553C0000F403201E1C279A07B5002300931A467B
:10554C006FF07701FFF762FD03B05DF804FB00001C
:10555C0007B543880A2B08D0502B0BD1094B1B687D
:10556C004BB103B05DF804EB1847FFF7E5FF03B050
:10557C005DF804FB002300931A466FF07701FFF7E8
:10558C0045FDF4E7FCE6032010B512480021FFF7B7
:10559C00CFFD114B1A68114B9A42114B0CBF0122D3
:1055AC0000221A7001D0FFF7B1FFFFF7D5FB0446BC
:1055BC0000F0EEFB0B4B13B12046AFF30080002143
:1055CC000848FFF78DFDBDE8104007480021FFF7A4
:1055DC0013BD00BFC1540B0000F403201E1C279AFE
:1055EC00F8E60320000000005D550B00704710B575
:1055FC0018210446FEF749FD204610BDF0B5037D89
:10560C00062B8DB00E4600F104074FF0000412D0AB
:10561C0000F1080515F8011D0A223046FFF7DFFEE0
:10562C00AF42044419D0002CF4D02E213046FFF7A1
:10563C00C7FE0444EEE72F236A4639460A208DF84C
:10564C000040FFF7A9FB684600F0D0FB3368024628
:10565C00DB68694630469847044620460DB0F0BDDD
:10566C0010B5054B0446112240F8043B002100F014
:10567C0087FB204610BD00BFF0640B000346074AB1
:10568C0010B543F8042B01F1100251F8044B43F808
:10569C00044B9142F9D10A781A7010BDF0640B00DA
:1056AC0010B59DF8084044EA032343EA024242EA5B
:1056BC00016104234160037510BD000007B5064B62
:1056CC000360CB7800938B784A780978FFF7E8FF72
:1056DC0003B05DF804FB00BFF0640B00417470472D
:1056EC007047704708B50021007CFFF755FC40EA75
:1056FC00E07008BD08B50121007CFFF74DFC40EAC5
:10570C00E07008BD08B5007CFFF73EFC20EAE070B5
:10571C0008BD08B5007CFFF72FFC20EAE07008BD3F
:10572C0013B50446007C0191FFF72EFC002801996B
:10573C0001DC607C20B1207CFFF736FC20EAE070B5
:10574C0002B010BD007CFFF737BC10B51421044625
:10575C00FEF79BFC204610BD10B54FF47A7304463F
:10576C0008460021C4E90113044B23600123207473
:10577C0063741146FFF7F8FB204610BD04650B005F
:10578C0010B514220446002100F0FAFA204610BD90
:10579C0010B50F4C88B003A8FFF7F2FF2178BFF3C8
:1057AC005B8F11F001010FD120460191FEF77CFCBB
:1057BC00019948B103AA0748FFF7CEFF2046FEF730
:1057CC0078FC054800F0C8FA024808B010BD00BFCC
:1057DC0000E7032004E70320ED560B0070474174EB
:1057EC00704708B5007CFFF70FFB20EAE07008BD9E
:1057FC0008B5007CFFF7E0FA20EAE07008BD08B5B8
:10580C00007CFFF7E9FA40EAE07008BD08B5007CBF
:10581C00FFF7DAFA40EAE07008BD007CFFF7E4BA63
:10582C0037B5457C04462DB1207C03B0BDE8304033
:10583C00FFF7BABA007C0191FFF7E6FA002801994C
:10584C00F2DC284603B030BD10B514210446FEF737
:10585C001CFC204610BD000010B54FF47A730446B2
:10586C00084611460022C4E90123044B236001239E
:10587C0020746374FFF7D0FA204610BD34650B001A
:10588C007047F8B5064615460C468F18BC4206D034
:10589C00336814F8011B9B6830469847F6E7284696
:1058AC00F8BD007C0022FFF7D7BA007C0021FFF77F
:1058BC00DBBA007C0021FFF7DFBA007C0021FFF788
:1058CC00E3BA007C0021FFF7E7BA10B514210446B7
:1058DC00FEF7DBFB204610BD38B5044615464FF4E9
:1058EC007A730022C4E90123094B21740846236012
:1058FC002946FFF7E1FABF3008D16B69DB0705D504
:10590C006868FFF7FDFBE868FFF7FAFB204638BD37
:10591C0064650B000023007C1A461946FFF784BA15
:10592C00007C0022FFF788BAC9B2FFF7F9BF007CF0
:10593C000022FFF789BA0121FFF7F9BF0022406866
:10594C001146FFF785BB002240681146FFF7A0BB4C
:10595C00002240681146FFF7ABBB40680022FFF7FE
:10596C009FBB4068002281F00101FFF789BB002337
:10597C0040681A461946FFF77BBB002340681A465D
:10598C001946FFF76DBB002240681146FFF750BB6C
:10599C00406800220221FFF753BB002340681A46DF
:1059AC00FFF73EBB024B04225A60024A1A60704752
:1059BC0018E703208C650B00002340681A46FFF79C
:1059CC002FBB406800220221FFF73ABB002240683F
:1059DC001146FFF72DBB002240681146FFF738BB7C
:1059EC00002340681A461946FFF73ABB002340686B
:1059FC001A461946FFF73CBB40680021FFF760BB15
:105A0C0040680021FFF764BB4068002281F001016F
:105A1C00FFF736BB40680022FFF742BB002240680C
:105A2C001146FFF745BB002240681146FFF730BB1B
:105A3C002DE9F04395B014460D460746FFF710FECE
:105A4C0000211C220DA8009100F09AF940230C9320
:105A5C0020466B460CAA0021FFF756F90446002895
:105A6C004BD1024601216868FFF7F2FA0221804609
:105A7C0022466868FFF7ECFA009E81462146002E0C
:105A8C003BD0002939D17368022B03D00A2B11D0DB
:105A9C00F669F4E7B8F1000FFAD0716906A8043181
:105AAC0007ADFFF70BFE0FCD3C1D0FC42B68237009
:105ABC004146EDE7B9F1000FEAD07469102201A854
:105ACC0000F05EF906238DF8143001AD04F10803E3
:105ADC001834186859682A4603C20833A34215467D
:105AEC00F7D101A906A807ADFFF7C8FD0FCD3C1DE6
:105AFC000FC42B6823704946CAE70098FFF7FCF8DF
:105B0C00384615B0BDE8F083024B034A1A600022F8
:105B1C005A60704720E70320C8650B00232813B593
:105B2C0002D9002002B010BDA0F10B03022B1AD831
:105B3C00174C2178BFF35B8F11F001010BD120467C
:105B4C000191FEF7B1FA019928B11248FFF73CFB1D
:105B5C002046FEF7AEFA0F4B1878FFF7E5F9002850
:105B6C00DFD10120DEE7012809D800F0CFF80021B1
:105B7C00007CFFF799F980F00100C0B2D2E7093838
:105B8C000128EED800F082F8007CFFF735F9F2E737
:105B9C00B8E60320BCE60320232838B504460D469E
:105BAC000AD8FF2908D0FFF7B9FF28B129462046AB
:105BBC00BDE83840FFF7B0B838BD38B504460D46DF
:105BCC00FFF7B2F8FF2810D0062804D84D2323FA8B
:105BDC0000F0C30709D42046FFF7A0FF28B12946DF
:105BEC002046BDE83840FFF7A7B838BD10B50446CD
:105BFC00FFF79AF8031FDBB2012B08D92046FFF7F9
:105C0C008DFF20B12046BDE81040FFF79DB8002065
:105C1C0010BD2DE9F04190461F46072406460D465F
:105C2C00C4F10701B8F1000F12D147FA01F101F0EC
:105C3C0001013046FFF7C1FF01212846FFF7BDFFE8
:105C4C0000212846FFF7B9FF013CE9D2BDE8F081FD
:105C5C0047FA04F1EBE7704738B5044614252A4699
:105C6C00002100F08DF82580402507492581284624
:105C7C00258200F06FF804496060284600F06AF84D
:105C8C00E060204638BD00BFFC650B0030B50E4D02
:105C9C002978BFF35B8F11F0010487B011D128462E
:105CAC00FEF702FA68B101A8FFF7D6FF01AA214658
:105CBC000648FFF7D1FD2846FEF7FBF9044800F033
:105CCC004BF8024807B030BD28E703202CE703202F
:105CDC00635C0B007047000038B50A4B036001236E
:105CEC00044643610849202000F034F82025606008
:105CFC000549A560284600F02DF8C4E903052046A7
:105D0C0038BD00BF18000100FC650B0030B50E4D0E
:105D1C002978BFF35B8F11F0010487B011D12846AD
:105D2C00FEF7C2F968B16846FFF7D6FF6A4621460E
:105D3C000648FFF7D1FD2846FEF7BBF9044800F0F2
:105D4C000BF8024807B030BD44E7032048E70320B6
:105D5C00E15C0B00FEF797B9002301461A46184682
:105D6C0000F04CB80A44914200F1FF3300D1704767
:105D7C0010B511F8014B03F8014F9142F9D110BD48
:105D8C0002440346934200D1704703F8011BF9E724
:105D9C0038B5104B1D68AB6B0446B3B91820FFF730
:105DAC00A7F90246A86320B90B4B0C484221FFF718
:105DBC00B7F90B490B4BC0E900130B4B83600B235A
:105DCC00838100210120C2E90401AB6B00221C611C
:105DDC005A6138BD08E60320FD650B0014660B0004
:105DEC000E33CDAB34126DE6ECDE0500034613F832
:105DFC00012B002AFBD1181A013870472DE9F84302
:105E0C00DFF8B8800646D8F800001F460D469146CC
:105E1C0000F056F8254B1C6834B9254C1C60254BFA
:105E2C0013B11B68C4F8883063681F2B07DDD8F8E2
:105E3C00000000F047F84FF0FF30BDE8F8834EB398
:105E4C00D4F8880088B91C4B23B9D8F8000000F0AE
:105E5C0038F8F0E74FF48470FFF74AF90028F4D0D3
:105E6C000023C0E94033C4F88800636840F82390ED
:105E7C0001229A4000EB8301D0F800311343C0F8A3
:105E8C000031022EC1F8807002BFD0F804311343E8
:105E9C00C0F804316368D8F800005A1C0233626001
:105EAC0044F8235000F00EF80020C6E7E8E7032082
:105EBC005CE7032000000000FD500B006CE60320A3
:105ECC0070477047704700001D400B0059400B0095
:105EDC0081400B0085400B000000000043616C6C9E
:105EEC00206F6E2070757265207669727475616CA6
:105EFC000057656C636F6D652055206172650A00F3
:105F0C00766973746F723D25690A00000000000009
:105F1C000000000045450B00D5450B00794C0B00EB
:105F2C007D530B0049450B0091490B00D1430B00ED
:105F3C0061420B004F4A0B00ED4A0B00234B0B0048
:105F4C003F4B0B0000000000003E5B4F5B3E3E6B86
:105F5C004F6B3E1C3E7C3E1C183C7E3C181C577DF7
:105F6C00571C1C5E7F5E1C00183C1800FFE7C3E743
:105F7C00FF0018241800FFE7DBE7FF30483A060E55
:105F8C002629792926407F050507407F05253F5A9C
:105F9C003CE73C5A7F3E1C1C08081C1C3E7F14220C
:105FAC007F22145F5F005F5F06097F017F006689B7
:105FBC00956A606060606094A2FFA29408047E04FD
:105FCC000810207E201008082A1C08081C2A080823
:105FDC001E101010100C1E0C1E0C30383E383006E3
:105FEC000E3E0E06000000000000005F00000007DF
:105FFC00000700147F147F14242A7F2A122313080D
:10600C00646236495620500008070300001C2241E8
:10601C00000041221C002A1C7F1C2A08083E08088C
:10602C00008070300008080808080000606000203C
:10603C00100804023E5149453E00427F400072491F
:10604C004949462141494D331814127F10274545C3
:10605C0045393C4A494931412111090736494949D9
:10606C0036464949291E0000140000004034000047
:10607C0000081422411414141414004122140802B0
:10608C00015909063E415D594E7C1211127C7F4923
:10609C004949363E414141227F4141413E7F494978
:1060AC0049417F090909013E414151737F080808A4
:1060BC007F00417F41002040413F017F0814224175
:1060CC007F404040407F021C027F7F0408107F3ECF
:1060DC004141413E7F090909063E4151215E7F093C
:1060EC00192946264949493203017F01033F4040A3
:1060FC00403F1F2040201F3F4038403F631408148E
:10610C006303047804036159494D43007F414141C5
:10611C000204081020004141417F040201020440A6
:10612C0040404040000307080020545478407F282A
:10613C004444383844444428384444287F38545420
:10614C00541800087E090218A4A49C787F08040443
:10615C007800447D40002040403D007F10284400E2
:10616C0000417F40007C047804787C080404783873
:10617C0044444438FC1824241818242418FC7C08A3
:10618C00040408485454542404043F44243C404020
:10619C00207C1C2040201C3C4030403C44281028D3
:1061AC00444C9090907C4464544C4400083641001C
:1061BC000000770000004136080002010204023C96
:1061CC002623263C1EA1A161123A4040207A385465
:1061DC0054555921555579412154547841215554E0
:1061EC00784020545579400C1E5272123955555531
:1061FC0059395454545939555454580000457C411C
:10620C000002457D420001457C40F0292429F0F034
:10621C00282528F07C545545002054547C547C0A85
:10622C00097F4932494949323248484832324A4852
:10623C0048303A4141217A3A42402078009DA0A052
:10624C007D39444444393D4040403D3C24FF2424A6
:10625C00487E4943662B2FFC2F2BFF0929F620C0C3
:10626C00887E090320545479410000447D41304814
:10627C00484A32384040227A007A0A0A727D0D1957
:10628C00317D2629292F28262929292630484D40B9
:10629C0020380808080808080808382F10C8ACBAB5
:1062AC002F102834FA00007B000008142A14222234
:1062BC00142A1408AA005500AAAA55AA55AA000027
:1062CC0000FF00101010FF00141414FF001010FF3A
:1062DC0000FF1010F010F0141414FC001414F7004C
:1062EC00FF0000FF00FF1414F404FC141417101F1B
:1062FC0010101F101F1414141F00101010F00000A9
:10630C0000001F101010101F10101010F0100000C3
:10631C0000FF101010101010101010FF10000000D3
:10632C00FF140000FF00FF00001F10170000FC040A
:10633C00F414141710171414F404F40000FF00F7ED
:10634C0014141414141414F700F714141417141050
:10635C00101F101F141414F4141010F010F000007F
:10636C001F101F0000001F14000000FC140000F0A0
:10637C0010F01010FF10FF141414FF141010101F45
:10638C0000000000F010FFFFFFFFFFF0F0F0F0F056
:10639C00FFFFFF0000000000FFFF0F0F0F0F0F3873
:1063AC00444438447C2A2A3E147E02020606027EAD
:1063BC00027E0263554941633844443C04407E20CC
:1063CC001E2006027E020299A5E7A5991C2A492ADD
:1063DC001C4C7201724C304A4D4D3030487848306C
:1063EC00BC625A463D3E494949007E0101017E2A64
:1063FC002A2A2A2A44445F444440514A4440404497
:10640C004A51400000FF0103E080FF000008086BC8
:10641C006B083612362436060F090F0600001818C2
:10642C000000001010003040FF0101001F01011E90
:10643C0000191D1712003C3C3C3C00000000000001
:10644C000000000000000000000000000000000040
:10645C00794C0B007D530B009D400B0091490B00B8
:10646C00B74A0B00D34A0B004F4A0B00ED4A0B0006
:10647C00234B0B003F4B0B00000000000000000002
:10648C00AB510B00A1510B0097510B008D510B0020
:10649C0081510B0075510B00055A0B000D5A0B0066
:1064AC0069510B0061510B0057510B004D510B0002
:1064BC003D5A0B000008101820283038617070000D
:1064CC0025592D256D2D25645425483A254D3A2501
:1064DC0053257A0061736374696D650000000000D8
:1064EC000000000009560B00F9550B00FB550B0082
:1064FC000000000000000000EF560B0057570B0087
:10650C002D570B007D530B001F570B00F1560B0042
:10651C0001570B0051570B0011570B00E9560B009C
:10652C000000000000000000E9570B0055580B005C
:10653C002D580B007D530B00FD570B0019580B0009
:10654C000B580B0027580B00EB570B00EF570B00A9
:10655C0000000000000000008D580B00D7580B0005
:10656C00AF580B008F580B00B7580B00BF580B00DF
:10657C00C7580B00CF580B000000000000000000B3
:10658C00A7590B009D590B0093590B0049590B004F
:10659C0087590B007B590B00055A0B000D5A0B0049
:1065AC006F590B0067590B005D590B0053590B00C9
:1065BC003D5A0B000000000000000000C5590B0004
:1065CC00CF590B00D9590B00E3590B00ED590B00B7
:1065DC00F9590B00055A0B000D5A0B00155A0B00FC
:1065EC00215A0B00295A0B00335A0B003D5A0B0051
:1065FC00005245454E54206D616C6C6F6320737571
:10660C0063636565646564002F6D6E742F776F72BC
:10661C006B73706163652F776F726B7370616365F9
:10662C002F4743432D31302D706970656C696E6551
:10663C002F6A656E6B696E732D4743432D31302D78
:10664C00706970656C696E652D34385F323032302C
:10665C00313132345F313630363138303634312FD7
:10666C007372632F6E65776C69622F6E65776C69D8
:10667C00622F6C6962632F7374646C69622F726130
:10668C006E642E630000000035420B00B5510B0008
:10669C0049530B006D530B0089540B0099540B009C
:1066AC00B5540B00B1590B00155B0B00000000003A
:0466BC0000000000DA
:1066C000040000001400000003000000474E5500C5
:1066D0002AF6387E19EBAB5A619FDF74D454FA9EC8
:0466E000106ECB9ECF
:0466E40000000000B2
:1066E800020000000400000003000000000103078E
:1066F8000F1F3F7F0080C0E0F0F8FCFE00000000A4
:106708000000000000000000000000000000000081
:106718000000000000000000000000000000000071
:106728000000000000000000000000000000000061
:1067380000000000000000000000008080800000D1
:10674800000000000000000000000000008080C081
:10675800C000000000000000000000000000000071
:106768000000000000000000000000000000000021
:106778000000000000000000000000000000000011
:106788000000000000000000000000000000000001
:1067980080C0E0F0F8FCF8E0000000000000000015
:1067A80000000000000000000080808080800080E1
:1067B8008000000000808080808000FFFFFF0000D4
:1067C80000008080808000008080000080FFFF80C3
:1067D8008000808000808080800080800000000031
:1067E80000808000008C8E84000080F8F8F880001B
:1067F800000000000000000000000000F0F0F0F0D1
:10680800F0F0F0F0F0F0F0F0E0E0C08000E0FCFE26
:10681800FFFFFF7FFFFFFFFFFF00000000000000F9
:1068280000000000000000FEFFC70101010183FF16
:10683800FF00007CFEC70101010183FFFFFF003854
:10684800FEC78301010183C7FFFF000001FFFF01AD
:106858000100FFFF0701010100007FFF8000000029
:10686800FFFF7F0000FFFFFF000001FFFFFF0100A7
:10687800000000000000000000000000030F3F7F40
:106888007FFFFFFFFFFFFFFFE7C7C78F8F9FBFFF98
:10689800FFC3C0F0FFFFFFFFFFFCFCFCFCFCFCFC9F
:1068A800FCF8F8F0F0E0C000010303030303010360
:1068B80003000000000103030303010103010000BA
:1068C80000010303030301010303000000030300A5
:1068D800000003030000000000000001030303039D
:1068E8000301000000010301000000030301000090
:1068F8000000000000000000000000000000008010
:10690800C0E0F0F9FFFFFFFFFF3F1F0F87C7F7FF4A
:10691800FF1F1F3DFCF8F8F8F87C7DFFFFFFFFFF25
:10692800FFFFFF7F3F0F070030300000000000002E
:10693800000000000000000000000000000000004F
:10694800FEFEFC0000000000000000000000000047
:10695800000000000000000000E0C000000000008F
:1069680000000000000030300000000000000000BF
:1069780000000000000000000000000000C0FEFF52
:10698800FFFFFFFFFFFFFFFF7F7F3F1F0F071F7FF7
:10699800FFFFF8F8FFFFFFFFFFFEF8E0000000012F
:1069A8000000000000000000FEFE000000FCFEFCED
:1069B8000C06060EFCF80000F0F81C0E0606060C85
:1069C800FFFFFF0000FEFE00000000FCFEFC0018B8
:1069D8003C7E66E6CE84000006FFFF0606FCFEFC51
:1069E8000C0606060000FEFE0000C0F8FC4E4646F7
:1069F800464E7C7840183C76E6CECC8000000000FD
:106A0800000000000000000000000000000000007E
:106A180001070F1F1F3F3F3F3F1F0F0300000000EC
:106A280000000000000000000F0F0000000F0F0F13
:106A3800000000000F0F000003070E0C18180C06CA
:106A48000F0F0F0000010F0E0C180C0F07010004A8
:106A58000E0C180C0F070000000F0F00000F0F0F8F
:106A68000000000000000F0F00000007070C0C18C2
:106A78001C0C060600040E0C180C0F070000000082
:106A880000000000000000000000000000000000FE
:106A980000000000000000000000000000000000EE
:106AA80000000000000000000000000000000000DE
:106AB80000000000000000000000000000000000CE
:106AC80000000000000000000000000000000000BE
:106AD80000000000000000000000000000000000AE
:106AE800000000000000000000000000000000009E
:106AF800000000000000000000000000E0640B003F
:106B08000CE6032000000000000000000000000068
:106B1800000000000000000000000000000000006D
:106B2800000000000000000000000000000000005D
:106B3800000000000000000000000000000000004D
:106B4800000000000000000000000000000000003D
:106B5800000000000000000000000000000000002D
:086B680000000000ECE703202F
:106B7000FFFFFFFF00000102030405060708090AE2
:106B80000B0C0D0E0F101112131415161718191ADD
:086B90001B1C1D1E1F20280024
:046B980078563412E5
:04000003B000401CED
:00000001FF
