:02000002B0004C
:1040000000400B005C840B00000006000C00050261
:084010000401A60F00000000EE
:044018003C710B00EC
:10401C0009480A49884208B505D0094A824202D0AB
:10402C00121A02F0C1FF0748074A0021121A02F0C7
:10403C00C9FF014808BD00BF2CE10320787F0B00AD
:10404C00E8E50320E8E50320EDE7032070B5074E13
:10405C00074C01F0BFFFA41BA4080025AC4200D103
:10406C0070BD56F8043B98470135F7E7287F0B00E5
:10407C004C7F0B0000F052BA08B500F0EFFABDE827
:10408C00084001F05FBF01F0D1BB01F0CFBB01F0E4
:10409C00D5BB000008B5034A03490C2001F01AFBFC
:1040AC00FEE700BFD1530B0050710B000078B0FA43
:1040BC0080F04009704701230370704770B50C1EE7
:1040CC00064615460BDA0A2A09D12D2101F06AFEA3
:1040DC006142EAB23046BDE8704001F07CBE214638
:1040EC00F7E70EB403B503AB002153F8042B01938F
:1040FC0001F08FFE02B05DF804EB03B070470000D6
:10410C0038B584690A4B036005467CB16368013B92
:10411C0063605BB9236820469B689847A368013BA2
:10412C00A3601BB923682046DB689847284638BD36
:10413C00E07C0B0010B50446FFF7E2FF20461C2183
:10414C00FFF7A5FF204610BD2DE9F0418CB00546C8
:10415C000F4668467749DDF8488014461E4601F044
:10416C0044FDDFF828E27449DEF800307348744AE5
:10417C00DFF81CC2AB4219D10B68BB4216D10368E5
:10418C00A34213D11368B34210D1DCF8003043457D
:10419C000CD102F041F86B49FFF7A3FF00246846ED
:1041AC0001F0D8FC20460CB0BDE8F081CEF80050F0
:1041BC000F6004601660CCF80080002F00F0B58012
:1041CC006149684601F03FFD694608A801F030FDE1
:1041DC000A22414604A801F048FD04A908A801F0F0
:1041EC008CFD5A4901F095FD0146684601F011FD20
:1041FC0004A801F0AFFC08A801F0ACFC694608A8C3
:10420C0001F016FD0A22314604A801F02EFD04A986
:10421C0008A801F072FD4E4901F07BFD014668468D
:10422C0001F0F7FC04A801F095FC08A801F092FC41
:10423C00694608A801F0FCFC0A22214604A801F0FA
:10424C0014FD04A908A801F058FD424901F061FDD4
:10425C000146684601F0DDFC04A801F07BFC08A8CF
:10426C0001F078FC3C493D480023502202F062F9F1
:10427C000446002893D001F0CFFF394901F0A1FD8D
:10428C0001F0CAFF009901F09CFD3649334801F05A
:10429C0085FD3549314801F081FD34492F4801F045
:1042AC007DFD0A222D482946FFF708FF30492B488F
:1042BC0001F087FD2F49294801F083FD2E4927483D
:1042CC0001F06CFD2449254801F07BFD2B49234866
:1042DC0001F064FD0A220299204801F07CFD1F4880
:1042EC0001F063FD26491D4801F06BFD1B4801F0F0
:1042FC005CFD0099194801F064FD01F08DFF214926
:10430C0001F05FFD01F088FF1449044608A801F094
:10431C00C7FD0899204601F054FD08A801F01AFCCD
:10432C000E4802F0BDFA012439E71749684601F03E
:10433C008AFC97E765750B0054E603205CE60320C6
:10434C004CE6032065710B0081710B0093710B001F
:10435C009B710B00AE710B0024760B00E8E503207B
:10436C00B0710B00C7710B00FB750B00D1710B000A
:10437C00DA710B0003740B00EA710B00F1710B0086
:10438C0002720B0029720B00A3710B0050E6032084
:10439C0058E603201FB525490446684601F025FC64
:1043AC0001F03AFF22462249FFF79BFE214968465D
:1043BC0001F085FC204A2149128851F8241020482C
:1043CC00002302F0B7F828B31E491D4801F0F9FC90
:1043DC001D491B4801F0F5FC1C49194801F0F1FC82
:1043EC001B49174801F0EDFC1A49154801F0D6FCA1
:1043FC00029913480A2201F0EEFC114801F0D5FC99
:10440C000F4801F0D2FC00990D4801F0C7FC0C4894
:10441C0001F0CBFC0A4802F00BF910B1084802F08D
:10442C003FFA684601F096FB04B010BD65750B00B1
:10443C0032720B0040720B0068E1032054E1032040
:10444C0030E603206C730B0094730B00BA730B00F3
:10445C00F7730B00F1710B001FB525490446684634
:10446C0001F0C3FB01F0D8FE22462249FFF739FECA
:10447C002149684601F023FC204A2149128851F851
:10448C0024102048002302F055F828B31E491D487B
:10449C0001F097FC1D491B4801F093FC1C4919487D
:1044AC0001F08FFC1B49174801F08BFC1A49154889
:1044BC0001F074FC029913480A2201F08CFC11489B
:1044CC0001F073FC0F4801F070FC00990D4801F0ED
:1044DC0065FC0C4801F069FC0A4802F0A9F810B11F
:1044EC00084802F0DDF9684601F034FB04B010BD59
:1044FC0065750B000E740B001D740B0068E1032036
:10450C0054E1032030E603206C730B0094730B0012
:10451C00BA730B00F7730B00F1710B0070B500212F
:10452C0094B00D2002F048FB0021022002F044FB65
:10453C0001F072FE4FF4165101F05EFE002000F007
:10454C0051FF42F210750446002000F04BFF001B97
:10455C0061F10001A84271F1000307D201F05CFE89
:10456C0001F04EFE10B901F051F9EDE701F054FEE7
:10457C0001F046FE304D314E01F04EFE304901F057
:10458C000DFC00231A461946686801F0F7F838222A
:10459C00002106A802F016FD4C230193294B02932F
:1045AC000A220023CDE90323194601AA6868059362
:1045BC0001F004F9002368681A46194601F0BEF8A8
:1045CC0000226868114601F0C1F8044628B101F0D8
:1045DC0023FE3146FFF785FDF2E701F01DFE1A4977
:1045EC001A4DFFF77EFD1A483C22022100F018FC00
:1045FC0022462146164800F091FE154800F0A0FB1B
:10460C0040F2DC5001F072FC114800F021FB2888CC
:10461C00012102F0D1FA0F4B2146188802F0CCFA96
:10462C000D4B2146188802F0C7FA2888214614B091
:10463C00BDE8704002F0D1BA18E7032061750B0099
:10464C0049750B0056750B0063750B004CE103208C
:10465C0074E6032050E1032048E1032073B5574B67
:10466C00574C188802F0D2FA564B2060188802F08A
:10467C00CDFA554B24681860544B012C1A6840F045
:10468C008D8002B91C600128514D17D1514A136815
:10469C00012C03F1010313600CD12B684E4E013336
:1046AC0030882B60214602F098FA4C4B1A68002A8D
:1046BC0079D11C6040F2DC5001F018FC4848022112
:1046CC0000F02FFE4648012100F030FE0F22444836
:1046DC00012100F023FE43494148FFF702FD2A68FF
:1046EC0041493F48FFF7FDFC3D4800F029FB40F2F3
:1046FC00DC5001F0FBFB3A4800F0AAFA022002F071
:10470C0085FA3A4B002814BF012200221A70384B4C
:10471C001EBF1A7882F001021A701878002847D050
:10472C000020FFF737FE01F077FD3249FFF7D9FC87
:10473C00314C4FF47A7001F0D9FBFF2501F06CFD80
:10474C0022682E494AF6C873FFF7CBFC00959B23D1
:10475C004AF6C87201212068FFF7F6FC47F2305088
:10476C0001F0C4FB00959B232068254C4AF6C872C7
:10477C000021FFF7E9FC4FF4FA6001F0B7FB0123CD
:10478C0023602068072816DC9B2300954AF6C87224
:10479C000121FFF7D9FC23680133F1E7012A04BF9B
:1047AC0000221A606FE73088002102F016FA81E7C8
:1047BC00FFF752FEBCE702B070BD00BF50E1032012
:1047CC00ACE6032048E103206CE60320A8E60320B6
:1047DC0070E6032068E603204CE10320B0E60320DA
:1047EC0074E6032066750B0075750B0064E60320F8
:1047FC00B4E6032080750B002CE1032094750B00AC
:10480C0060E6032008B51849184801F0EEF9184A7B
:10481C00184B12681A60184A184812685A60184ADD
:10482C0012689A60174A1268DA60174A12681A619D
:10483C00164A12685A61164A12689A6102F07AF89E
:10484C00144802F077F81448042100F0EBF9134BEC
:10485C000022C3E90022A2F580329A60BDE808402C
:10486C00022000F047BF00BF65750B0098E60320DF
:10487C0020E6032004E603203CE10320E8E50320C6
:10488C0044E1032034E1032030E1032038E103202C
:10489C0040E1032030E6032074E6032024E60320E5
:1048AC00F0B5457EBDF81440022D69D0032D00F003
:1048BC009980012D6CD10589D2432A4412B2002A69
:1048CC005DDBB0F90850954259DD0029BEBF5B187D
:1048DC001BB20021B0F90A00CD188542C4BF431A9F
:1048EC001BB2002B4BDDC1F3C400DFF820C102EB7F
:1048FC00C01211F00701DBB20CEB02001AD0C1F1AF
:10490C000805404EEDB2AB42775D3FBFA5EB030E01
:10491C00FF2646FA0EF637401CF80260012C0CBF3D
:10492C003E43BE43AB420CF8026028D308390B441B
:10493C00DBB28030072B19D9012C4FF0FF3518BF93
:10494C000025EDB200F180011A46083AD2B2072ACE
:10495C0001F8805C01F18001F7D8A3F10802C2F3E1
:10496C00C402013200EBC21003F007033BB1264A2C
:10497C00D25C0378012C0CBF134393430370F0BD3E
:10498C004589D2432A44CD180189491B12B209B278
:10499C00002AF4DBB0F90A509542F0DD0029BEBFC5
:1049AC005B181BB20021B0F90870CE18BE42C4BF10
:1049BC006B1A1BB2002BE2DDD010802510FB051109
:1049CC001248014402F0070001228240012CD2B2AD
:1049DC000B440CD18B42D2D011F8010B104301F8CF
:1049EC00010CF7E7CD184189491B09B267E7D2439F
:1049FC00D2B28B42C3D011F8010B104001F8010C5C
:104A0C00F7E700BF74E103206CE103207CE1032095
:104A1C00F0B5457EBDF81440022D34D0032D00F0C6
:104A2C009B80012D37D1D5180289521B12B2002957
:104A3C00C0F29180B0F90A508D4240F38C80002A6C
:104A4C00BEBF9B181BB20022B0F90870D618BE422C
:104A5C00C4BFAB1A1BB2002B7DDDC810802510FB28
:104A6C0005224548024401F0070001218140012C38
:104A7C00C9B2134475D19A426DD012F8010B084398
:104A8C0002F8010CF7E70589C9432944D518428976
:104A9C00521B09B212B200295DDBB0F908508D42ED
:104AAC0059DD002ABEBF9B181BB20022B0F90A00C8
:104ABC00D5188542C4BF831A1BB2002B4BDDC2F341
:104ACC00C400DFF8B4C001EBC01112F00702DBB276
:104ADC000CEB01001AD0C2F10805284EEDB2AB4226
:104AEC00775D3FBFA5EB030EFF2646FA0EF6374067
:104AFC001CF80160012C0CBF3E43BE43AB420CF8CA
:104B0C00016028D3083A1344DBB28030072B19D943
:104B1C00012C4FF0FF3518BF0025EDB200F18001DC
:104B2C001A46083AD2B2072A01F8805C01F18001DA
:104B3C00F7D8A3F10802C2F3C402013200EBC21091
:104B4C0003F007033BB10E4AD25C0378012C0CBF77
:104B5C00134393430370F0BD4589C943294409B2FB
:104B6C0065E7C943C9B29A42F5D012F8010B084067
:104B7C0002F8010CF7E700BF7CE1032074E103208D
:104B8C006CE1032070470000F8B50D1E0646144674
:104B9C001F462DDB00F0CFFBA84229DD002C27DBC4
:104BAC00304600F0CBFBA04222DD304600F0C1FBCA
:104BBC0002281ED0032825D0012804D13389E243D2
:104BCC001A442C4615B2002C2246B8BFE21DD21056
:104BDC00802112FB01550E49012204F007044B57AA
:104BEC0002FA04F464B297420CBF2343A3434B551F
:104BFC00F8BD318972890139E4434D1B14442DB23F
:104C0C0024B2E0E77389013B5B1B25461CB2DAE753
:104C1C007CE1032010B524210446FFF738FA204626
:104C2C0010BD000038B5402204460D46802100F02E
:104C3C00A7FA064B2360FF2384F8213063774FF6E5
:104C4C00FF73E38384F82050204638BD38760B0080
:104C5C0002484FF48062002102F0B4B97CE10320D9
:104C6C0013B50B4C2178BFF35B8F11F001010BD105
:104C7C0020460191FFF71AFA019928B1054800F076
:104C8C0051FE2046FFF717FA024802B010BD00BFD4
:104C9C00B8E60320BCE6032007B590F8223043B1F8
:104CAC000191FFF7DDFF019903B05DF804EB00F013
:104CBC00EDBE0B46817F407F012203B05DF804EB13
:104CCC0001F0B7BF38B590F91D30013304460D46DD
:104CDC001DD090F92100012180B201F07EFF94F9E2
:104CEC001F00002180B201F078FF94F9210000210F
:104CFC0080B201F072FF29462046FFF7CDFF94F9F0
:104D0C0021000121BDE8384080B201F066BF02F0FD
:104D1C000DF894F91B1001F04BFB02F007F8036837
:104D2C0000219B68984702F001F8036829469B68AC
:104D3C00984701F0FBFFBDE8384001F040BB000094
:104D4C00F8B521210446FFF7BDFF00212046FFF7EF
:104D5C00B9FF7F212046FFF7B5FF22212046FFF740
:104D6C00B1FF00212046FFF7ADFF07212046FFF7DA
:104D7C00A9FF94F91D30294F01332AD094F9210051
:104D8C00012180B201F029FF94F91F00012180B2AA
:104D9C0001F023FF94F92100002180B201F01DFFE6
:104DAC00012000F00FFB4FF48065013D17F8011B4B
:104DBC002046ADB2FFF770FF002DF6D1012000F0B8
:104DCC0001FB94F921000121BDE8F84080B201F00B
:104DDC0004BF002501F0AAFF94F91B1001F0E8FABA
:104DEC0001F0A4FF036840219B68984705F1100669
:104DFC00B6B201F09BFF0368795D9B6898476B1C0A
:104E0C009DB2AE42F5D101F091FF01F0D8FAB6F5A2
:104E1C00806F00D1F8BD3546DCE700BF7CE1032094
:104E2C0038B590F91D300177013304460D46C27632
:104E3C0000F0C98090F91F00012180B201F0BCFE86
:104E4C0094F92100012180B201F0B6FE94F82230D1
:104E5C00002B00F0A68094F92100012180B201F012
:104E6C00BCFEFFF7FDFE012100F07AFDFFF7F8FE16
:104E7C00102100F0E5FDFFF7F3FE002100F084FDAA
:104E8C00FFF7EEFE00F058FD94F92000012180B2EE
:104E9C0001F092FE94F92000012180B201F09DFEF8
:104EAC00012001F023F894F92000002180B201F0D8
:104EBC0094FE0A2001F01AF894F92000012180B226
:104ECC0001F08BFE2046AE21FFF7FCFE2046D521DB
:104EDC00FFF7F8FE20468021FFF7F4FE2046A821BC
:104EEC00FFF7F0FE20463F21FFF7ECFE2046D321D2
:104EFC00FFF7E8FE20460021FFF7E4FE20464021A4
:104F0C00FFF7E0FE8D212046FFF7DCFE012D0CBFE4
:104F1C00102114212046FFF7D5FE20462021FFF753
:104F2C00D1FE20460021FFF7CDFE2046A121FFF740
:104F3C00C9FE2046C821FFF7C5FE2046DA21FFF73F
:104F4C00C1FE20461221FFF7BDFE81212046FFF74E
:104F5C00B9FE012D0CBF9F21CF212046FFF7B2FED9
:104F6C00D9212046FFF7AEFE012D0CBF2221F121E5
:104F7C002046FFF7A7FE2046DB21FFF7A3FE2046C5
:104F8C004021FFF79FFE2046A421FFF79BFE204601
:104F9C00A621FFF797FE2046AF21BDE83840FFF76A
:104FAC0091BE94F91D00012180B201F005FE94F927
:104FBC001E00012180B201F0FFFD94F82230002B7D
:104FCC003FF462AF47E701F0B1FE01F0E7F95BE7B0
:104FDC002DE9F04F85B01F46BDF93880BDF83C3047
:104FEC00A8EB0209A7EB010AB9F1000FB8BFC9F190
:104FFC000009BAF1000FB8BFCAF1000AD1458346C7
:10500C000C46154604DD3A462C4647460D4690465E
:10501C00BC4205DD2A464546904622463C4617468C
:10502C003E1BB2B20092A8EB050282EAE271A1EB40
:10503C00E271C6F3C03202FA86F64545B4BF0122CE
:10504C004FF0FF32019176100292BC421CDCDBF86F
:10505C0000200393D145D2F81080C7BF29462246C1
:10506C002A4621465846C047019A039BB61AB1B24C
:10507C0036B2002E05DA029A1544009A56182DB253
:10508C0036B2013424B2E0E705B0BDE8F08F2DE96B
:10509C00F347BDF82C800768BDF92890CDF8008047
:1050AC000446FF6916468A461D46B8472368CDF864
:1050BC00008009F1FF323244DF6951462B4620460D
:1050CC0012B2B8472368CDF800809F6932464B4630
:1050DC0051462046B8476B1E03EB0A012368CDF8F6
:1050EC0028809D6932464B4609B22046AC4602B038
:1050FC00BDE8F047604737B5013B13440468BDF881
:10510C00185001951BB2009364690B46A04703B07D
:10511C0030BD37B5BDF818500468CDE90025013B0A
:10512C000B4464691BB2A04703B030BD2DE9F347B3
:10513C00BDF92890BDF82C80054692460C46CE1839
:10514C00B4420BDA2B68CDF800809F6921464B46A0
:10515C00524628460134B84724B2F1E702B0BDE804
:10516C00F08713B502680191B0F90E100091546AE2
:10517C00B0F90C3000221146A04702B010BD7047A8
:10518C0030B54281C2814FF0FF320024054D42619F
:10519C000122446005600181818104610283827671
:1051AC0030BD00BF6C7B0B002DE9F04F2DED028B59
:1051BC008DB007460491BDF860100591BDF86410E0
:1051CC000691B0F90C1004989DF86850814252DD9C
:1051DC00B7F90E1091424EDD062111FB0504002C8F
:1051EC0049DD02EBC504002C45DD03EB83030B9377
:1051FC0093B2079308339BB2089100240993052CB2
:10520C001CBF2C4B0B9A079E16BF1B1900239B5CD3
:10521C000393049AABB20A9304FB05F313FA82F3DB
:10522C001BB204EB020A08EE103AB0460FFA85F9ED
:10523C000FFA8AFA039BDB072FD5012D3B681FD190
:10524C00D3F810B0059B32B251463846D847039B71
:10525C005B0803930A9B01369844099BB6B2B34290
:10526C001FFA88F8E6D1089B013B013413F0FF03C9
:10527C0064B20893C3D10DB0BDEC028BBDE8F08FC6
:10528C00059ACDE9009218EE101AD3F824B00FFA53
:10529C0088F24B463846D847D9E7DDE905239342D7
:1052AC00D5D0012D3B6803D1D3F810B0069BCAE7CB
:1052BC00069AE6E768760B0030B50A2985B00446F5
:1052CC0007D1027E638A03EBC2036382002323822D
:1052DC0021E00D291FD0037E0293C38A0193838A98
:1052EC000093B0F912200B46B0F91010FFF75CFFD9
:1052FC00207E238A00EB400103EB4103A17E1BB20D
:10530C000246238239B1B4F90C106FF0050505FB88
:10531C0000118B42D6DC012005B030BD01824282E7
:10532C007047012938BF012101767047C182818203
:10533C007047407E7047B0F90C007047B0F90E0012
:10534C007047000008B5024B1B689B68019308BDB1
:10535C006802030008B5024B1B68DB68019308BDAB
:10536C006802030008B5024B1B689B68019308BDDB
:10537C002C02030008B5024B1B68DB68019308BDC7
:10538C002C02030008B5024B1B681B69019308BD76
:10539C002C02030008B5024B1B685B69019308BD26
:1053AC002C02030008B5024B1B685B69019308BD16
:1053BC006C02030008B5024B1B685B68019308BDC7
:1053CC001802030008B5024B1B68DB68019308BD8B
:1053DC001802030008B5024B1B685B69019308BDFA
:1053EC001802030008B5024B1B68DB6D019308BD66
:1053FC001802030008B5024B1B685B6C019308BDD7
:10540C004802030008B5024B1B685B69019308BD99
:10541C006402030008B5024B1B681B6A019308BDAC
:10542C006402030008B5024B1B689B6A019308BD1C
:10543C006402030008B5024B1B68DB68019308BDCE
:10544C003C02030008B5024B1B681B69019308BDA5
:10545C003C02030008B5024B1B685B69019308BD55
:10546C003C02030008B5024B1B689B69019308BD05
:10547C003C02030008B5024B1B68DB69019308BDB5
:10548C003C02030008B5024B1B681B6A019308BD64
:10549C003C02030008B5024B1B689B6A019308BDD4
:1054AC003C02030008B5024B1B681B6C019308BD42
:1054BC003C02030008B5024B1B68DB68019308BD76
:1054CC002802030008B5024B1B689B69019308BDB9
:1054DC002802030008B5024B1B68DB69019308BD69
:1054EC002802030008B5024B1B681B6A019308BD18
:1054FC002802030008B5024B1B685B6A019308BDC8
:10550C002802030008B5024B1B689B6A019308BD77
:10551C002802030008B5024B1B68DB6A019308BD27
:10552C002802030008B5024B1B681B6B019308BDD6
:10553C002802030008B5024B1B685B6B019308BD86
:10554C002802030008B5024B1B681B6C019308BDB5
:10555C002802030008B5024B1B689B69019308BD28
:10556C003802030008B5024B1B68DB69019308BDC8
:10557C003802030008B5024B1B681B6A019308BD77
:10558C003802030008B5024B1B689B6A019308BDE7
:10559C003802030008B5024B1B681B6B019308BD56
:1055AC003802030008B5024B1B689B6B019308BDC6
:1055BC003802030008B5024B1B681B68019308BD39
:1055CC003002030008B5024B1B689B68019308BDB1
:1055DC003002030008B5024B1B68DB68019308BD61
:1055EC003002030008B5024B1B681B69019308BD10
:1055FC003002030008B5024B1B685B69019308BDC0
:10560C003002030008B5024B1B68DB69019308BD2F
:10561C003002030008B5024B1B681B6A019308BDDE
:10562C003002030008B5024B1B685B6A019308BD8E
:10563C003002030008B5024B1B681B6C019308BDBC
:10564C003002030008B5024B1B685B6C019308BD6C
:10565C003002030008B5024B1B681B68019308BDA0
:10566C004C02030008B5024B1B685B68019308BD34
:10567C004C02030008B5024B1B681B69019308BD63
:10568C004C02030008B5024B1B685B69019308BD13
:10569C004C02030008B5024B1B689B69019308BDC3
:1056AC004C02030008B5024B1B68DB69019308BD73
:1056BC004C02030008B5024B1B681B6A019308BD22
:1056CC004C02030008B5024B1B689B6A019308BD92
:1056DC004C02030008B5024B1B685B6B019308BDC1
:1056EC006002030008B5024B1B681B6D019308BDDB
:1056FC006002030008B5024B1B685B68019308BD90
:10570C002002030008B5024B1B685B69019308BDBE
:10571C002002030008B5034B1B68D3F888300193B3
:10572C0008BD00002002030008B5034B1B68D3F82A
:10573C009430019308BD00002002030008B5024B11
:10574C001B685B68019308BD4002030008B5024B5F
:10575C001B689B68019308BD4002030008B5024B0F
:10576C001B68DB68019308BD4002030008B5024BBF
:10577C001B681B69019308BD4002030008B5024B6E
:10578C001B685B69019308BD4002030008B5024B1E
:10579C001B689B69019308BD4002030008B5024BCE
:1057AC001B68DB69019308BD4002030008B5024B7E
:1057BC001B681B6A019308BD4002030008B5024B2D
:1057CC001B689B6A019308BD4002030008B5024B9D
:1057DC001B681B6B019308BD4002030008B5024B0C
:1057EC001B685B6B019308BD4002030008B5024BBC
:1057FC001B681B6C019308BD4002030008B5024BEB
:10580C001B685B6C019308BD4002030008B5024B9A
:10581C001B689B68019308BD4402030008B5024B4A
:10582C001B68DB6B019308BD4402030008B5024BF7
:10583C001B681B68019308BD1C02030008B5024BD2
:10584C001B685B68019308BD1C02030008B5024B82
:10585C001B689B68019308BD1C02030008B5024B32
:10586C001B685B6A019308BD1C02030008B5024B60
:10587C001B68DB6B019308BD1C02030008B5024BCF
:10588C001B681B6C019308BD1C02030008B5024B7E
:10589C001B685B6C019308BD1C020300002240686E
:1058AC001146FFF783BF002240681146FFF796BFF1
:1058BC0040680022FFF78ABF4068002281F0010196
:1058CC00FFF76CBF002340681A461946FFF75EBF0E
:1058DC00002340681A461946FFF750BF0022406863
:1058EC001146FFF743BF002240681146FFF72EBF59
:1058FC00406800220221FFF731BF002340681A469E
:10590C00FFF71CBF024B03225A60024A1A60704711
:10591C00C4E60320A47B0B000021FFF793BE0021FB
:10592C00FFF788BE10B5044608462170FFF76AFEE3
:10593C0000236360204610BD13B504460078FFF7C2
:10594C00EEFF58B9207801904FF6FF71FFF732FE49
:10595C00019802B0BDE81040FFF7DEBF02B010BDE9
:10596C0013B5044600780191FFF7D9FF019948B9A6
:10597C0020780190FFF726FE019802B0BDE8104098
:10598C00FFF7CABF02B010BD13B5044600780191F1
:10599C00FFF7C5FF019948B920780190FFF71AFE6F
:1059AC00019802B0BDE81040FFF7B6BF02B010BDC1
:1059BC00400830B51860002418688842E5B206D952
:1059CC000134082C02D040081860F5E70725024B7B
:1059DC005B5D137030BD00BFD87B0B002DE9F0412F
:1059EC0088B000230446007802930E461746FFF752
:1059FC0096FF054600BB94F800800146142203A8CC
:105A0C0001F0E0FA0B232A4603A94046ADF80C300E
:105A1C00FFF708FE04988DF8075002AB0DF1070252
:105A2C0007FB06F1FFF7C4FF20789DF80710FFF77E
:105A3C00D9FD2078FFF770FF029808B0BDE8F0811F
:105A4C0038B5044600780D46FFF769FF0346D0B918
:105A5C00616899B10C4A12F8010B854202D00133EE
:105A6C00082BF8D10133DBB20122D9402046FFF7D5
:105A7C00B5FF2078BDE83840FFF74EBF20782946A7
:105A8C00FFF7B0FDF5E738BDD87B0B0008B5007803
:105A9C00FFF7B0FDC0B208BD054B02221A60054BE2
:105AAC00054A9A600020C3E90000FFF723BE00BF3F
:105ABC00D8E60320CCE603200000FFFF10B5044617
:105ACC0001F0C8FA013823182046834206D902781F
:105ADC00197800F8011B03F80129F6E710BD70B521
:105AEC000C46911E22291DD8254630B9234430225C
:105AFC009D4210D205F8012BFAE7B0FBF2F602FB3F
:105B0C001600C1B2092894BF30315731C9B205F81B
:105B1C00011B3046E9E7002320462B70FFF7CEFF30
:105B2C00204670BD0020FCE738B5031E0C46154618
:105B3C000EDAB3F1004F4FF02D0214BF5842184645
:105B4C0001230A702A461944FFF7C9FF204638BDC5
:105B5C000123F9E710B504460068FFF76FFE2046F5
:105B6C0010BD10B50446006808B1FFF767FE0023AE
:105B7C00C4E90133236010BD38B504460D460068F6
:105B8C000131FFF763FE10B1C4E90005012038BDF7
:105B9C0010B50368044623B143688B4201D301203E
:105BAC0010BD2046FFF7E8FF0028F9D0A368002BB2
:105BBC00F5D122681370F2E737B50D461146019204
:105BCC000446FFF7E5FF019A28B92046FFF7C9FF05
:105BDC00204603B030BDA2602946206801F0E4F9EC
:105BEC002268A3680021D154F2E7002313B5C0E961
:105BFC00003304468360037341B10846019101F000
:105C0C0029FA019902462046FFF7D6FF204602B03A
:105C1C0010BD884210B5044605D00B682BB18A68BC
:105C2C001946FFF7C9FF204610BDFFF79AFFFAE7A8
:105C3C0010B500230446C0E9003383600373FFF7FB
:105C4C00E8FF204610BD13B5044659B10846019132
:105C5C0001F000FA019902462046FFF7ADFF2046FD
:105C6C0002B010BDFFF77DFFF9E710B504468AB00E
:105C7C000023C4E90033A3602373084601A9FFF78E
:105C8C0053FF01A92046FFF7DEFF20460AB010BDE6
:105C9C0070B505460E4609B9002070BD6AB184681E
:105CAC0014442146FFF774FF0028F5D02868AB6830
:105CBC003146184401F0C6F9AC600120EDE713B58C
:105CCC000446084651B1019101F0C4F9019902460C
:105CDC00204602B0BDE81040FFF7DABF02B010BD9D
:105CEC0007B500238DF80410012201A98DF80530A9
:105CFC00FFF7CEFF03B05DF804FB10B58A680968A6
:105D0C000446FFF7C5FF10B92046FFF72AFF2046CF
:105D1C0010BD13B5044629B92046FFF722FF2046D3
:105D2C0002B010BD0846019101F094F901990246A8
:105D3C002046FFF7ADFF0028EED0F0E70248002325
:105D4C000360FFF757BB00BFDCE60320F8B506463F
:105D5C000D468F180024BD420CD0336815F8011B7A
:105D6C009B6830469847031E01DB1C44F3E7002C6C
:105D7C0008BF1C462046F8BD13B50446084659B169
:105D8C00019101F067F923680199DB68024620460E
:105D9C0002B0BDE81040184702B010BD08B5FFF7BF
:105DAC00EBFF08BD03689B68184738B50D21054605
:105DBC00FFF7F8FF0A2104462846FFF7F3FF2044BB
:105DCC0038BD38B50546FFF7D7FF04462846FFF720
:105DDC00ECFF204438BD30B58BB00023012A8DF880
:105DEC00243098BF0A2209AC0D46B1FBF2F101FB3D
:105DFC00125303F0FF03092B94BF30333733DBB25C
:105E0C00AA4204F8013DEFD92146FFF7B5FF0BB0CC
:105E1C0030BD2DE9F04186B000AF05460E46381D69
:105E2C00142114463B60FFF719FD13280ED8391DB9
:105E3C002846FFF7A1FF04461EB12846FFF7B5FF21
:105E4C00044420461837BD46BDE8F08100F1080334
:105E5C0023F00703E846ADEB030D2246411C3B68DB
:105E6C006846FFF7FBFC69462846FFF785FF0446AA
:105E7C00C546E1E710B50446FFF7ACFAE0602368CD
:105E8C0020465B699847002808DAFFF7A3FAE36815
:105E9C00C01AA3689842F2D34FF0FF3010BD000037
:105EAC0038B50D4607490446FFF79FFE2846FFF715
:105EBC00E1FF002804DBC1B22046FFF711FFF5E734
:105ECC00204638BD65750B00014B024A1A607047BD
:105EDC00E0E60320E87B0B00024B1A68024B1A60C9
:105EEC00704700BF7CE50320E4E603200021FFF7A8
:105EFC0009BC0000014B00229A607047E8E60320C1
:105F0C00014B1860704700BF80E5032008B50B4BB0
:105F1C0043B100F081F903681B699847002801DD43
:105F2C00AFF30080064B43B100F0C0FE03681B6961
:105F3C009847002801DDAFF3008008BD0000000089
:105F4C000000000008B5FFF7E1FFFFF743FA014B33
:105F5C00186008BD40E703200548064A064908B505
:105F6C00121A01F021F8054B054A1A6008BD00BF52
:105F7C0000F4032004F40320747F0B0000F40320CE
:105F8C001E1C279A07B5002300931A466FF0770161
:105F9C00FFF7CAFB03B05DF804FB000007B54388AC
:105FAC000A2B08D0502B0BD1094B1B684BB103B0FB
:105FBC005DF804EB1847FFF7E5FF03B05DF804FB51
:105FCC00002300931A466FF07701FFF7ADFBF4E75F
:105FDC00FCE6032010B512480021FFF757FC114BCB
:105FEC001A68114B9A42114B0CBF012200221A70F5
:105FFC0001D0FFF7B1FFFFF7DDF9044600F0EAFF2F
:10600C000B4B13B12046AFF3008000210848FFF77B
:10601C0005FCBDE8104007480021FFF77BBB00BF23
:10602C000D5F0B0000F403201E1C279AF8E60320DA
:10603C0000000000A95F0B00704710B51821044642
:10604C00FEF725F8204610BDF0B5037D062B8DB06C
:10605C000E4600F104074FF0000412D000F10805C1
:10606C0015F8011D0A223046FFF7B5FEAF42044475
:10607C0019D0002CF4D02E213046FFF793FE0444A7
:10608C00EEE72F236A4639460A208DF80040FFF7C9
:10609C00B9F9684600F0DEFF33680246DB686946F2
:1060AC0030469847044620460DB0F0BD10B5054B60
:1060BC000446112240F8043B002100F083FF2046E7
:1060CC0010BD00BF107C0B000346074A10B543F807
:1060DC00042B01F1100251F8044B43F8044B91428C
:1060EC00F9D10A781A7010BD107C0B00037D042BBB
:1060FC0004D14068003818BF01207047062B07D127
:10610C0043683BB983682BB9C3681BB90069F1E7D5
:10611C00002070470120704710B59DF8084044EAF4
:10612C00032343EA024242EA0161042341600375FE
:10613C0010BD000007B5064B0360CB7800938B783D
:10614C004A780978FFF7E8FF03B05DF804FB00BF5D
:10615C00107C0B00417470477047704708B50021E4
:10616C00007CFFF797FA40EAE07008BD08B5012102
:10617C00007CFFF78FFA40EAE07008BD08B5007CA0
:10618C00FFF780FA20EAE07008BD08B5007CFFF745
:10619C0071FA20EAE07008BD13B50446007C019149
:1061AC00FFF770FA0028019901DC607C20B1207C9B
:1061BC00FFF778FA20EAE07002B010BD007CFFF720
:1061CC0079BA10B514210446FDF761FF204610BDC5
:1061DC0010B54FF47A73044608460021C4E9011344
:1061EC00044B23600123207463741146FFF732FAC9
:1061FC00204610BD247C0B00007C0022FFF732BA35
:10620C00007CFFF75FBA10B514220446002100F0A1
:10621C00D9FE204610BD000010B50F4C88B003A865
:10622C00FFF7F1FF2178BFF35B8F11F001010FD164
:10623C0020460191FDF73AFF019948B103AA07489E
:10624C00FFF7C6FF2046FDF736FF054800F0A6FE17
:10625C00024808B010BD00BF00E7032004E703208C
:10626C0065610B0070474174704708B5007CFFF7FF
:10627C0011F920EAE07008BD08B5007CFFF7E2F8E0
:10628C0020EAE07008BD08B5007CFFF7EBF840EAA7
:10629C00E07008BD08B5007CFFF7DCF840EAE07060
:1062AC0008BD007CFFF7E6B837B5457C04462DB138
:1062BC00207C03B0BDE83040FFF7BCB8007C0191F6
:1062CC00FFF7E8F800280199F2DC284603B030BD4E
:1062DC0010B514210446FDF7DAFE204610BD00006F
:1062EC0010B54FF47A730446084611460022C4E9EF
:1062FC000123044B2360012320746374FFF7D2F84D
:10630C00204610BD547C0B007047F8B50646154668
:10631C000C468F18BC4206D0336814F8011B9B68DE
:10632C0030469847F6E72846F8BD007C0022FFF778
:10633C00D9B8007C0021FFF7DDB8007C0021FFF705
:10634C00E1B8007C0021FFF7E5B8007C0021FFF7E5
:10635C00E9B810B514210446FDF799FE204610BD8E
:10636C0038B5044615464FF47A730022C4E901236C
:10637C00094B2174084623602946FFF7E3F8BF3028
:10638C0008D16B69DB0705D56868FFF757FAE86831
:10639C00FFF754FA204638BD847C0B000023007CA8
:1063AC001A461946FFF786B8007C0022FFF78AB818
:1063BC00C9B2FFF7F9BF007C0022FFF78BB80121AF
:1063CC00FFF7F9BF13B503688DF80710DC6B0122DA
:1063DC004FF0FF330DF10701A04702B010BD10B410
:1063EC000368DC6B4FF0FF33A4465DF8044B604749
:1063FC0013B5134602688DF80710D46B0DF1070125
:10640C000122A04702B010BD10B54369B3F8862035
:10641C00B3F884309A42044608D06369B3F88420F8
:10642C00511CA3F884101344187910BD03681B6920
:10643C0098470028F1D14FF0FF30F6E770474369D9
:10644C001868C043C00F704770470000064B994254
:10645C0010B500F10C0405D0084600F08DFC0028A6
:10646C0008BF0024204610BDE07B0B0010B5AC210A
:10647C000446FDF70CFE204610BDAC21FDF707BE0F
:10648C002DE9F0414FF0000886B01C46C0F804809E
:10649C0005460E4617464146102202A800F092FD12
:1064AC00631C09D04FF47A73B4FBF3F203FB124470
:1064BC00CDE902285C4304946869102300930068BA
:1064CC0002AB41F2050240F6FF71FFF743F80028DA
:1064DC0007DAFFF7CBF903686B60002006B0BDE864
:1064EC00F0816869002300683A463146FFF752F89C
:1064FC00031EEEDB1846F1E730B587B0044601AD5C
:10650C006846FFF717FE0FCD04340FC42B682370B9
:10651C0007B030BD70B54D69054B04468C3544F859
:10652C00043B06460FCD0FC42B682370304670BD5C
:10653C00107C0B002DE9F0439846036893B00D4690
:10654C000024DB6A06461746984728466B462246C7
:10655C0021460094FEF7FEFE0546002863D1009B01
:10656C00002B4BD05B69002B48D006A8FFF79EFD93
:10657C00009B5C696378022B04D1211D06A8FFF7F0
:10658C00BBFF26E00A2B24D11122294601A800F0DA
:10659C0019FDA368002B38D004F108030DF1040C8D
:1065AC00183418685968624603C20833A3429446EB
:1065BC00F7D1062301A90CA88DF81430FFF784FD40
:1065CC000DF1340CBCE80F0007AC0FC4DCF8003044
:1065DC00237006A8FFF78AFD80B1336807ADD3F8A6
:1065EC002090124B0C930FCD0DAC0FC42B68237065
:1065FC003A4643460CA93046C84705460098FEF774
:10660C00A1FE284613B0BDE8F083E368002BC3D18C
:10661C004FF6FF70D4F81090FEF7FCFE8145BBD10D
:10662C0004F11401AAE72546E8E700BF107C0B0033
:10663C0038B543691A68002A054610DAB3F8862083
:10664C00B3F884309A420AD103681B699847044610
:10665C0028B92B682846DB6A9847204638BD0120AC
:10666C00FCE710B54369B3F88620B3F884309A423E
:10667C00044605D06369B3F884201344187910BD1F
:10668C0003681B6998470028F4D14FF0FF30F6E7F8
:10669C00F8B543691746B3F88620B3F884309A42AC
:1066AC0005460E4616D06969B1F88430B1F88640BB
:1066BC00E41ABC4228BF3C460433224619443046F7
:1066CC0000F072FC6A69B2F884302344A2F884307A
:1066DC002046F8BD03681B6998470028E3D14FF0AA
:1066EC00FF34F5E742690023A2F884304269A2F82E
:1066FC00863070472DE9F0411F4603680C46DB6A73
:10670C008AB0054616469847237DD5F81480042B8D
:10671C000CBF02200A2006220121FEF743FFC8F815
:10672C0000006B691B68002B08DA2B682846DB6AB3
:10673C000024984720460AB0BDE8F0812846FFF7B0
:10674C00D1FFB7B1002303A9F8B20393ADF8103011
:10675C00FEF728FE0028E8D168690623009300683C
:10676C0003AB41F20B0240F6FF71FEF7F3FE00287B
:10677C00DBD11C22002103A800F024FC237D042B78
:10678C001DD14FF407733046ADF80C30FEF74AFEBE
:10679C00ADF80E006068FEF73DFE04906B691C229C
:1067AC00186803A9FEF7E6FE0028BED104340FCC0E
:1067BC006D698C350FC523682B700124BAE740F640
:1067CC001C233046ADF80C30FEF72CFE05AEADF8B0
:1067DC000E00231D04F1140718685968324603C2D1
:1067EC000833BB421646F7D1D8E7000030B54269F2
:1067FC00B2F886308BB004462BB1B2F884209A42A2
:10680C0001D1FFF76FFF61690868002818DBB1F848
:10681C0086507F2D14D804310823C5F180022944F9
:10682C00FEF7B0FE002813DD6369B3F886200AB9C1
:10683C00A3F884206369B3F886201044A3F886007B
:10684C006369B3F88600B3F88430C01A0BB030BD5E
:10685C00FFF70CF803680B2BF2D0FFF707F803686F
:10686C000B2BEDD020230025CDE90235FEF7FEFFE2
:10687C0003680193084B0949009302AA2B46322066
:10688C00FEF730FF63691868FEF76CFE63694FF022
:10689C00FF321A60D4E700BFAB7C0B00A47C0B006A
:1068AC0010B5436904461868002801DBFEF75AFE50
:1068BC0063694FF0FF321A606069112200218C303D
:1068CC0000F080FB2046BDE81040FFF70BBF10B571
:1068DC00002304460160C0F884308830FFF7E6FBE3
:1068EC00204610BD73B500234FF47A72C0E9013213
:1068FC000E4A0361026043610446AC200191FDF72E
:10690C00C2FB051E05F10C0608D00123C5E90133B5
:10691C00074B01992B603046FFF7D9FF2046C4E99D
:10692C000565FFF7DFFE02B070BD00BFE07C0B0019
:10693C00C47C0B0010B54FF0FF310446FFF7D2FFBB
:10694C00204610BD10B504460068002801DBFEF798
:10695C0009FE204610BD0C30FFF7F4BF0022406842
:10696C001146FEF703BF002240681146FEF71EBF1A
:10697C00002240681146FEF731BF40680022FEF746
:10698C0025BF4068002281F00101FEF707BF0023FC
:10699C0040681A461946FEF7F9BE002340681A46AD
:1069AC001946FEF7EBBE002240681146FEF7CEBE3C
:1069BC00406800220221FEF7D1BE002340681A462F
:1069CC00FEF7BCBE024B04225A60024A1A607047A2
:1069DC0018E703202C7D0B00002340681A46FEF7B5
:1069EC00ADBE406800220221FEF7B8BE002240680E
:1069FC001146FEF7ABBE002240681146FEF7B6BE4C
:106A0C00002340681A461946FEF7B8BE00234068BA
:106A1C001A461946FEF7BABE40680021FEF7E6BEDC
:106A2C0040680021FEF7EABE4068002281F00101B7
:106A3C00FEF7B4BE40680022FEF7C8BE00224068D4
:106A4C001146FEF7CBBE002240681146FEF7AEBEE3
:106A5C002DE9F04395B014460D460746FFF726FB8B
:106A6C0000211C220DA8009100F0ACFA40230C93DD
:106A7C0020466B460CAA0021FEF76CFC044600284D
:106A8C004BD1024601216868FEF770FE0221804658
:106A9C0022466868FEF76AFE009E81462146002E5B
:106AAC003BD0002939D17368022B03D00A2B11D0AB
:106ABC00F669F4E7B8F1000FFAD0716906A8043151
:106ACC0007ADFFF737FB0FCD3C1D0FC42B682370B0
:106ADC004146EDE7B9F1000FEAD07469102201A824
:106AEC0000F070FA06238DF8143001AD04F10803A0
:106AFC001834186859682A4603C20833A34215464D
:106B0C00F7D101A906A807ADFFF7DEFA0FCD3C1DA2
:106B1C000FC42B6823704946CAE70098FEF712FC95
:106B2C00384615B0BDE8F083024B034A1A600022C8
:106B3C005A60704720E70320687D0B00232813B5AB
:106B4C0002D9002002B010BDA0F10B03022B1AD801
:106B5C00174C2178BFF35B8F11F001010BD120464C
:106B6C000191FDF7A3FA019928B11248FEF7DAFE5C
:106B7C002046FDF7A0FA0F4B1878FEF74BFD0028C6
:106B8C00DFD10120DEE7012809D800F0CFF8002181
:106B9C00007CFEF7CFFC80F00100C0B2D2E70938D0
:106BAC000128EED800F082F8007CFEF76BFCF2E7CF
:106BBC00B8E60320BCE60320232838B504460D466E
:106BCC000AD8FF2908D0FFF7B9FF28B1294620467B
:106BDC00BDE83840FEF7C6BB38BD38B504460D4697
:106BEC00FEF7C8FBFF2810D0062804D84D2323FA43
:106BFC0000F0C30709D42046FFF7A0FF28B12946AF
:106C0C002046BDE83840FEF7BDBB38BD10B5044684
:106C1C00FEF7B0FB031FDBB2012B08D92046FFF7B0
:106C2C008DFF20B12046BDE81040FEF7B3BB00201D
:106C3C0010BD2DE9F04190461F46072406460D462F
:106C4C00C4F10701B8F1000F12D147FA01F101F0BC
:106C5C0001013046FFF7C1FF01212846FFF7BDFFB8
:106C6C0000212846FFF7B9FF013CE9D2BDE8F081CD
:106C7C0047FA04F1EBE7704738B5044614252A4669
:106C8C00002100F09FF925804025074925812846E1
:106C9C00258200F06FF804496060284600F06AF81D
:106CAC00E060204638BD00BF9C7D0B0030B50E4D1A
:106CBC002978BFF35B8F11F0010487B011D12846FE
:106CCC00FDF7F4F968B101A8FFF7D6FF01AA214638
:106CDC000648FFF705FB2846FDF7EDF9044800F0E0
:106CEC005DF9024807B030BD28E703202CE70320EC
:106CFC00836C0B007047000038B50A4B036001230E
:106D0C00044643610849202000F034F820256060D7
:106D1C000549A560284600F02DF8C4E90305204676
:106D2C0038BD00BF180001009C7D0B0030B50E4D26
:106D3C002978BFF35B8F11F0010487B011D128467D
:106D4C00FDF7B4F968B16846FFF7D6FF6A462146ED
:106D5C000648FFF705FB2846FDF7ADF9044800F09F
:106D6C001DF9024807B030BD44E7032048E7032073
:106D7C00016D0B00FDF789B9014900F0F9B800BFAE
:106D8C00B87D0B007FB500241023CDE902340368D5
:106D9C0015469E6912686B46CDE90044B0479DF8D4
:106DAC00043003F00603062B03BF009B2B6001206D
:106DBC00204604B070BD0098904214BF01200620FC
:106DCC007047000010B5034B0360044600F0CDF88B
:106DDC00204610BDF87D0B0010B50446FFF7F2FFFE
:106DEC0020460821FDF753F9204610BD2DE9F0414E
:106DFC001F46DDE90834DDF818809845064615462F
:106E0C0007D1079900F0B4F818B165710020BDE8FE
:106E1C00F0813946304600F0ABF80028F6D001235B
:106E2C00C4F800802571A371F0E738B515461C46EF
:106E3C0000F09EF820B10823E3600623256023713F
:106E4C0038BD73B505460C4601921E4600F090F80D
:106E5C0050B9032E08D82368019A5B69294620464D
:106E6C0002B0BDE87040184702B070BD10B5034BBE
:106E7C0003600446FFF7A6FF204610BD587E0B00AA
:106E8C0010B50446FFF7F2FF20460C21FDF7FFF882
:106E9C00204610BDF7B5089F974205460E4614468E
:106EAC000AD0A86802680897156A31462246AC4693
:106EBC0003B0BDE8F04060471946019300F058F864
:106ECC00019B0028EDD0062003B0F0BD2DE9F14F59
:106EDC000D461946DDE90A4BDDE90CA6814617463D
:106EEC00984600F045F890B1002D3460377109DBFD
:106EFC0061198A450CBF06210121B171002001B036
:106F0C00BDE8F08F0235F9D10123B371F6E7544592
:106F1C0006D15946484600F02BF808B17771EDE7D9
:106F2C00D9F808000368CDE90CA6CDE90A4BDC6959
:106F3C003A4643462946A44601B0BDE8F04F6047A7
:106F4C002DE9F04107460C4615461E46FFF76DFF2E
:106F5C0048B9B86803689F692A4633462146BC463F
:106F6C00BDE8F0416047BDE8F081704700207047F4
:106F7C00814208B50ED0406803782A2B0CD04968A2
:106F8C000B782A2B08BF013100F052F8B0FA80F0D0
:106F9C00400908BD0120FCE70020FAE70023014668
:106FAC001A46184600F05EB80A44914200F1FF33CD
:106FBC0000D1704710B511F8014B03F8014F914205
:106FCC00F9D110BD02440346934200D1704703F837
:106FDC00011BF9E738B5104B1D68AB6B0446B3B910
:106FEC001820FEF723FC0246A86320B90B4B0C4873
:106FFC004221FEF743FC0B490B4BC0E900130B4B32
:10700C0083600B23838100210120C2E90401AB6B57
:10701C0000221C615A6138BD80E50320917E0B0073
:10702C00A87E0B000E33CDAB34126DE6ECDE050002
:10703C0010F8012B11F8013B012A28BF9A42F7D016
:10704C00D01A7047034611F8012B03F8012B002AC4
:10705C00F9D17047034613F8012B002AFBD1181AFB
:10706C00013870472DE9F843DFF8B8800646D8F8A8
:10707C0000001F460D46914600F056F8254B1C6843
:10708C0034B9254C1C60254B13B11B68C4F88830EF
:10709C0063681F2B07DDD8F8000000F047F84FF0AD
:1070AC00FF30BDE8F8834EB3D4F8880088B91C4B88
:1070BC0023B9D8F8000000F038F8F0E74FF48470EA
:1070CC00FEF7B4FB0028F4D00023C0E94033C4F829
:1070DC008800636840F8239001229A4000EB8301FA
:1070EC00D0F800311343C0F80031022EC1F8807083
:1070FC0002BFD0F804311343C0F804316368D8F8E8
:10710C0000005A1C0233626044F8235000F00EF861
:10711C000020C6E7E8E703205CE70320000000003E
:10712C0039580B00E4E503207047704770470000A6
:10713C001D400B0059400B0081400B0085400B009B
:10714C000000000043616C6C206F6E2070757265DE
:10715C00207669727475616C004E6F204368616EA5
:10716C006765202D2043616E63656C6C696E6720CA
:10717C00434D440A007B226F6E223A747275652C63
:10718C0022736174223A002C22627269223A002C1A
:10719C0022687565223A007B226F6E223A66616C1A
:1071AC0073657D0053656E64696E6720436F6D6D0A
:1071BC00616E6420746F2048756500505554202F03
:1071CC006170692F002F6C69676874732F002F73BF
:1071DC007461746520485454502F312E3100486F1F
:1071EC0073743A2000436F6E74656E742D4C656E2B
:1071FC006774683A2000436F6E74656E742D547911
:10720C0070653A20746578742F706C61696E3B639D
:10721C006861727365743D5554462D380046726F23
:10722C006D20487565005377697463684F4E20254F
:10723C0069200A003C3F786D6C2076657273696F2B
:10724C006E3D22312E302220656E636F64696E674D
:10725C003D227574662D38223F3E3C733A456E765E
:10726C00656C6F706520786D6C6E733A733D226837
:10727C007474703A2F2F736368656D61732E786D1B
:10728C006C736F61702E6F72672F736F61702F65E7
:10729C006E76656C6F70652F2220733A656E636F26
:1072AC0064696E675374796C653D22687474703AC6
:1072BC002F2F736368656D61732E786D6C736F61BE
:1072CC00702E6F72672F736F61702F656E636F64B2
:1072DC00696E672F223E3C733A426F64793E3C756F
:1072EC003A53657442696E617279537461746520A6
:1072FC00786D6C6E733A753D2275726E3A42656CA0
:10730C006B696E3A736572766963653A626173692B
:10731C00636576656E743A31223E3C42696E6172E9
:10732C007953746174653E313C2F42696E61727998
:10733C0053746174653E3C2F753A53657442696EA3
:10734C0061727953746174653E3C2F733A426F6479
:10735C00793E3C2F733A456E76656C6F70653E00D6
:10736C00504F5354202F75706E702F636F6E747264
:10737C006F6C2F62617369636576656E743120483A
:10738C005454502F312E3100436F6E74656E742D32
:10739C00547970653A20746578742F786D6C3B2045
:1073AC00636861727365743D7574662D3800534F54
:1073BC004150414354494F4E3A202275726E3A4225
:1073CC00656C6B696E3A736572766963653A626176
:1073DC007369636576656E743A31235365744269DB
:1073EC006E61727953746174652200436F6E6E65C1
:1073FC006374696F6E3A206B6565702D616C69768C
:10740C0065007377697463684F4646202569200AC6
:10741C00003C3F786D6C2076657273696F6E3D220F
:10742C00312E302220656E636F64696E673D227564
:10743C0074662D38223F3E3C733A456E76656C6F10
:10744C00706520786D6C6E733A733D22687474703D
:10745C003A2F2F736368656D61732E786D6C736F43
:10746C0061702E6F72672F736F61702F656E76650A
:10747C006C6F70652F2220733A656E636F64696E52
:10748C00675374796C653D22687474703A2F2F734E
:10749C006368656D61732E786D6C736F61702E6FA0
:1074AC0072672F736F61702F656E636F64696E679F
:1074BC002F223E3C733A426F64793E3C753A5365D9
:1074CC007442696E617279537461746520786D6C65
:1074DC006E733A753D2275726E3A42656C6B696ECD
:1074EC003A736572766963653A626173696365764E
:1074FC00656E743A31223E3C42696E617279537406
:10750C006174653E303C2F42696E617279537461CF
:10751C0074653E3C2F753A53657442696E6172799D
:10752C0053746174653E3C2F733A426F64793E3CF0
:10753C002F733A456E76656C6F70653E00526561CF
:10754C00647920746F20476F0A00496F544E65743C
:10755C00776F726B002E000A0A0057656C636F6DB3
:10756C00652055206172650A00766973746F723DEF
:10757C0025690A00427574746F6E206973207072ED
:10758C006573736564200A0053657474696E6720B3
:10759C00636F6C6F72206F662062756C6220256958
:1075AC0020746F20636F6C6F722025690A0031396B
:1075BC00322E3136382E312E3330003139322E31D5
:1075CC0036382E312E3331003139322E3136382EB9
:1075DC00312E3332003139322E3136382E312E33B2
:1075EC0033003139322E3136382E312E3334004DB2
:1075FC00516C5A7A69524F30576169354D734D4809
:10760C006C6C3878415541517177383551727238FC
:10761C00744D3337463354003139322E3136382ECF
:10762C00312E35000000000000000000914B0B00D3
:10763C00214C0B00C5520B00595D0B00954B0B00F8
:10764C00DD4F0B001D4A0B00AD480B009B500B008F
:10765C0039510B006F510B008B510B0000000000D7
:10766C00003E5B4F5B3E3E6B4F6B3E1C3E7C3E1CBC
:10767C00183C7E3C181C577D571C1C5E7F5E1C0002
:10768C00183C1800FFE7C3E7FF0018241800FFE7B9
:10769C00DBE7FF30483A060E2629792926407F057C
:1076AC000507407F05253F5A3CE73C5A7F3E1C1C92
:1076BC0008081C1C3E7F14227F22145F5F005F5F52
:1076CC0006097F017F006689956A6060606060943E
:1076DC00A2FFA29408047E040810207E2010080843
:1076EC002A1C08081C2A08081E101010100C1E0C4E
:1076FC001E0C30383E3830060E3E0E0600000000E0
:10770C000000005F00000007000700147F147F14C6
:10771C00242A7F2A1223130864623649562050000B
:10772C0008070300001C2241000041221C002A1CF7
:10773C007F1C2A08083E08080080703000080808E2
:10774C000808000060600020100804023E51494502
:10775C003E00427F400072494949462141494D3320
:10776C001814127F1027454545393C4A4949314187
:10777C00211109073649494936464949291E000055
:10778C0014000000403400000008142241141414AA
:10779C001414004122140802015909063E415D5996
:1077AC004E7C1211127C7F494949363E414141229F
:1077BC007F4141413E7F494949417F090909013EC9
:1077CC00414151737F0808087F00417F41002040F0
:1077DC00413F017F081422417F404040407F021C02
:1077EC00027F7F0408107F3E4141413E7F09090919
:1077FC00063E4151215E7F091929462649494932E5
:10780C0003017F01033F4040403F1F2040201F3FAA
:10781C004038403F6314081463030478040361592F
:10782C00494D43007F414141020408102000414171
:10783C00417F04020102044040404040000307081D
:10784C000020545478407F28444438384444442819
:10785C00384444287F385454541800087E090218C0
:10786C00A4A49C787F0804047800447D4000204048
:10787C00403D007F1028440000417F40007C04788C
:10788C0004787C080404783844444438FC182424D4
:10789C001818242418FC7C08040408485454542454
:1078AC0004043F44243C4040207C1C2040201C3CD1
:1078BC004030403C44281028444C9090907C4464C8
:1078CC00544C44000836410000007700000041365B
:1078DC00080002010204023C2623263C1EA1A161E1
:1078EC00123A4040207A3854545559215555794113
:1078FC002154547841215554784020545579400CEA
:10790C001E527212395555555939545454593955CA
:10791C005454580000457C410002457D420001450D
:10792C007C40F0292429F0F0282528F07C5455457A
:10793C00002054547C547C0A097F4932494949320D
:10794C003248484832324A4848303A4141217A3A22
:10795C0042402078009DA0A07D39444444393D40EC
:10796C0040403D3C24FF2424487E4943662B2FFC99
:10797C002F2BFF0929F620C0887E09032054547947
:10798C00410000447D413048484A32384040227A18
:10799C00007A0A0A727D0D19317D2629292F282695
:1079AC002929292630484D4020380808080808089D
:1079BC000808382F10C8ACBA2F102834FA00007BF6
:1079CC00000008142A142222142A1408AA005500B4
:1079DC00AAAA55AA55AA000000FF00101010FF001B
:1079EC00141414FF001010FF00FF1010F010F0140E
:1079FC001414FC001414F700FF0000FF00FF141413
:107A0C00F404FC141417101F10101F101F1414145E
:107A1C001F00101010F0000000001F101010101F9D
:107A2C0010101010F010000000FF101010101010AB
:107A3C00101010FF10000000FF140000FF00FF00EA
:107A4C00001F10170000FC04F41414171017141462
:107A5C00F404F40000FF00F714141414141414F7B5
:107A6C0000F7141414171410101F101F141414F40E
:107A7C00141010F010F000001F101F0000001F1455
:107A8C00000000FC140000F010F01010FF10FF14A8
:107A9C001414FF141010101F00000000F010FFFF52
:107AAC00FFFFFFF0F0F0F0F0FFFFFF000000000020
:107ABC00FFFF0F0F0F0F0F38444438447C2A2A3E27
:107ACC00147E02020606027E027E02635549416361
:107ADC003844443C04407E201E2006027E0202995B
:107AEC00A5E7A5991C2A492A1C4C7201724C304AF4
:107AFC004D4D303048784830BC625A463D3E49497D
:107B0C0049007E0101017E2A2A2A2A2A44445F4424
:107B1C004440514A444040444A51400000FF010354
:107B2C00E080FF000008086B6B083612362436061E
:107B3C000F090F060000181800000010100030404C
:107B4C00FF0101001F01011E00191D1712003C3C12
:107B5C003C3C0000000000000000000000000000A1
:107B6C000000000000000000C5520B00595D0B0026
:107B7C00A1400B00DD4F0B0003510B001F510B00FC
:107B8C009B500B0039510B006F510B008B510B00AC
:107B9C00000000000000000007590B00FD580B000E
:107BAC00F3580B00E9580B00DD580B00D1580B00B3
:107BBC00256A0B002D6A0B00C5580B00BD580B0035
:107BCC00B3580B00A9580B005D6A0B000008101885
:107BDC0020283038000000000000000061707000A8
:107BEC0025592D256D2D25645425483A254D3A25CA
:107BFC0053257A0061736374696D650000000000A1
:107C0C000000000055600B0045600B0047600B0046
:107C1C00000000000000000067610B00CF610B004A
:107C2C00A5610B00595D0B0097610B0069610B009E
:107C3C0079610B00C9610B0089610B0061610B005C
:107C4C00000000000000000071620B00DD620B0000
:107C5C00B5620B00595D0B0085620B00A1620B0035
:107C6C0093620B00AF620B0073620B0077620B0028
:107C7C00000000000000000015630B005F630B00A8
:107C8C0037630B0017630B003F630B0047630B005C
:107C9C004F630B0057630B00776972696E67007254
:107CAC00656376206572726F72203D20256400003A
:107CBC00000000000000000055640B0079640B000C
:107CCC0063690B0087640B0059640B000000000013
:107CDC00000000000D410B0041410B00D1630B0073
:107CEC00EB630B00F9670B0015640B006F660B0060
:107CFC0049640B0001670B0041650B009D660B008E
:107D0C00AD680B003D660B004B640B00FD630B0074
:107D1C008D640B0021650B000000000000000000CA
:107D2C00C7690B00BD690B00B3690B0069690B00D7
:107D3C00A7690B009B690B00256A0B002D6A0B00D1
:107D4C008F690B0087690B007D690B0073690B0051
:107D5C005D6A0B000000000000000000E5690B00EC
:107D6C00EF690B00F9690B00036A0B000D6A0B003D
:107D7C00196A0B00256A0B002D6A0B00356A0B0083
:107D8C00416A0B00496A0B00536A0B005D6A0B00D9
:107D9C0000537431395F53705F6D616B655F73684D
:107DAC00617265645F74616700000000F87D0B0010
:107DBC009D7D0B00587E0B00CC7D0B007C7E0B0058
:107DCC004E31305F5F637878616269763131375F4D
:107DDC005F636C6173735F747970655F696E666FF6
:107DEC004500000000000000C07D0B00D16D0B00B1
:107DFC00E56D0B00796F0B00796F0B004F6E0B006C
:107E0C00916D0B00376E0B00F96D0B00C36D0B0001
:107E1C00587E0B00287E0B00C07D0B004E31305F6E
:107E2C005F637878616269763132305F5F73695F66
:107E3C00636C6173735F747970655F696E666F45AF
:107E4C0000000000000000001C7E0B00796E0B008F
:107E5C008D6E0B00796F0B00796F0B004F6E0B0062
:107E6C00916D0B004D6F0B00D96E0B00A16E0B00CA
:107E7C00F87D0B00847E0B00537439747970655F48
:107E8C00696E666F005245454E54206D616C6C6F87
:107E9C006320737563636565646564002F6D6E7430
:107EAC002F776F726B73706163652F776F726B7363
:107EBC00706163652F4743432D31302D70697065B8
:107ECC006C696E652F6A656E6B696E732D474343E3
:107EDC002D31302D706970656C696E652D34385F8D
:107EEC0032303230313132345F3136303631383035
:107EFC003634312F7372632F6E65776C69622F6E17
:107F0C0065776C69622F6C6962632F7374646C693A
:107F1C00622F72616E642E630000000011480B002A
:107F2C0011590B00A55A0B00495D0B00D55E0B00D7
:107F3C00E55E0B00015F0B00D1690B00356B0B008C
:047F4C000000000031
:107F5000040000001400000003000000474E55001C
:107F600058FC32400AFE49184670E95E2A9F1C718F
:047F7000133ABFEB16
:047F74000000000009
:107F780001000000C8AF0000E45700008CB9000001
:107F88008813000050C30000102700000200000002
:107F98000400000003000000BA750B00C7750B0051
:107FA800D4750B00E1750B00EE750B0001C00000E5
:107FB800000103070F1F3F7F0080C0E0F0F8FCFEC0
:107FC80000000000000000000000000000000000A9
:107FD8000000000000000000000000000000000099
:107FE8000000000000000000000000000000000089
:107FF80000000000000000000000000000000080F9
:108008008080000000000000000000000000000068
:10801800008080C0C00000000000000000000000D8
:108028000000000000000000000000000000000048
:108038000000000000000000000000000000000038
:108048000000000000000000000000000000000028
:108058000000000080C0E0F0F8FCF8E0000000003C
:108068000000000000000000000000000080808088
:10807800808000808000000000808080808000FF79
:10808800FFFF0000000080808080000080800000EA
:1080980080FFFF808000808000808080800080805A
:1080A8000000000000808000008C8E84000080F8B2
:1080B800F8F8800000000000000000000000000048
:1080C800F0F0F0F0F0F0F0F0F0F0F0F0E0E0C08068
:1080D80000E0FCFEFFFFFF7FFFFFFFFFFF00000047
:1080E8000000000000000000000000FEFFC70101C2
:1080F800010183FFFF00007CFEC70101010183FF2E
:10810800FFFF0038FEC78301010183C7FFFF00009E
:1081180001FFFF010100FFFF0701010100007FFFD0
:1081280080000000FFFF7F0000FFFFFF000001FF4D
:10813800FFFF010000000000000000000000000038
:10814800030F3F7F7FFFFFFFFFFFFFFFE7C7C78FDB
:108158008F9FBFFFFFC3C0F0FFFFFFFFFFFCFCFCCA
:10816800FCFCFCFCFCF8F8F0F0E0C00001030303A1
:1081780003030103030000000001030303030101DB
:1081880003010000000103030303010103030000CE
:1081980000030300000003030000000000000001CA
:1081A80003030303030100000001030100000003AF
:1081B80003010000000000000000000000000000B3
:1081C80000000080C0E0F0F9FFFFFFFFFF3F1F0F36
:1081D80087C7F7FFFF1F1F3DFCF8F8F8F87C7DFF05
:1081E800FFFFFFFFFFFFFF7F3F0F0700303000005A
:1081F8000000000000000000000000000000000077
:1082080000000000FEFEFC0000000000000000006E
:1082180000000000000000000000000000E0C000B6
:1082280000000000000000000000303000000000E6
:108238000000000000000000000000000000000036
:1082480000C0FEFFFFFFFFFFFFFFFFFF7F7F3F1F15
:108258000F071F7FFFFFF8F8FFFFFFFFFFFEF8E0A3
:10826800000000010000000000000000FEFE000009
:1082780000FCFEFC0C06060EFCF80000F0F81C0ED4
:108288000606060CFFFFFF0000FEFE00000000FCD3
:10829800FEFC00183C7E66E6CE84000006FFFF0662
:1082A80006FCFEFC0C0606060000FEFE0000C0F8F8
:1082B800FC4E4646464E7C7840183C76E6CECC804E
:1082C80000000000000000000000000000000000A6
:1082D8000000000001070F1F1F3F3F3F3F1F0F0314
:1082E8000000000000000000000000000F0F000068
:1082F800000F0F0F000000000F0F000003070E0C07
:1083080018180C060F0F0F0000010F0E0C180C0F99
:10831800070100040E0C180C0F070000000F0F00D7
:10832800000F0F0F0000000000000F0F00000007F3
:10833800070C0C181C0C060600040E0C180C0F0772
:108348000000000000000000000000000000000025
:108358000000000000000000000000000000000015
:108368000000000000000000000000000000000005
:1083780000000000000000000000000000000000F5
:1083880000000000000000000000000000000000E5
:1083980000000000000000000000000000000000D5
:1083A80000000000000000000000000000000000C5
:1083B80000000000000000000000000000000000B5
:1083C800007C0B0084E50320000000000000000092
:1083D8000000000000000000000000000000000095
:1083E8000000000000000000000000000000000085
:1083F8000000000000000000000000000000000075
:108408000000000000000000000000000000000064
:108418000000000000000000000000000000000054
:0C8428000000000000000000ECE7032052
:10843400FFFFFFFF00000102030405060708090A05
:108444000B0C0D0E0F101112131415161718191A00
:088454001B1C1D1E1F20280047
:04845C007856341208
:04000003B000401CED
:00000001FF
